{
  "_format": "hh-sol-artifact-1",
  "contractName": "Pins4Ukraine",
  "sourceName": "contracts/Pins4Ukraine.sol",
  "abi": [
    {
      "inputs": [],
      "stateMutability": "nonpayable",
      "type": "constructor"
    },
    {
      "anonymous": false,
      "inputs": [
        {
          "indexed": true,
          "internalType": "address",
          "name": "account",
          "type": "address"
        },
        {
          "indexed": true,
          "internalType": "address",
          "name": "operator",
          "type": "address"
        },
        {
          "indexed": false,
          "internalType": "bool",
          "name": "approved",
          "type": "bool"
        }
      ],
      "name": "ApprovalForAll",
      "type": "event"
    },
    {
      "anonymous": false,
      "inputs": [
        {
          "indexed": true,
          "internalType": "address",
          "name": "previousOwner",
          "type": "address"
        },
        {
          "indexed": true,
          "internalType": "address",
          "name": "newOwner",
          "type": "address"
        }
      ],
      "name": "OwnershipTransferred",
      "type": "event"
    },
    {
      "anonymous": false,
      "inputs": [
        {
          "indexed": true,
          "internalType": "address",
          "name": "operator",
          "type": "address"
        },
        {
          "indexed": true,
          "internalType": "address",
          "name": "from",
          "type": "address"
        },
        {
          "indexed": true,
          "internalType": "address",
          "name": "to",
          "type": "address"
        },
        {
          "indexed": false,
          "internalType": "uint256[]",
          "name": "ids",
          "type": "uint256[]"
        },
        {
          "indexed": false,
          "internalType": "uint256[]",
          "name": "values",
          "type": "uint256[]"
        }
      ],
      "name": "TransferBatch",
      "type": "event"
    },
    {
      "anonymous": false,
      "inputs": [
        {
          "indexed": true,
          "internalType": "address",
          "name": "operator",
          "type": "address"
        },
        {
          "indexed": true,
          "internalType": "address",
          "name": "from",
          "type": "address"
        },
        {
          "indexed": true,
          "internalType": "address",
          "name": "to",
          "type": "address"
        },
        {
          "indexed": false,
          "internalType": "uint256",
          "name": "id",
          "type": "uint256"
        },
        {
          "indexed": false,
          "internalType": "uint256",
          "name": "value",
          "type": "uint256"
        }
      ],
      "name": "TransferSingle",
      "type": "event"
    },
    {
      "anonymous": false,
      "inputs": [
        {
          "indexed": false,
          "internalType": "string",
          "name": "value",
          "type": "string"
        },
        {
          "indexed": true,
          "internalType": "uint256",
          "name": "id",
          "type": "uint256"
        }
      ],
      "name": "URI",
      "type": "event"
    },
    {
      "stateMutability": "payable",
      "type": "fallback"
    },
    {
      "inputs": [
        {
          "internalType": "address",
          "name": "account",
          "type": "address"
        },
        {
          "internalType": "uint256",
          "name": "id",
          "type": "uint256"
        }
      ],
      "name": "balanceOf",
      "outputs": [
        {
          "internalType": "uint256",
          "name": "",
          "type": "uint256"
        }
      ],
      "stateMutability": "view",
      "type": "function"
    },
    {
      "inputs": [
        {
          "internalType": "address[]",
          "name": "accounts",
          "type": "address[]"
        },
        {
          "internalType": "uint256[]",
          "name": "ids",
          "type": "uint256[]"
        }
      ],
      "name": "balanceOfBatch",
      "outputs": [
        {
          "internalType": "uint256[]",
          "name": "",
          "type": "uint256[]"
        }
      ],
      "stateMutability": "view",
      "type": "function"
    },
    {
      "inputs": [],
      "name": "currentTokenPrice",
      "outputs": [
        {
          "internalType": "uint256",
          "name": "",
          "type": "uint256"
        }
      ],
      "stateMutability": "view",
      "type": "function"
    },
    {
      "inputs": [],
      "name": "firstOpenDesign",
      "outputs": [
        {
          "internalType": "uint256",
          "name": "",
          "type": "uint256"
        }
      ],
      "stateMutability": "view",
      "type": "function"
    },
    {
      "inputs": [
        {
          "internalType": "address",
          "name": "account",
          "type": "address"
        },
        {
          "internalType": "address",
          "name": "operator",
          "type": "address"
        }
      ],
      "name": "isApprovedForAll",
      "outputs": [
        {
          "internalType": "bool",
          "name": "",
          "type": "bool"
        }
      ],
      "stateMutability": "view",
      "type": "function"
    },
    {
      "inputs": [],
      "name": "lastOpenDesign",
      "outputs": [
        {
          "internalType": "uint256",
          "name": "",
          "type": "uint256"
        }
      ],
      "stateMutability": "view",
      "type": "function"
    },
    {
      "inputs": [
        {
          "internalType": "uint256",
          "name": "id",
          "type": "uint256"
        }
      ],
      "name": "mint",
      "outputs": [],
      "stateMutability": "payable",
      "type": "function"
    },
    {
      "inputs": [],
      "name": "mintOpenSince",
      "outputs": [
        {
          "internalType": "uint256",
          "name": "",
          "type": "uint256"
        }
      ],
      "stateMutability": "view",
      "type": "function"
    },
    {
      "inputs": [],
      "name": "mintOpenUntil",
      "outputs": [
        {
          "internalType": "uint256",
          "name": "",
          "type": "uint256"
        }
      ],
      "stateMutability": "view",
      "type": "function"
    },
    {
      "inputs": [],
      "name": "owner",
      "outputs": [
        {
          "internalType": "address",
          "name": "",
          "type": "address"
        }
      ],
      "stateMutability": "view",
      "type": "function"
    },
    {
      "inputs": [],
      "name": "renounceOwnership",
      "outputs": [],
      "stateMutability": "nonpayable",
      "type": "function"
    },
    {
      "inputs": [
        {
          "internalType": "address",
          "name": "from",
          "type": "address"
        },
        {
          "internalType": "address",
          "name": "to",
          "type": "address"
        },
        {
          "internalType": "uint256[]",
          "name": "ids",
          "type": "uint256[]"
        },
        {
          "internalType": "uint256[]",
          "name": "amounts",
          "type": "uint256[]"
        },
        {
          "internalType": "bytes",
          "name": "data",
          "type": "bytes"
        }
      ],
      "name": "safeBatchTransferFrom",
      "outputs": [],
      "stateMutability": "nonpayable",
      "type": "function"
    },
    {
      "inputs": [
        {
          "internalType": "address",
          "name": "from",
          "type": "address"
        },
        {
          "internalType": "address",
          "name": "to",
          "type": "address"
        },
        {
          "internalType": "uint256",
          "name": "id",
          "type": "uint256"
        },
        {
          "internalType": "uint256",
          "name": "amount",
          "type": "uint256"
        },
        {
          "internalType": "bytes",
          "name": "data",
          "type": "bytes"
        }
      ],
      "name": "safeTransferFrom",
      "outputs": [],
      "stateMutability": "nonpayable",
      "type": "function"
    },
    {
      "inputs": [],
      "name": "sendSupport",
      "outputs": [],
      "stateMutability": "nonpayable",
      "type": "function"
    },
    {
      "inputs": [
        {
          "internalType": "address",
          "name": "operator",
          "type": "address"
        },
        {
          "internalType": "bool",
          "name": "approved",
          "type": "bool"
        }
      ],
      "name": "setApprovalForAll",
      "outputs": [],
      "stateMutability": "nonpayable",
      "type": "function"
    },
    {
      "inputs": [
        {
          "internalType": "uint256",
          "name": "_mintOpenSince",
          "type": "uint256"
        }
      ],
      "name": "setMintOpenSince",
      "outputs": [],
      "stateMutability": "nonpayable",
      "type": "function"
    },
    {
      "inputs": [
        {
          "internalType": "uint256",
          "name": "_mintOpenUntil",
          "type": "uint256"
        }
      ],
      "name": "setMintOpenUntil",
      "outputs": [],
      "stateMutability": "nonpayable",
      "type": "function"
    },
    {
      "inputs": [
        {
          "internalType": "uint256",
          "name": "_firstOpenDesign",
          "type": "uint256"
        },
        {
          "internalType": "uint256",
          "name": "_lastOpenDesign",
          "type": "uint256"
        }
      ],
      "name": "setOpenDesigns",
      "outputs": [],
      "stateMutability": "nonpayable",
      "type": "function"
    },
    {
      "inputs": [
        {
          "internalType": "bytes4",
          "name": "interfaceId",
          "type": "bytes4"
        }
      ],
      "name": "supportsInterface",
      "outputs": [
        {
          "internalType": "bool",
          "name": "",
          "type": "bool"
        }
      ],
      "stateMutability": "view",
      "type": "function"
    },
    {
      "inputs": [
        {
          "internalType": "address",
          "name": "newOwner",
          "type": "address"
        }
      ],
      "name": "transferOwnership",
      "outputs": [],
      "stateMutability": "nonpayable",
      "type": "function"
    },
    {
      "inputs": [
        {
          "internalType": "uint256",
          "name": "",
          "type": "uint256"
        }
      ],
      "name": "uri",
      "outputs": [
        {
          "internalType": "string",
          "name": "",
          "type": "string"
        }
      ],
      "stateMutability": "view",
      "type": "function"
    },
    {
      "stateMutability": "payable",
      "type": "receive"
    }
  ],
  "bytecode": "0x608060405260006004556000600555600060065560006007553480156200002557600080fd5b5060405180606001604052806029815260200162003a8c6029913962000051816200007860201b60201c565b5062000072620000666200009460201b60201c565b6200009c60201b60201c565b62000277565b80600290805190602001906200009092919062000162565b5050565b600033905090565b6000600360009054906101000a900473ffffffffffffffffffffffffffffffffffffffff16905081600360006101000a81548173ffffffffffffffffffffffffffffffffffffffff021916908373ffffffffffffffffffffffffffffffffffffffff1602179055508173ffffffffffffffffffffffffffffffffffffffff168173ffffffffffffffffffffffffffffffffffffffff167f8be0079c531659141344cd1fd0a4f28419497f9722a3daafe3b4186f6b6457e060405160405180910390a35050565b828054620001709062000212565b90600052602060002090601f016020900481019282620001945760008555620001e0565b82601f10620001af57805160ff1916838001178555620001e0565b82800160010185558215620001e0579182015b82811115620001df578251825591602001919060010190620001c2565b5b509050620001ef9190620001f3565b5090565b5b808211156200020e576000816000905550600101620001f4565b5090565b600060028204905060018216806200022b57607f821691505b6020821081141562000242576200024162000248565b5b50919050565b7f4e487b7100000000000000000000000000000000000000000000000000000000600052602260045260246000fd5b61380580620002876000396000f3fe60806040526004361061012d5760003560e01c80635880d282116100ab578063a22cb4651161006f578063a22cb465146103da578063bdc496e214610403578063d0c5f4b91461041a578063e985e9c514610443578063f242432a14610480578063f2fde38b146104a957610134565b80635880d28214610326578063715018a61461035157806371b3659e146103685780638da5cb5b14610393578063a0712d68146103be57610134565b80633a476672116100f25780633a476672146102415780633cac2ff01461026a5780634e03fa25146102955780634e1273f4146102c057806354867ad6146102fd57610134565b8062fdd58e1461013657806301ffc9a7146101735780630c11eeb1146101b05780630e89341c146101db5780632eb2c2d61461021857610134565b3661013457005b005b34801561014257600080fd5b5061015d6004803603810190610158919061248b565b6104d2565b60405161016a9190612d37565b60405180910390f35b34801561017f57600080fd5b5061019a60048036038101906101959190612533565b61059b565b6040516101a79190612aba565b60405180910390f35b3480156101bc57600080fd5b506101c561067d565b6040516101d29190612d37565b60405180910390f35b3480156101e757600080fd5b5061020260048036038101906101fd9190612585565b610683565b60405161020f9190612ad5565b60405180910390f35b34801561022457600080fd5b5061023f600480360381019061023a9190612301565b610717565b005b34801561024d57600080fd5b50610268600480360381019061026391906125ae565b6107b8565b005b34801561027657600080fd5b5061027f610846565b60405161028c9190612d37565b60405180910390f35b3480156102a157600080fd5b506102aa61084c565b6040516102b79190612d37565b60405180910390f35b3480156102cc57600080fd5b506102e760048036038101906102e291906124c7565b610852565b6040516102f49190612a61565b60405180910390f35b34801561030957600080fd5b50610324600480360381019061031f9190612585565b610a03565b005b34801561033257600080fd5b5061033b610a89565b6040516103489190612d37565b60405180910390f35b34801561035d57600080fd5b50610366610a8f565b005b34801561037457600080fd5b5061037d610b17565b60405161038a9190612d37565b60405180910390f35b34801561039f57600080fd5b506103a8610b9d565b6040516103b59190612984565b60405180910390f35b6103d860048036038101906103d39190612585565b610bc7565b005b3480156103e657600080fd5b5061040160048036038101906103fc919061244f565b610db1565b005b34801561040f57600080fd5b50610418610dc7565b005b34801561042657600080fd5b50610441600480360381019061043c9190612585565b610f10565b005b34801561044f57600080fd5b5061046a600480360381019061046591906122c5565b610f96565b6040516104779190612aba565b60405180910390f35b34801561048c57600080fd5b506104a760048036038101906104a291906123c0565b61102a565b005b3480156104b557600080fd5b506104d060048036038101906104cb919061229c565b6110cb565b005b60008073ffffffffffffffffffffffffffffffffffffffff168373ffffffffffffffffffffffffffffffffffffffff161415610543576040517f08c379a000000000000000000000000000000000000000000000000000000000815260040161053a90612b57565b60405180910390fd5b60008083815260200190815260200160002060008473ffffffffffffffffffffffffffffffffffffffff1673ffffffffffffffffffffffffffffffffffffffff16815260200190815260200160002054905092915050565b60007fd9b67a26000000000000000000000000000000000000000000000000000000007bffffffffffffffffffffffffffffffffffffffffffffffffffffffff1916827bffffffffffffffffffffffffffffffffffffffffffffffffffffffff1916148061066657507f0e89341c000000000000000000000000000000000000000000000000000000007bffffffffffffffffffffffffffffffffffffffffffffffffffffffff1916827bffffffffffffffffffffffffffffffffffffffffffffffffffffffff1916145b806106765750610675826111c3565b5b9050919050565b60055481565b60606002805461069290613065565b80601f01602080910402602001604051908101604052809291908181526020018280546106be90613065565b801561070b5780601f106106e05761010080835404028352916020019161070b565b820191906000526020600020905b8154815290600101906020018083116106ee57829003601f168201915b50505050509050919050565b61071f61122d565b73ffffffffffffffffffffffffffffffffffffffff168573ffffffffffffffffffffffffffffffffffffffff16148061076557506107648561075f61122d565b610f96565b5b6107a4576040517f08c379a000000000000000000000000000000000000000000000000000000000815260040161079b90612c17565b60405180910390fd5b6107b18585858585611235565b5050505050565b6107c061122d565b73ffffffffffffffffffffffffffffffffffffffff166107de610b9d565b73ffffffffffffffffffffffffffffffffffffffff1614610834576040517f08c379a000000000000000000000000000000000000000000000000000000000815260040161082b90612c57565b60405180910390fd5b81600481905550806005819055505050565b60065481565b60045481565b60608151835114610898576040517f08c379a000000000000000000000000000000000000000000000000000000000815260040161088f90612cb7565b60405180910390fd5b6000835167ffffffffffffffff8111156108db577f4e487b7100000000000000000000000000000000000000000000000000000000600052604160045260246000fd5b6040519080825280602002602001820160405280156109095781602001602082028036833780820191505090505b50905060005b84518110156109f8576109a2858281518110610954577f4e487b7100000000000000000000000000000000000000000000000000000000600052603260045260246000fd5b6020026020010151858381518110610995577f4e487b7100000000000000000000000000000000000000000000000000000000600052603260045260246000fd5b60200260200101516104d2565b8282815181106109db577f4e487b7100000000000000000000000000000000000000000000000000000000600052603260045260246000fd5b602002602001018181525050806109f1906130c8565b905061090f565b508091505092915050565b610a0b61122d565b73ffffffffffffffffffffffffffffffffffffffff16610a29610b9d565b73ffffffffffffffffffffffffffffffffffffffff1614610a7f576040517f08c379a0000000000000000000000000000000000000000000000000000000008152600401610a7690612c57565b60405180910390fd5b8060078190555050565b60075481565b610a9761122d565b73ffffffffffffffffffffffffffffffffffffffff16610ab5610b9d565b73ffffffffffffffffffffffffffffffffffffffff1614610b0b576040517f08c379a0000000000000000000000000000000000000000000000000000000008152600401610b0290612c57565b60405180910390fd5b610b156000611595565b565b6000600654421015610b5e576040517f08c379a0000000000000000000000000000000000000000000000000000000008152600401610b5590612bb7565b60405180910390fd5b600060065442610b6e9190612f7b565b905060006203f48082610b819190612ef0565b9050662386f26fc1000081610b969190612f21565b9250505090565b6000600360009054906101000a900473ffffffffffffffffffffffffffffffffffffffff16905090565b6000600654118015610bdb57506000600454115b8015610be957506000600554115b610c28576040517f08c379a0000000000000000000000000000000000000000000000000000000008152600401610c1f90612b37565b60405180910390fd5b600654421015610c6d576040517f08c379a0000000000000000000000000000000000000000000000000000000008152600401610c6490612bb7565b60405180910390fd5b60006007541480610c7f575060075442105b610cbe576040517f08c379a0000000000000000000000000000000000000000000000000000000008152600401610cb590612bd7565b60405180910390fd5b600454811015610d03576040517f08c379a0000000000000000000000000000000000000000000000000000000008152600401610cfa90612cd7565b60405180910390fd5b600554811115610d48576040517f08c379a0000000000000000000000000000000000000000000000000000000008152600401610d3f90612cd7565b60405180910390fd5b610d50610b17565b341015610d92576040517f08c379a0000000000000000000000000000000000000000000000000000000008152600401610d8990612c77565b60405180910390fd5b610dae338260016040518060200160405280600081525061165b565b50565b610dc3610dbc61122d565b83836117f1565b5050565b60004790507302f1c4c93afed946cce5ad7d34354a150befcfcf73ffffffffffffffffffffffffffffffffffffffff166108fc6064601e84610e099190612f21565b610e139190612ef0565b9081150290604051600060405180830381858888f19350505050158015610e3e573d6000803e3d6000fd5b507302f1c4c93afed946cce5ad7d34354a150befcfcf73ffffffffffffffffffffffffffffffffffffffff166108fc6064601484610e7c9190612f21565b610e869190612ef0565b9081150290604051600060405180830381858888f19350505050158015610eb1573d6000803e3d6000fd5b507302f1c4c93afed946cce5ad7d34354a150befcfcf73ffffffffffffffffffffffffffffffffffffffff166108fc479081150290604051600060405180830381858888f19350505050158015610f0c573d6000803e3d6000fd5b5050565b610f1861122d565b73ffffffffffffffffffffffffffffffffffffffff16610f36610b9d565b73ffffffffffffffffffffffffffffffffffffffff1614610f8c576040517f08c379a0000000000000000000000000000000000000000000000000000000008152600401610f8390612c57565b60405180910390fd5b8060068190555050565b6000600160008473ffffffffffffffffffffffffffffffffffffffff1673ffffffffffffffffffffffffffffffffffffffff16815260200190815260200160002060008373ffffffffffffffffffffffffffffffffffffffff1673ffffffffffffffffffffffffffffffffffffffff16815260200190815260200160002060009054906101000a900460ff16905092915050565b61103261122d565b73ffffffffffffffffffffffffffffffffffffffff168573ffffffffffffffffffffffffffffffffffffffff16148061107857506110778561107261122d565b610f96565b5b6110b7576040517f08c379a00000000000000000000000000000000000000000000000000000000081526004016110ae90612b97565b60405180910390fd5b6110c4858585858561195e565b5050505050565b6110d361122d565b73ffffffffffffffffffffffffffffffffffffffff166110f1610b9d565b73ffffffffffffffffffffffffffffffffffffffff1614611147576040517f08c379a000000000000000000000000000000000000000000000000000000000815260040161113e90612c57565b60405180910390fd5b600073ffffffffffffffffffffffffffffffffffffffff168173ffffffffffffffffffffffffffffffffffffffff1614156111b7576040517f08c379a00000000000000000000000000000000000000000000000000000000081526004016111ae90612b77565b60405180910390fd5b6111c081611595565b50565b60007f01ffc9a7000000000000000000000000000000000000000000000000000000007bffffffffffffffffffffffffffffffffffffffffffffffffffffffff1916827bffffffffffffffffffffffffffffffffffffffffffffffffffffffff1916149050919050565b600033905090565b8151835114611279576040517f08c379a000000000000000000000000000000000000000000000000000000000815260040161127090612cf7565b60405180910390fd5b600073ffffffffffffffffffffffffffffffffffffffff168473ffffffffffffffffffffffffffffffffffffffff1614156112e9576040517f08c379a00000000000000000000000000000000000000000000000000000000081526004016112e090612bf7565b60405180910390fd5b60006112f361122d565b9050611303818787878787611be0565b60005b845181101561150057600085828151811061134a577f4e487b7100000000000000000000000000000000000000000000000000000000600052603260045260246000fd5b60200260200101519050600085838151811061138f577f4e487b7100000000000000000000000000000000000000000000000000000000600052603260045260246000fd5b60200260200101519050600080600084815260200190815260200160002060008b73ffffffffffffffffffffffffffffffffffffffff1673ffffffffffffffffffffffffffffffffffffffff16815260200190815260200160002054905081811015611430576040517f08c379a000000000000000000000000000000000000000000000000000000000815260040161142790612c37565b60405180910390fd5b81810360008085815260200190815260200160002060008c73ffffffffffffffffffffffffffffffffffffffff1673ffffffffffffffffffffffffffffffffffffffff168152602001908152602001600020819055508160008085815260200190815260200160002060008b73ffffffffffffffffffffffffffffffffffffffff1673ffffffffffffffffffffffffffffffffffffffff16815260200190815260200160002060008282546114e59190612e9a565b92505081905550505050806114f9906130c8565b9050611306565b508473ffffffffffffffffffffffffffffffffffffffff168673ffffffffffffffffffffffffffffffffffffffff168273ffffffffffffffffffffffffffffffffffffffff167f4a39dc06d4c0dbc64b70af90fd698a233a518aa5d07e595d983b8c0526c8f7fb8787604051611577929190612a83565b60405180910390a461158d818787878787611be8565b505050505050565b6000600360009054906101000a900473ffffffffffffffffffffffffffffffffffffffff16905081600360006101000a81548173ffffffffffffffffffffffffffffffffffffffff021916908373ffffffffffffffffffffffffffffffffffffffff1602179055508173ffffffffffffffffffffffffffffffffffffffff168173ffffffffffffffffffffffffffffffffffffffff167f8be0079c531659141344cd1fd0a4f28419497f9722a3daafe3b4186f6b6457e060405160405180910390a35050565b600073ffffffffffffffffffffffffffffffffffffffff168473ffffffffffffffffffffffffffffffffffffffff1614156116cb576040517f08c379a00000000000000000000000000000000000000000000000000000000081526004016116c290612d17565b60405180910390fd5b60006116d561122d565b90506116f6816000876116e788611dcf565b6116f088611dcf565b87611be0565b8260008086815260200190815260200160002060008773ffffffffffffffffffffffffffffffffffffffff1673ffffffffffffffffffffffffffffffffffffffff16815260200190815260200160002060008282546117559190612e9a565b925050819055508473ffffffffffffffffffffffffffffffffffffffff16600073ffffffffffffffffffffffffffffffffffffffff168273ffffffffffffffffffffffffffffffffffffffff167fc3d58168c5ae7397731d063d5bbf3d657854427343f4c083240f7aacaa2d0f6287876040516117d3929190612d52565b60405180910390a46117ea81600087878787611e95565b5050505050565b8173ffffffffffffffffffffffffffffffffffffffff168373ffffffffffffffffffffffffffffffffffffffff161415611860576040517f08c379a000000000000000000000000000000000000000000000000000000000815260040161185790612c97565b60405180910390fd5b80600160008573ffffffffffffffffffffffffffffffffffffffff1673ffffffffffffffffffffffffffffffffffffffff16815260200190815260200160002060008473ffffffffffffffffffffffffffffffffffffffff1673ffffffffffffffffffffffffffffffffffffffff16815260200190815260200160002060006101000a81548160ff0219169083151502179055508173ffffffffffffffffffffffffffffffffffffffff168373ffffffffffffffffffffffffffffffffffffffff167f17307eab39ab6107e8899845ad3d59bd9653f200f220920489ca2b5937696c31836040516119519190612aba565b60405180910390a3505050565b600073ffffffffffffffffffffffffffffffffffffffff168473ffffffffffffffffffffffffffffffffffffffff1614156119ce576040517f08c379a00000000000000000000000000000000000000000000000000000000081526004016119c590612bf7565b60405180910390fd5b60006119d861122d565b90506119f88187876119e988611dcf565b6119f288611dcf565b87611be0565b600080600086815260200190815260200160002060008873ffffffffffffffffffffffffffffffffffffffff1673ffffffffffffffffffffffffffffffffffffffff16815260200190815260200160002054905083811015611a8f576040517f08c379a0000000000000000000000000000000000000000000000000000000008152600401611a8690612c37565b60405180910390fd5b83810360008087815260200190815260200160002060008973ffffffffffffffffffffffffffffffffffffffff1673ffffffffffffffffffffffffffffffffffffffff168152602001908152602001600020819055508360008087815260200190815260200160002060008873ffffffffffffffffffffffffffffffffffffffff1673ffffffffffffffffffffffffffffffffffffffff1681526020019081526020016000206000828254611b449190612e9a565b925050819055508573ffffffffffffffffffffffffffffffffffffffff168773ffffffffffffffffffffffffffffffffffffffff168373ffffffffffffffffffffffffffffffffffffffff167fc3d58168c5ae7397731d063d5bbf3d657854427343f4c083240f7aacaa2d0f628888604051611bc1929190612d52565b60405180910390a4611bd7828888888888611e95565b50505050505050565b505050505050565b611c078473ffffffffffffffffffffffffffffffffffffffff1661207c565b15611dc7578373ffffffffffffffffffffffffffffffffffffffff1663bc197c8187878686866040518663ffffffff1660e01b8152600401611c4d95949392919061299f565b602060405180830381600087803b158015611c6757600080fd5b505af1925050508015611c9857506040513d601f19601f82011682018060405250810190611c95919061255c565b60015b611d3e57611ca46131cd565b806308c379a01415611d015750611cb96136dd565b80611cc45750611d03565b806040517f08c379a0000000000000000000000000000000000000000000000000000000008152600401611cf89190612ad5565b60405180910390fd5b505b6040517f08c379a0000000000000000000000000000000000000000000000000000000008152600401611d3590612af7565b60405180910390fd5b63bc197c8160e01b7bffffffffffffffffffffffffffffffffffffffffffffffffffffffff1916817bffffffffffffffffffffffffffffffffffffffffffffffffffffffff191614611dc5576040517f08c379a0000000000000000000000000000000000000000000000000000000008152600401611dbc90612b17565b60405180910390fd5b505b505050505050565b60606000600167ffffffffffffffff811115611e14577f4e487b7100000000000000000000000000000000000000000000000000000000600052604160045260246000fd5b604051908082528060200260200182016040528015611e425781602001602082028036833780820191505090505b5090508281600081518110611e80577f4e487b7100000000000000000000000000000000000000000000000000000000600052603260045260246000fd5b60200260200101818152505080915050919050565b611eb48473ffffffffffffffffffffffffffffffffffffffff1661207c565b15612074578373ffffffffffffffffffffffffffffffffffffffff1663f23a6e6187878686866040518663ffffffff1660e01b8152600401611efa959493929190612a07565b602060405180830381600087803b158015611f1457600080fd5b505af1925050508015611f4557506040513d601f19601f82011682018060405250810190611f42919061255c565b60015b611feb57611f516131cd565b806308c379a01415611fae5750611f666136dd565b80611f715750611fb0565b806040517f08c379a0000000000000000000000000000000000000000000000000000000008152600401611fa59190612ad5565b60405180910390fd5b505b6040517f08c379a0000000000000000000000000000000000000000000000000000000008152600401611fe290612af7565b60405180910390fd5b63f23a6e6160e01b7bffffffffffffffffffffffffffffffffffffffffffffffffffffffff1916817bffffffffffffffffffffffffffffffffffffffffffffffffffffffff191614612072576040517f08c379a000000000000000000000000000000000000000000000000000000000815260040161206990612b17565b60405180910390fd5b505b505050505050565b6000808273ffffffffffffffffffffffffffffffffffffffff163b119050919050565b60006120b26120ad84612da0565b612d7b565b905080838252602082019050828560208602820111156120d157600080fd5b60005b8581101561210157816120e788826121b5565b8452602084019350602083019250506001810190506120d4565b5050509392505050565b600061211e61211984612dcc565b612d7b565b9050808382526020820190508285602086028201111561213d57600080fd5b60005b8581101561216d57816121538882612287565b845260208401935060208301925050600181019050612140565b5050509392505050565b600061218a61218584612df8565b612d7b565b9050828152602081018484840111156121a257600080fd5b6121ad848285613023565b509392505050565b6000813590506121c481613773565b92915050565b600082601f8301126121db57600080fd5b81356121eb84826020860161209f565b91505092915050565b600082601f83011261220557600080fd5b813561221584826020860161210b565b91505092915050565b60008135905061222d8161378a565b92915050565b600081359050612242816137a1565b92915050565b600081519050612257816137a1565b92915050565b600082601f83011261226e57600080fd5b813561227e848260208601612177565b91505092915050565b600081359050612296816137b8565b92915050565b6000602082840312156122ae57600080fd5b60006122bc848285016121b5565b91505092915050565b600080604083850312156122d857600080fd5b60006122e6858286016121b5565b92505060206122f7858286016121b5565b9150509250929050565b600080600080600060a0868803121561231957600080fd5b6000612327888289016121b5565b9550506020612338888289016121b5565b945050604086013567ffffffffffffffff81111561235557600080fd5b612361888289016121f4565b935050606086013567ffffffffffffffff81111561237e57600080fd5b61238a888289016121f4565b925050608086013567ffffffffffffffff8111156123a757600080fd5b6123b38882890161225d565b9150509295509295909350565b600080600080600060a086880312156123d857600080fd5b60006123e6888289016121b5565b95505060206123f7888289016121b5565b945050604061240888828901612287565b935050606061241988828901612287565b925050608086013567ffffffffffffffff81111561243657600080fd5b6124428882890161225d565b9150509295509295909350565b6000806040838503121561246257600080fd5b6000612470858286016121b5565b92505060206124818582860161221e565b9150509250929050565b6000806040838503121561249e57600080fd5b60006124ac858286016121b5565b92505060206124bd85828601612287565b9150509250929050565b600080604083850312156124da57600080fd5b600083013567ffffffffffffffff8111156124f457600080fd5b612500858286016121ca565b925050602083013567ffffffffffffffff81111561251d57600080fd5b612529858286016121f4565b9150509250929050565b60006020828403121561254557600080fd5b600061255384828501612233565b91505092915050565b60006020828403121561256e57600080fd5b600061257c84828501612248565b91505092915050565b60006020828403121561259757600080fd5b60006125a584828501612287565b91505092915050565b600080604083850312156125c157600080fd5b60006125cf85828601612287565b92505060206125e085828601612287565b9150509250929050565b60006125f68383612966565b60208301905092915050565b61260b81612faf565b82525050565b600061261c82612e39565b6126268185612e67565b935061263183612e29565b8060005b8381101561266257815161264988826125ea565b975061265483612e5a565b925050600181019050612635565b5085935050505092915050565b61267881612fc1565b82525050565b600061268982612e44565b6126938185612e78565b93506126a3818560208601613032565b6126ac816131ef565b840191505092915050565b60006126c282612e4f565b6126cc8185612e89565b93506126dc818560208601613032565b6126e5816131ef565b840191505092915050565b60006126fd603483612e89565b91506127088261320d565b604082019050919050565b6000612720602883612e89565b915061272b8261325c565b604082019050919050565b6000612743601383612e89565b915061274e826132ab565b602082019050919050565b6000612766602b83612e89565b9150612771826132d4565b604082019050919050565b6000612789602683612e89565b915061279482613323565b604082019050919050565b60006127ac602983612e89565b91506127b782613372565b604082019050919050565b60006127cf601483612e89565b91506127da826133c1565b602082019050919050565b60006127f2601a83612e89565b91506127fd826133ea565b602082019050919050565b6000612815602583612e89565b915061282082613413565b604082019050919050565b6000612838603283612e89565b915061284382613462565b604082019050919050565b600061285b602a83612e89565b9150612866826134b1565b604082019050919050565b600061287e602083612e89565b915061288982613500565b602082019050919050565b60006128a1603483612e89565b91506128ac82613529565b604082019050919050565b60006128c4602983612e89565b91506128cf82613578565b604082019050919050565b60006128e7602983612e89565b91506128f2826135c7565b604082019050919050565b600061290a601b83612e89565b915061291582613616565b602082019050919050565b600061292d602883612e89565b91506129388261363f565b604082019050919050565b6000612950602183612e89565b915061295b8261368e565b604082019050919050565b61296f81613019565b82525050565b61297e81613019565b82525050565b60006020820190506129996000830184612602565b92915050565b600060a0820190506129b46000830188612602565b6129c16020830187612602565b81810360408301526129d38186612611565b905081810360608301526129e78185612611565b905081810360808301526129fb818461267e565b90509695505050505050565b600060a082019050612a1c6000830188612602565b612a296020830187612602565b612a366040830186612975565b612a436060830185612975565b8181036080830152612a55818461267e565b90509695505050505050565b60006020820190508181036000830152612a7b8184612611565b905092915050565b60006040820190508181036000830152612a9d8185612611565b90508181036020830152612ab18184612611565b90509392505050565b6000602082019050612acf600083018461266f565b92915050565b60006020820190508181036000830152612aef81846126b7565b905092915050565b60006020820190508181036000830152612b10816126f0565b9050919050565b60006020820190508181036000830152612b3081612713565b9050919050565b60006020820190508181036000830152612b5081612736565b9050919050565b60006020820190508181036000830152612b7081612759565b9050919050565b60006020820190508181036000830152612b908161277c565b9050919050565b60006020820190508181036000830152612bb08161279f565b9050919050565b60006020820190508181036000830152612bd0816127c2565b9050919050565b60006020820190508181036000830152612bf0816127e5565b9050919050565b60006020820190508181036000830152612c1081612808565b9050919050565b60006020820190508181036000830152612c308161282b565b9050919050565b60006020820190508181036000830152612c508161284e565b9050919050565b60006020820190508181036000830152612c7081612871565b9050919050565b60006020820190508181036000830152612c9081612894565b9050919050565b60006020820190508181036000830152612cb0816128b7565b9050919050565b60006020820190508181036000830152612cd0816128da565b9050919050565b60006020820190508181036000830152612cf0816128fd565b9050919050565b60006020820190508181036000830152612d1081612920565b9050919050565b60006020820190508181036000830152612d3081612943565b9050919050565b6000602082019050612d4c6000830184612975565b92915050565b6000604082019050612d676000830185612975565b612d746020830184612975565b9392505050565b6000612d85612d96565b9050612d918282613097565b919050565b6000604051905090565b600067ffffffffffffffff821115612dbb57612dba61319e565b5b602082029050602081019050919050565b600067ffffffffffffffff821115612de757612de661319e565b5b602082029050602081019050919050565b600067ffffffffffffffff821115612e1357612e1261319e565b5b612e1c826131ef565b9050602081019050919050565b6000819050602082019050919050565b600081519050919050565b600081519050919050565b600081519050919050565b6000602082019050919050565b600082825260208201905092915050565b600082825260208201905092915050565b600082825260208201905092915050565b6000612ea582613019565b9150612eb083613019565b9250827fffffffffffffffffffffffffffffffffffffffffffffffffffffffffffffffff03821115612ee557612ee4613111565b5b828201905092915050565b6000612efb82613019565b9150612f0683613019565b925082612f1657612f15613140565b5b828204905092915050565b6000612f2c82613019565b9150612f3783613019565b9250817fffffffffffffffffffffffffffffffffffffffffffffffffffffffffffffffff0483118215151615612f7057612f6f613111565b5b828202905092915050565b6000612f8682613019565b9150612f9183613019565b925082821015612fa457612fa3613111565b5b828203905092915050565b6000612fba82612ff9565b9050919050565b60008115159050919050565b60007fffffffff0000000000000000000000000000000000000000000000000000000082169050919050565b600073ffffffffffffffffffffffffffffffffffffffff82169050919050565b6000819050919050565b82818337600083830152505050565b60005b83811015613050578082015181840152602081019050613035565b8381111561305f576000848401525b50505050565b6000600282049050600182168061307d57607f821691505b602082108114156130915761309061316f565b5b50919050565b6130a0826131ef565b810181811067ffffffffffffffff821117156130bf576130be61319e565b5b80604052505050565b60006130d382613019565b91507fffffffffffffffffffffffffffffffffffffffffffffffffffffffffffffffff82141561310657613105613111565b5b600182019050919050565b7f4e487b7100000000000000000000000000000000000000000000000000000000600052601160045260246000fd5b7f4e487b7100000000000000000000000000000000000000000000000000000000600052601260045260246000fd5b7f4e487b7100000000000000000000000000000000000000000000000000000000600052602260045260246000fd5b7f4e487b7100000000000000000000000000000000000000000000000000000000600052604160045260246000fd5b600060033d11156131ec5760046000803e6131e9600051613200565b90505b90565b6000601f19601f8301169050919050565b60008160e01c9050919050565b7f455243313135353a207472616e7366657220746f206e6f6e204552433131353560008201527f526563656976657220696d706c656d656e746572000000000000000000000000602082015250565b7f455243313135353a204552433131353552656365697665722072656a6563746560008201527f6420746f6b656e73000000000000000000000000000000000000000000000000602082015250565b7f4d696e74206e6f7420636f6e6669677572656400000000000000000000000000600082015250565b7f455243313135353a2062616c616e636520717565727920666f7220746865207a60008201527f65726f2061646472657373000000000000000000000000000000000000000000602082015250565b7f4f776e61626c653a206e6577206f776e657220697320746865207a65726f206160008201527f6464726573730000000000000000000000000000000000000000000000000000602082015250565b7f455243313135353a2063616c6c6572206973206e6f74206f776e6572206e6f7260008201527f20617070726f7665640000000000000000000000000000000000000000000000602082015250565b7f4d696e74696e67206e6f74206f70656e20796574000000000000000000000000600082015250565b7f4d696e74696e672077617320636c6f73656420616c7265616479000000000000600082015250565b7f455243313135353a207472616e7366657220746f20746865207a65726f20616460008201527f6472657373000000000000000000000000000000000000000000000000000000602082015250565b7f455243313135353a207472616e736665722063616c6c6572206973206e6f742060008201527f6f776e6572206e6f7220617070726f7665640000000000000000000000000000602082015250565b7f455243313135353a20696e73756666696369656e742062616c616e636520666f60008201527f72207472616e7366657200000000000000000000000000000000000000000000602082015250565b7f4f776e61626c653a2063616c6c6572206973206e6f7420746865206f776e6572600082015250565b7f4e6f7420656e6f756768742076616c756520746f206d696e742c20706c65617360008201527f652075736520706c61696e207472616e73666572000000000000000000000000602082015250565b7f455243313135353a2073657474696e6720617070726f76616c2073746174757360008201527f20666f722073656c660000000000000000000000000000000000000000000000602082015250565b7f455243313135353a206163636f756e747320616e6420696473206c656e67746860008201527f206d69736d617463680000000000000000000000000000000000000000000000602082015250565b7f546869732064657369676e2069736e2774206176616c6169626c650000000000600082015250565b7f455243313135353a2069647320616e6420616d6f756e7473206c656e6774682060008201527f6d69736d61746368000000000000000000000000000000000000000000000000602082015250565b7f455243313135353a206d696e7420746f20746865207a65726f2061646472657360008201527f7300000000000000000000000000000000000000000000000000000000000000602082015250565b600060443d10156136ed57613770565b6136f5612d96565b60043d036004823e80513d602482011167ffffffffffffffff8211171561371d575050613770565b808201805167ffffffffffffffff81111561373b5750505050613770565b80602083010160043d038501811115613758575050505050613770565b61376782602001850186613097565b82955050505050505b90565b61377c81612faf565b811461378757600080fd5b50565b61379381612fc1565b811461379e57600080fd5b50565b6137aa81612fcd565b81146137b557600080fd5b50565b6137c181613019565b81146137cc57600080fd5b5056fea264697066735822122002afa9c6881c6348f1abac917edea7404fd46ebbfd6fcdf64e0f2ff18f7ba0c764736f6c6343000804003368747470733a2f2f70696e7334756b7261696e652e636f6d2f6173736574732f7b69647d2e6a736f6e",
  "linkReferences": {},
  "deployedLinkReferences": {}
}