{
  "_format": "hh-sol-artifact-1",
  "contractName": "Pins4Ukraine",
  "sourceName": "contracts/Pins4Ukraine.sol",
  "abi": [
    {
      "inputs": [],
      "stateMutability": "nonpayable",
      "type": "constructor"
    },
    {
      "anonymous": false,
      "inputs": [
        {
          "indexed": true,
          "internalType": "address",
          "name": "account",
          "type": "address"
        },
        {
          "indexed": true,
          "internalType": "address",
          "name": "operator",
          "type": "address"
        },
        {
          "indexed": false,
          "internalType": "bool",
          "name": "approved",
          "type": "bool"
        }
      ],
      "name": "ApprovalForAll",
      "type": "event"
    },
    {
      "anonymous": false,
      "inputs": [
        {
          "indexed": true,
          "internalType": "address",
          "name": "operator",
          "type": "address"
        },
        {
          "indexed": true,
          "internalType": "address",
          "name": "from",
          "type": "address"
        },
        {
          "indexed": true,
          "internalType": "address",
          "name": "to",
          "type": "address"
        },
        {
          "indexed": false,
          "internalType": "uint256[]",
          "name": "ids",
          "type": "uint256[]"
        },
        {
          "indexed": false,
          "internalType": "uint256[]",
          "name": "values",
          "type": "uint256[]"
        }
      ],
      "name": "TransferBatch",
      "type": "event"
    },
    {
      "anonymous": false,
      "inputs": [
        {
          "indexed": true,
          "internalType": "address",
          "name": "operator",
          "type": "address"
        },
        {
          "indexed": true,
          "internalType": "address",
          "name": "from",
          "type": "address"
        },
        {
          "indexed": true,
          "internalType": "address",
          "name": "to",
          "type": "address"
        },
        {
          "indexed": false,
          "internalType": "uint256",
          "name": "id",
          "type": "uint256"
        },
        {
          "indexed": false,
          "internalType": "uint256",
          "name": "value",
          "type": "uint256"
        }
      ],
      "name": "TransferSingle",
      "type": "event"
    },
    {
      "anonymous": false,
      "inputs": [
        {
          "indexed": false,
          "internalType": "string",
          "name": "value",
          "type": "string"
        },
        {
          "indexed": true,
          "internalType": "uint256",
          "name": "id",
          "type": "uint256"
        }
      ],
      "name": "URI",
      "type": "event"
    },
    {
      "stateMutability": "payable",
      "type": "fallback"
    },
    {
      "inputs": [
        {
          "internalType": "address",
          "name": "account",
          "type": "address"
        },
        {
          "internalType": "uint256",
          "name": "id",
          "type": "uint256"
        }
      ],
      "name": "balanceOf",
      "outputs": [
        {
          "internalType": "uint256",
          "name": "",
          "type": "uint256"
        }
      ],
      "stateMutability": "view",
      "type": "function"
    },
    {
      "inputs": [
        {
          "internalType": "address[]",
          "name": "accounts",
          "type": "address[]"
        },
        {
          "internalType": "uint256[]",
          "name": "ids",
          "type": "uint256[]"
        }
      ],
      "name": "balanceOfBatch",
      "outputs": [
        {
          "internalType": "uint256[]",
          "name": "",
          "type": "uint256[]"
        }
      ],
      "stateMutability": "view",
      "type": "function"
    },
    {
      "inputs": [
        {
          "internalType": "address",
          "name": "account",
          "type": "address"
        },
        {
          "internalType": "address",
          "name": "operator",
          "type": "address"
        }
      ],
      "name": "isApprovedForAll",
      "outputs": [
        {
          "internalType": "bool",
          "name": "",
          "type": "bool"
        }
      ],
      "stateMutability": "view",
      "type": "function"
    },
    {
      "inputs": [
        {
          "internalType": "uint256",
          "name": "_tokenId",
          "type": "uint256"
        }
      ],
      "name": "mint",
      "outputs": [],
      "stateMutability": "payable",
      "type": "function"
    },
    {
      "inputs": [
        {
          "internalType": "uint256",
          "name": "",
          "type": "uint256"
        },
        {
          "internalType": "uint256",
          "name": "_salePrice",
          "type": "uint256"
        }
      ],
      "name": "royaltyInfo",
      "outputs": [
        {
          "internalType": "address",
          "name": "",
          "type": "address"
        },
        {
          "internalType": "uint256",
          "name": "",
          "type": "uint256"
        }
      ],
      "stateMutability": "pure",
      "type": "function"
    },
    {
      "inputs": [
        {
          "internalType": "address",
          "name": "from",
          "type": "address"
        },
        {
          "internalType": "address",
          "name": "to",
          "type": "address"
        },
        {
          "internalType": "uint256[]",
          "name": "ids",
          "type": "uint256[]"
        },
        {
          "internalType": "uint256[]",
          "name": "amounts",
          "type": "uint256[]"
        },
        {
          "internalType": "bytes",
          "name": "data",
          "type": "bytes"
        }
      ],
      "name": "safeBatchTransferFrom",
      "outputs": [],
      "stateMutability": "nonpayable",
      "type": "function"
    },
    {
      "inputs": [
        {
          "internalType": "address",
          "name": "from",
          "type": "address"
        },
        {
          "internalType": "address",
          "name": "to",
          "type": "address"
        },
        {
          "internalType": "uint256",
          "name": "id",
          "type": "uint256"
        },
        {
          "internalType": "uint256",
          "name": "amount",
          "type": "uint256"
        },
        {
          "internalType": "bytes",
          "name": "data",
          "type": "bytes"
        }
      ],
      "name": "safeTransferFrom",
      "outputs": [],
      "stateMutability": "nonpayable",
      "type": "function"
    },
    {
      "inputs": [
        {
          "internalType": "address",
          "name": "operator",
          "type": "address"
        },
        {
          "internalType": "bool",
          "name": "approved",
          "type": "bool"
        }
      ],
      "name": "setApprovalForAll",
      "outputs": [],
      "stateMutability": "nonpayable",
      "type": "function"
    },
    {
      "inputs": [
        {
          "internalType": "bytes4",
          "name": "_interfaceId",
          "type": "bytes4"
        }
      ],
      "name": "supportsInterface",
      "outputs": [
        {
          "internalType": "bool",
          "name": "",
          "type": "bool"
        }
      ],
      "stateMutability": "view",
      "type": "function"
    },
    {
      "inputs": [
        {
          "internalType": "uint256",
          "name": "time",
          "type": "uint256"
        }
      ],
      "name": "tokenPriceAt",
      "outputs": [
        {
          "internalType": "uint256",
          "name": "",
          "type": "uint256"
        }
      ],
      "stateMutability": "pure",
      "type": "function"
    },
    {
      "inputs": [],
      "name": "transferSupport",
      "outputs": [],
      "stateMutability": "nonpayable",
      "type": "function"
    },
    {
      "inputs": [
        {
          "internalType": "contract IERC20",
          "name": "_token",
          "type": "address"
        }
      ],
      "name": "transferSupportERC20",
      "outputs": [],
      "stateMutability": "nonpayable",
      "type": "function"
    },
    {
      "inputs": [
        {
          "internalType": "uint256",
          "name": "_tokenId",
          "type": "uint256"
        }
      ],
      "name": "uri",
      "outputs": [
        {
          "internalType": "string",
          "name": "",
          "type": "string"
        }
      ],
      "stateMutability": "view",
      "type": "function"
    },
    {
      "stateMutability": "payable",
      "type": "receive"
    }
  ],
  "bytecode": "0x60806040523480156200001157600080fd5b506040518060400160405280601f81526020017f68747470733a2f2f70696e7334756b7261696e652e636f6d2f6173736574730081525062000059816200006060201b60201c565b5062000191565b8060029080519060200190620000789291906200007c565b5050565b8280546200008a906200012c565b90600052602060002090601f016020900481019282620000ae5760008555620000fa565b82601f10620000c957805160ff1916838001178555620000fa565b82800160010185558215620000fa579182015b82811115620000f9578251825591602001919060010190620000dc565b5b5090506200010991906200010d565b5090565b5b80821115620001285760008160009055506001016200010e565b5090565b600060028204905060018216806200014557607f821691505b602082108114156200015c576200015b62000162565b5b50919050565b7f4e487b7100000000000000000000000000000000000000000000000000000000600052602260045260246000fd5b613d2b80620001a16000396000f3fe6080604052600436106100c55760003560e01c80633718198a1161007f578063a0712d6811610059578063a0712d68146102a6578063a22cb465146102c2578063e985e9c5146102eb578063f242432a14610328576100cc565b80633718198a146102295780634e1273f41461024057806362c82d831461027d576100cc565b8062fdd58e146100ce57806301ffc9a71461010b5780630e89341c146101485780632a55205a146101855780632eb2c2d6146101c35780633293a5ac146101ec576100cc565b366100cc57005b005b3480156100da57600080fd5b506100f560048036038101906100f09190612535565b610351565b6040516101029190612fc1565b60405180910390f35b34801561011757600080fd5b50610132600480360381019061012d9190612606565b61041a565b60405161013f9190612d24565b60405180910390f35b34801561015457600080fd5b5061016f600480360381019061016a9190612681565b610494565b60405161017c9190612d3f565b60405180910390f35b34801561019157600080fd5b506101ac60048036038101906101a791906126d3565b6104cf565b6040516101ba929190612ca2565b60405180910390f35b3480156101cf57600080fd5b506101ea60048036038101906101e591906123ab565b61050b565b005b3480156101f857600080fd5b50610213600480360381019061020e9190612681565b6105ac565b6040516102209190612fc1565b60405180910390f35b34801561023557600080fd5b5061023e61064b565b005b34801561024c57600080fd5b5061026760048036038101906102629190612571565b6106f1565b6040516102749190612ccb565b60405180910390f35b34801561028957600080fd5b506102a4600480360381019061029f9190612658565b6108a2565b005b6102c060048036038101906102bb9190612681565b6109b5565b005b3480156102ce57600080fd5b506102e960048036038101906102e491906124f9565b610b34565b005b3480156102f757600080fd5b50610312600480360381019061030d919061236f565b610b4a565b60405161031f9190612d24565b60405180910390f35b34801561033457600080fd5b5061034f600480360381019061034a919061246a565b610bde565b005b60008073ffffffffffffffffffffffffffffffffffffffff168373ffffffffffffffffffffffffffffffffffffffff1614156103c2576040517f08c379a00000000000000000000000000000000000000000000000000000000081526004016103b990612da1565b60405180910390fd5b60008083815260200190815260200160002060008473ffffffffffffffffffffffffffffffffffffffff1673ffffffffffffffffffffffffffffffffffffffff16815260200190815260200160002054905092915050565b60007f2a55205a000000000000000000000000000000000000000000000000000000007bffffffffffffffffffffffffffffffffffffffffffffffffffffffff1916827bffffffffffffffffffffffffffffffffffffffffffffffffffffffff1916148061048d575061048c82610c7f565b5b9050919050565b606061049f82610d61565b6104a883610df5565b6040516020016104b9929190612b8b565b6040516020818303038152906040529050919050565b60008073165cd37b4c644c2921454429e7f9358d18a45e1460646005856104f69190613332565b6105009190613190565b915091509250929050565b610513610fa2565b73ffffffffffffffffffffffffffffffffffffffff168573ffffffffffffffffffffffffffffffffffffffff161480610559575061055885610553610fa2565b610b4a565b5b610598576040517f08c379a000000000000000000000000000000000000000000000000000000000815260040161058f90612e41565b60405180910390fd5b6105a58585858585610faa565b5050505050565b60006362b650008210156105f5576040517f08c379a00000000000000000000000000000000000000000000000000000000081526004016105ec90612e01565b60405180910390fd5b6363a64100821061063b576040517f08c379a000000000000000000000000000000000000000000000000000000000815260040161063290612ec1565b60405180910390fd5b6106448261130a565b9050919050565b600047905060008111610693576040517f08c379a000000000000000000000000000000000000000000000000000000000815260040161068a90612ee1565b60405180910390fd5b73165cd37b4c644c2921454429e7f9358d18a45e1473ffffffffffffffffffffffffffffffffffffffff166108fc829081150290604051600060405180830381858888f193505050501580156106ed573d6000803e3d6000fd5b5050565b60608151835114610737576040517f08c379a000000000000000000000000000000000000000000000000000000000815260040161072e90612f41565b60405180910390fd5b6000835167ffffffffffffffff81111561077a577f4e487b7100000000000000000000000000000000000000000000000000000000600052604160045260246000fd5b6040519080825280602002602001820160405280156107a85781602001602082028036833780820191505090505b50905060005b8451811015610897576108418582815181106107f3577f4e487b7100000000000000000000000000000000000000000000000000000000600052603260045260246000fd5b6020026020010151858381518110610834577f4e487b7100000000000000000000000000000000000000000000000000000000600052603260045260246000fd5b6020026020010151610351565b82828151811061087a577f4e487b7100000000000000000000000000000000000000000000000000000000600052603260045260246000fd5b60200260200101818152505080610890906134f8565b90506107ae565b508091505092915050565b60008173ffffffffffffffffffffffffffffffffffffffff166370a08231306040518263ffffffff1660e01b81526004016108dd9190612bc5565b60206040518083038186803b1580156108f557600080fd5b505afa158015610909573d6000803e3d6000fd5b505050506040513d601f19601f8201168201806040525081019061092d91906126aa565b905060008111610972576040517f08c379a000000000000000000000000000000000000000000000000000000000815260040161096990612ee1565b60405180910390fd5b6109b173165cd37b4c644c2921454429e7f9358d18a45e14828473ffffffffffffffffffffffffffffffffffffffff166113a59092919063ffffffff16565b5050565b6362b650004210156109fc576040517f08c379a00000000000000000000000000000000000000000000000000000000081526004016109f390612e01565b60405180910390fd5b6363a641004210610a42576040517f08c379a0000000000000000000000000000000000000000000000000000000008152600401610a3990612ec1565b60405180910390fd5b6001811015610a86576040517f08c379a0000000000000000000000000000000000000000000000000000000008152600401610a7d90612f61565b60405180910390fd5b6006811115610aca576040517f08c379a0000000000000000000000000000000000000000000000000000000008152600401610ac190612f61565b60405180910390fd5b610ad34261130a565b341015610b15576040517f08c379a0000000000000000000000000000000000000000000000000000000008152600401610b0c90612e81565b60405180910390fd5b610b31338260016040518060200160405280600081525061142b565b50565b610b46610b3f610fa2565b83836115c1565b5050565b6000600160008473ffffffffffffffffffffffffffffffffffffffff1673ffffffffffffffffffffffffffffffffffffffff16815260200190815260200160002060008373ffffffffffffffffffffffffffffffffffffffff1673ffffffffffffffffffffffffffffffffffffffff16815260200190815260200160002060009054906101000a900460ff16905092915050565b610be6610fa2565b73ffffffffffffffffffffffffffffffffffffffff168573ffffffffffffffffffffffffffffffffffffffff161480610c2c5750610c2b85610c26610fa2565b610b4a565b5b610c6b576040517f08c379a0000000000000000000000000000000000000000000000000000000008152600401610c6290612dc1565b60405180910390fd5b610c78858585858561172e565b5050505050565b60007fd9b67a26000000000000000000000000000000000000000000000000000000007bffffffffffffffffffffffffffffffffffffffffffffffffffffffff1916827bffffffffffffffffffffffffffffffffffffffffffffffffffffffff19161480610d4a57507f0e89341c000000000000000000000000000000000000000000000000000000007bffffffffffffffffffffffffffffffffffffffffffffffffffffffff1916827bffffffffffffffffffffffffffffffffffffffffffffffffffffffff1916145b80610d5a5750610d59826119b0565b5b9050919050565b606060028054610d7090613495565b80601f0160208091040260200160405190810160405280929190818152602001828054610d9c90613495565b8015610de95780601f10610dbe57610100808354040283529160200191610de9565b820191906000526020600020905b815481529060010190602001808311610dcc57829003601f168201915b50505050509050919050565b60606000821415610e3d576040518060400160405280600181526020017f30000000000000000000000000000000000000000000000000000000000000008152509050610f9d565b600082905060005b60008214610e6f578080610e58906134f8565b915050600a82610e689190613190565b9150610e45565b60008167ffffffffffffffff811115610eb1577f4e487b7100000000000000000000000000000000000000000000000000000000600052604160045260246000fd5b6040519080825280601f01601f191660200182016040528015610ee35781602001600182028036833780820191505090505b5090505b60008514610f9657600182610efc919061338c565b9150600a85610f0b9190613541565b6030610f17919061313a565b60f81b818381518110610f53577f4e487b7100000000000000000000000000000000000000000000000000000000600052603260045260246000fd5b60200101907effffffffffffffffffffffffffffffffffffffffffffffffffffffffffffff1916908160001a905350600a85610f8f9190613190565b9450610ee7565b8093505050505b919050565b600033905090565b8151835114610fee576040517f08c379a0000000000000000000000000000000000000000000000000000000008152600401610fe590612f81565b60405180910390fd5b600073ffffffffffffffffffffffffffffffffffffffff168473ffffffffffffffffffffffffffffffffffffffff16141561105e576040517f08c379a000000000000000000000000000000000000000000000000000000000815260040161105590612e21565b60405180910390fd5b6000611068610fa2565b9050611078818787878787611a1a565b60005b84518110156112755760008582815181106110bf577f4e487b7100000000000000000000000000000000000000000000000000000000600052603260045260246000fd5b602002602001015190506000858381518110611104577f4e487b7100000000000000000000000000000000000000000000000000000000600052603260045260246000fd5b60200260200101519050600080600084815260200190815260200160002060008b73ffffffffffffffffffffffffffffffffffffffff1673ffffffffffffffffffffffffffffffffffffffff168152602001908152602001600020549050818110156111a5576040517f08c379a000000000000000000000000000000000000000000000000000000000815260040161119c90612e61565b60405180910390fd5b81810360008085815260200190815260200160002060008c73ffffffffffffffffffffffffffffffffffffffff1673ffffffffffffffffffffffffffffffffffffffff168152602001908152602001600020819055508160008085815260200190815260200160002060008b73ffffffffffffffffffffffffffffffffffffffff1673ffffffffffffffffffffffffffffffffffffffff168152602001908152602001600020600082825461125a919061313a565b925050819055505050508061126e906134f8565b905061107b565b508473ffffffffffffffffffffffffffffffffffffffff168673ffffffffffffffffffffffffffffffffffffffff168273ffffffffffffffffffffffffffffffffffffffff167f4a39dc06d4c0dbc64b70af90fd698a233a518aa5d07e595d983b8c0526c8f7fb87876040516112ec929190612ced565b60405180910390a4611302818787878787611a22565b505050505050565b60008062093a80905060006362b6500084611325919061338c565b90506000600183836113379190613190565b611341919061313a565b905060006003826113529190613214565b905060006144a86032836113669190613332565b6113709190613190565b9050600181101561138057600190505b600081662386f26fc100006113959190613332565b9050809650505050505050919050565b6114268363a9059cbb60e01b84846040516024016113c4929190612ca2565b604051602081830303815290604052907bffffffffffffffffffffffffffffffffffffffffffffffffffffffff19166020820180517bffffffffffffffffffffffffffffffffffffffffffffffffffffffff8381831617835250505050611c09565b505050565b600073ffffffffffffffffffffffffffffffffffffffff168473ffffffffffffffffffffffffffffffffffffffff16141561149b576040517f08c379a000000000000000000000000000000000000000000000000000000000815260040161149290612fa1565b60405180910390fd5b60006114a5610fa2565b90506114c6816000876114b788611cd0565b6114c088611cd0565b87611a1a565b8260008086815260200190815260200160002060008773ffffffffffffffffffffffffffffffffffffffff1673ffffffffffffffffffffffffffffffffffffffff1681526020019081526020016000206000828254611525919061313a565b925050819055508473ffffffffffffffffffffffffffffffffffffffff16600073ffffffffffffffffffffffffffffffffffffffff168273ffffffffffffffffffffffffffffffffffffffff167fc3d58168c5ae7397731d063d5bbf3d657854427343f4c083240f7aacaa2d0f6287876040516115a3929190612fdc565b60405180910390a46115ba81600087878787611d96565b5050505050565b8173ffffffffffffffffffffffffffffffffffffffff168373ffffffffffffffffffffffffffffffffffffffff161415611630576040517f08c379a000000000000000000000000000000000000000000000000000000000815260040161162790612f01565b60405180910390fd5b80600160008573ffffffffffffffffffffffffffffffffffffffff1673ffffffffffffffffffffffffffffffffffffffff16815260200190815260200160002060008473ffffffffffffffffffffffffffffffffffffffff1673ffffffffffffffffffffffffffffffffffffffff16815260200190815260200160002060006101000a81548160ff0219169083151502179055508173ffffffffffffffffffffffffffffffffffffffff168373ffffffffffffffffffffffffffffffffffffffff167f17307eab39ab6107e8899845ad3d59bd9653f200f220920489ca2b5937696c31836040516117219190612d24565b60405180910390a3505050565b600073ffffffffffffffffffffffffffffffffffffffff168473ffffffffffffffffffffffffffffffffffffffff16141561179e576040517f08c379a000000000000000000000000000000000000000000000000000000000815260040161179590612e21565b60405180910390fd5b60006117a8610fa2565b90506117c88187876117b988611cd0565b6117c288611cd0565b87611a1a565b600080600086815260200190815260200160002060008873ffffffffffffffffffffffffffffffffffffffff1673ffffffffffffffffffffffffffffffffffffffff1681526020019081526020016000205490508381101561185f576040517f08c379a000000000000000000000000000000000000000000000000000000000815260040161185690612e61565b60405180910390fd5b83810360008087815260200190815260200160002060008973ffffffffffffffffffffffffffffffffffffffff1673ffffffffffffffffffffffffffffffffffffffff168152602001908152602001600020819055508360008087815260200190815260200160002060008873ffffffffffffffffffffffffffffffffffffffff1673ffffffffffffffffffffffffffffffffffffffff1681526020019081526020016000206000828254611914919061313a565b925050819055508573ffffffffffffffffffffffffffffffffffffffff168773ffffffffffffffffffffffffffffffffffffffff168373ffffffffffffffffffffffffffffffffffffffff167fc3d58168c5ae7397731d063d5bbf3d657854427343f4c083240f7aacaa2d0f628888604051611991929190612fdc565b60405180910390a46119a7828888888888611d96565b50505050505050565b60007f01ffc9a7000000000000000000000000000000000000000000000000000000007bffffffffffffffffffffffffffffffffffffffffffffffffffffffff1916827bffffffffffffffffffffffffffffffffffffffffffffffffffffffff1916149050919050565b505050505050565b611a418473ffffffffffffffffffffffffffffffffffffffff16611f7d565b15611c01578373ffffffffffffffffffffffffffffffffffffffff1663bc197c8187878686866040518663ffffffff1660e01b8152600401611a87959493929190612be0565b602060405180830381600087803b158015611aa157600080fd5b505af1925050508015611ad257506040513d601f19601f82011682018060405250810190611acf919061262f565b60015b611b7857611ade61362e565b806308c379a01415611b3b5750611af3613bec565b80611afe5750611b3d565b806040517f08c379a0000000000000000000000000000000000000000000000000000000008152600401611b329190612d3f565b60405180910390fd5b505b6040517f08c379a0000000000000000000000000000000000000000000000000000000008152600401611b6f90612d61565b60405180910390fd5b63bc197c8160e01b7bffffffffffffffffffffffffffffffffffffffffffffffffffffffff1916817bffffffffffffffffffffffffffffffffffffffffffffffffffffffff191614611bff576040517f08c379a0000000000000000000000000000000000000000000000000000000008152600401611bf690612d81565b60405180910390fd5b505b505050505050565b6000611c6b826040518060400160405280602081526020017f5361666545524332303a206c6f772d6c6576656c2063616c6c206661696c65648152508573ffffffffffffffffffffffffffffffffffffffff16611fa09092919063ffffffff16565b9050600081511115611ccb5780806020019051810190611c8b91906125dd565b611cca576040517f08c379a0000000000000000000000000000000000000000000000000000000008152600401611cc190612f21565b60405180910390fd5b5b505050565b60606000600167ffffffffffffffff811115611d15577f4e487b7100000000000000000000000000000000000000000000000000000000600052604160045260246000fd5b604051908082528060200260200182016040528015611d435781602001602082028036833780820191505090505b5090508281600081518110611d81577f4e487b7100000000000000000000000000000000000000000000000000000000600052603260045260246000fd5b60200260200101818152505080915050919050565b611db58473ffffffffffffffffffffffffffffffffffffffff16611f7d565b15611f75578373ffffffffffffffffffffffffffffffffffffffff1663f23a6e6187878686866040518663ffffffff1660e01b8152600401611dfb959493929190612c48565b602060405180830381600087803b158015611e1557600080fd5b505af1925050508015611e4657506040513d601f19601f82011682018060405250810190611e43919061262f565b60015b611eec57611e5261362e565b806308c379a01415611eaf5750611e67613bec565b80611e725750611eb1565b806040517f08c379a0000000000000000000000000000000000000000000000000000000008152600401611ea69190612d3f565b60405180910390fd5b505b6040517f08c379a0000000000000000000000000000000000000000000000000000000008152600401611ee390612d61565b60405180910390fd5b63f23a6e6160e01b7bffffffffffffffffffffffffffffffffffffffffffffffffffffffff1916817bffffffffffffffffffffffffffffffffffffffffffffffffffffffff191614611f73576040517f08c379a0000000000000000000000000000000000000000000000000000000008152600401611f6a90612d81565b60405180910390fd5b505b505050505050565b6000808273ffffffffffffffffffffffffffffffffffffffff163b119050919050565b6060611faf8484600085611fb8565b90509392505050565b606082471015611ffd576040517f08c379a0000000000000000000000000000000000000000000000000000000008152600401611ff490612de1565b60405180910390fd5b61200685611f7d565b612045576040517f08c379a000000000000000000000000000000000000000000000000000000000815260040161203c90612ea1565b60405180910390fd5b6000808673ffffffffffffffffffffffffffffffffffffffff16858760405161206e9190612b74565b60006040518083038185875af1925050503d80600081146120ab576040519150601f19603f3d011682016040523d82523d6000602084013e6120b0565b606091505b50915091506120c08282866120cc565b92505050949350505050565b606083156120dc5782905061212c565b6000835111156120ef5782518084602001fd5b816040517f08c379a00000000000000000000000000000000000000000000000000000000081526004016121239190612d3f565b60405180910390fd5b9392505050565b60006121466121418461302a565b613005565b9050808382526020820190508285602086028201111561216557600080fd5b60005b85811015612195578161217b8882612249565b845260208401935060208301925050600181019050612168565b5050509392505050565b60006121b26121ad84613056565b613005565b905080838252602082019050828560208602820111156121d157600080fd5b60005b8581101561220157816121e78882612345565b8452602084019350602083019250506001810190506121d4565b5050509392505050565b600061221e61221984613082565b613005565b90508281526020810184848401111561223657600080fd5b612241848285613453565b509392505050565b60008135905061225881613c82565b92915050565b600082601f83011261226f57600080fd5b813561227f848260208601612133565b91505092915050565b600082601f83011261229957600080fd5b81356122a984826020860161219f565b91505092915050565b6000813590506122c181613c99565b92915050565b6000815190506122d681613c99565b92915050565b6000813590506122eb81613cb0565b92915050565b60008151905061230081613cb0565b92915050565b600082601f83011261231757600080fd5b813561232784826020860161220b565b91505092915050565b60008135905061233f81613cc7565b92915050565b60008135905061235481613cde565b92915050565b60008151905061236981613cde565b92915050565b6000806040838503121561238257600080fd5b600061239085828601612249565b92505060206123a185828601612249565b9150509250929050565b600080600080600060a086880312156123c357600080fd5b60006123d188828901612249565b95505060206123e288828901612249565b945050604086013567ffffffffffffffff8111156123ff57600080fd5b61240b88828901612288565b935050606086013567ffffffffffffffff81111561242857600080fd5b61243488828901612288565b925050608086013567ffffffffffffffff81111561245157600080fd5b61245d88828901612306565b9150509295509295909350565b600080600080600060a0868803121561248257600080fd5b600061249088828901612249565b95505060206124a188828901612249565b94505060406124b288828901612345565b93505060606124c388828901612345565b925050608086013567ffffffffffffffff8111156124e057600080fd5b6124ec88828901612306565b9150509295509295909350565b6000806040838503121561250c57600080fd5b600061251a85828601612249565b925050602061252b858286016122b2565b9150509250929050565b6000806040838503121561254857600080fd5b600061255685828601612249565b925050602061256785828601612345565b9150509250929050565b6000806040838503121561258457600080fd5b600083013567ffffffffffffffff81111561259e57600080fd5b6125aa8582860161225e565b925050602083013567ffffffffffffffff8111156125c757600080fd5b6125d385828601612288565b9150509250929050565b6000602082840312156125ef57600080fd5b60006125fd848285016122c7565b91505092915050565b60006020828403121561261857600080fd5b6000612626848285016122dc565b91505092915050565b60006020828403121561264157600080fd5b600061264f848285016122f1565b91505092915050565b60006020828403121561266a57600080fd5b600061267884828501612330565b91505092915050565b60006020828403121561269357600080fd5b60006126a184828501612345565b91505092915050565b6000602082840312156126bc57600080fd5b60006126ca8482850161235a565b91505092915050565b600080604083850312156126e657600080fd5b60006126f485828601612345565b925050602061270585828601612345565b9150509250929050565b600061271b8383612b56565b60208301905092915050565b612730816133c0565b82525050565b6000612741826130c3565b61274b81856130f1565b9350612756836130b3565b8060005b8381101561278757815161276e888261270f565b9750612779836130e4565b92505060018101905061275a565b5085935050505092915050565b61279d816133d2565b82525050565b60006127ae826130ce565b6127b88185613102565b93506127c8818560208601613462565b6127d181613650565b840191505092915050565b60006127e7826130ce565b6127f18185613113565b9350612801818560208601613462565b80840191505092915050565b6000612818826130d9565b612822818561311e565b9350612832818560208601613462565b61283b81613650565b840191505092915050565b6000612851826130d9565b61285b818561312f565b935061286b818560208601613462565b80840191505092915050565b600061288460348361311e565b915061288f8261367b565b604082019050919050565b60006128a760288361311e565b91506128b2826136ca565b604082019050919050565b60006128ca602b8361311e565b91506128d582613719565b604082019050919050565b60006128ed60298361311e565b91506128f882613768565b604082019050919050565b600061291060268361311e565b915061291b826137b7565b604082019050919050565b600061293360148361311e565b915061293e82613806565b602082019050919050565b600061295660258361311e565b91506129618261382f565b604082019050919050565b600061297960328361311e565b91506129848261387e565b604082019050919050565b600061299c602a8361311e565b91506129a7826138cd565b604082019050919050565b60006129bf60058361312f565b91506129ca8261391c565b600582019050919050565b60006129e260348361311e565b91506129ed82613945565b604082019050919050565b6000612a05601d8361311e565b9150612a1082613994565b602082019050919050565b6000612a2860168361311e565b9150612a33826139bd565b602082019050919050565b6000612a4b60168361311e565b9150612a56826139e6565b602082019050919050565b6000612a6e60298361311e565b9150612a7982613a0f565b604082019050919050565b6000612a91602a8361311e565b9150612a9c82613a5e565b604082019050919050565b6000612ab460298361311e565b9150612abf82613aad565b604082019050919050565b6000612ad7601b8361311e565b9150612ae282613afc565b602082019050919050565b6000612afa60288361311e565b9150612b0582613b25565b604082019050919050565b6000612b1d60218361311e565b9150612b2882613b74565b604082019050919050565b6000612b4060018361312f565b9150612b4b82613bc3565b600182019050919050565b612b5f8161343c565b82525050565b612b6e8161343c565b82525050565b6000612b8082846127dc565b915081905092915050565b6000612b978285612846565b9150612ba282612b33565b9150612bae8284612846565b9150612bb9826129b2565b91508190509392505050565b6000602082019050612bda6000830184612727565b92915050565b600060a082019050612bf56000830188612727565b612c026020830187612727565b8181036040830152612c148186612736565b90508181036060830152612c288185612736565b90508181036080830152612c3c81846127a3565b90509695505050505050565b600060a082019050612c5d6000830188612727565b612c6a6020830187612727565b612c776040830186612b65565b612c846060830185612b65565b8181036080830152612c9681846127a3565b90509695505050505050565b6000604082019050612cb76000830185612727565b612cc46020830184612b65565b9392505050565b60006020820190508181036000830152612ce58184612736565b905092915050565b60006040820190508181036000830152612d078185612736565b90508181036020830152612d1b8184612736565b90509392505050565b6000602082019050612d396000830184612794565b92915050565b60006020820190508181036000830152612d59818461280d565b905092915050565b60006020820190508181036000830152612d7a81612877565b9050919050565b60006020820190508181036000830152612d9a8161289a565b9050919050565b60006020820190508181036000830152612dba816128bd565b9050919050565b60006020820190508181036000830152612dda816128e0565b9050919050565b60006020820190508181036000830152612dfa81612903565b9050919050565b60006020820190508181036000830152612e1a81612926565b9050919050565b60006020820190508181036000830152612e3a81612949565b9050919050565b60006020820190508181036000830152612e5a8161296c565b9050919050565b60006020820190508181036000830152612e7a8161298f565b9050919050565b60006020820190508181036000830152612e9a816129d5565b9050919050565b60006020820190508181036000830152612eba816129f8565b9050919050565b60006020820190508181036000830152612eda81612a1b565b9050919050565b60006020820190508181036000830152612efa81612a3e565b9050919050565b60006020820190508181036000830152612f1a81612a61565b9050919050565b60006020820190508181036000830152612f3a81612a84565b9050919050565b60006020820190508181036000830152612f5a81612aa7565b9050919050565b60006020820190508181036000830152612f7a81612aca565b9050919050565b60006020820190508181036000830152612f9a81612aed565b9050919050565b60006020820190508181036000830152612fba81612b10565b9050919050565b6000602082019050612fd66000830184612b65565b92915050565b6000604082019050612ff16000830185612b65565b612ffe6020830184612b65565b9392505050565b600061300f613020565b905061301b82826134c7565b919050565b6000604051905090565b600067ffffffffffffffff821115613045576130446135ff565b5b602082029050602081019050919050565b600067ffffffffffffffff821115613071576130706135ff565b5b602082029050602081019050919050565b600067ffffffffffffffff82111561309d5761309c6135ff565b5b6130a682613650565b9050602081019050919050565b6000819050602082019050919050565b600081519050919050565b600081519050919050565b600081519050919050565b6000602082019050919050565b600082825260208201905092915050565b600082825260208201905092915050565b600081905092915050565b600082825260208201905092915050565b600081905092915050565b60006131458261343c565b91506131508361343c565b9250827fffffffffffffffffffffffffffffffffffffffffffffffffffffffffffffffff0382111561318557613184613572565b5b828201905092915050565b600061319b8261343c565b91506131a68361343c565b9250826131b6576131b56135a1565b5b828204905092915050565b6000808291508390505b600185111561320b578086048111156131e7576131e6613572565b5b60018516156131f65780820291505b808102905061320485613661565b94506131cb565b94509492505050565b600061321f8261343c565b915061322a83613446565b92506132577fffffffffffffffffffffffffffffffffffffffffffffffffffffffffffffffff848461325f565b905092915050565b60008261326f576001905061332b565b8161327d576000905061332b565b8160018114613293576002811461329d576132cc565b600191505061332b565b60ff8411156132af576132ae613572565b5b8360020a9150848211156132c6576132c5613572565b5b5061332b565b5060208310610133831016604e8410600b84101617156133015782820a9050838111156132fc576132fb613572565b5b61332b565b61330e84848460016131c1565b9250905081840481111561332557613324613572565b5b81810290505b9392505050565b600061333d8261343c565b91506133488361343c565b9250817fffffffffffffffffffffffffffffffffffffffffffffffffffffffffffffffff048311821515161561338157613380613572565b5b828202905092915050565b60006133978261343c565b91506133a28361343c565b9250828210156133b5576133b4613572565b5b828203905092915050565b60006133cb8261341c565b9050919050565b60008115159050919050565b60007fffffffff0000000000000000000000000000000000000000000000000000000082169050919050565b6000613415826133c0565b9050919050565b600073ffffffffffffffffffffffffffffffffffffffff82169050919050565b6000819050919050565b600060ff82169050919050565b82818337600083830152505050565b60005b83811015613480578082015181840152602081019050613465565b8381111561348f576000848401525b50505050565b600060028204905060018216806134ad57607f821691505b602082108114156134c1576134c06135d0565b5b50919050565b6134d082613650565b810181811067ffffffffffffffff821117156134ef576134ee6135ff565b5b80604052505050565b60006135038261343c565b91507fffffffffffffffffffffffffffffffffffffffffffffffffffffffffffffffff82141561353657613535613572565b5b600182019050919050565b600061354c8261343c565b91506135578361343c565b925082613567576135666135a1565b5b828206905092915050565b7f4e487b7100000000000000000000000000000000000000000000000000000000600052601160045260246000fd5b7f4e487b7100000000000000000000000000000000000000000000000000000000600052601260045260246000fd5b7f4e487b7100000000000000000000000000000000000000000000000000000000600052602260045260246000fd5b7f4e487b7100000000000000000000000000000000000000000000000000000000600052604160045260246000fd5b600060033d111561364d5760046000803e61364a60005161366e565b90505b90565b6000601f19601f8301169050919050565b60008160011c9050919050565b60008160e01c9050919050565b7f455243313135353a207472616e7366657220746f206e6f6e204552433131353560008201527f526563656976657220696d706c656d656e746572000000000000000000000000602082015250565b7f455243313135353a204552433131353552656365697665722072656a6563746560008201527f6420746f6b656e73000000000000000000000000000000000000000000000000602082015250565b7f455243313135353a2062616c616e636520717565727920666f7220746865207a60008201527f65726f2061646472657373000000000000000000000000000000000000000000602082015250565b7f455243313135353a2063616c6c6572206973206e6f74206f776e6572206e6f7260008201527f20617070726f7665640000000000000000000000000000000000000000000000602082015250565b7f416464726573733a20696e73756666696369656e742062616c616e636520666f60008201527f722063616c6c0000000000000000000000000000000000000000000000000000602082015250565b7f4d696e74696e67206e6f74206f70656e20796574000000000000000000000000600082015250565b7f455243313135353a207472616e7366657220746f20746865207a65726f20616460008201527f6472657373000000000000000000000000000000000000000000000000000000602082015250565b7f455243313135353a207472616e736665722063616c6c6572206973206e6f742060008201527f6f776e6572206e6f7220617070726f7665640000000000000000000000000000602082015250565b7f455243313135353a20696e73756666696369656e742062616c616e636520666f60008201527f72207472616e7366657200000000000000000000000000000000000000000000602082015250565b7f2e6a736f6e000000000000000000000000000000000000000000000000000000600082015250565b7f4e6f7420656e6f756768742076616c756520746f206d696e742c20706c65617360008201527f652075736520706c61696e207472616e73666572000000000000000000000000602082015250565b7f416464726573733a2063616c6c20746f206e6f6e2d636f6e7472616374000000600082015250565b7f4d696e74696e6720616c726561647920636c6f73656400000000000000000000600082015250565b7f4e6f2062616c616e636520746f207472616e7366657200000000000000000000600082015250565b7f455243313135353a2073657474696e6720617070726f76616c2073746174757360008201527f20666f722073656c660000000000000000000000000000000000000000000000602082015250565b7f5361666545524332303a204552433230206f7065726174696f6e20646964206e60008201527f6f74207375636365656400000000000000000000000000000000000000000000602082015250565b7f455243313135353a206163636f756e747320616e6420696473206c656e67746860008201527f206d69736d617463680000000000000000000000000000000000000000000000602082015250565b7f546869732064657369676e2069736e2774206176616c6169626c650000000000600082015250565b7f455243313135353a2069647320616e6420616d6f756e7473206c656e6774682060008201527f6d69736d61746368000000000000000000000000000000000000000000000000602082015250565b7f455243313135353a206d696e7420746f20746865207a65726f2061646472657360008201527f7300000000000000000000000000000000000000000000000000000000000000602082015250565b7f2f00000000000000000000000000000000000000000000000000000000000000600082015250565b600060443d1015613bfc57613c7f565b613c04613020565b60043d036004823e80513d602482011167ffffffffffffffff82111715613c2c575050613c7f565b808201805167ffffffffffffffff811115613c4a5750505050613c7f565b80602083010160043d038501811115613c67575050505050613c7f565b613c76826020018501866134c7565b82955050505050505b90565b613c8b816133c0565b8114613c9657600080fd5b50565b613ca2816133d2565b8114613cad57600080fd5b50565b613cb9816133de565b8114613cc457600080fd5b50565b613cd08161340a565b8114613cdb57600080fd5b50565b613ce78161343c565b8114613cf257600080fd5b5056fea2646970667358221220dc12a8bbeeb1d8c9e721940d13feeb0d2e888078d93793bcef6b285995eb7bdd64736f6c63430008040033",
  "linkReferences": {},
  "deployedLinkReferences": {}
}