{
  "_format": "hh-sol-artifact-1",
  "contractName": "Pins4Ukraine",
  "sourceName": "contracts/Pins4Ukraine.sol",
  "abi": [
    {
      "inputs": [],
      "stateMutability": "nonpayable",
      "type": "constructor"
    },
    {
      "anonymous": false,
      "inputs": [
        {
          "indexed": true,
          "internalType": "address",
          "name": "account",
          "type": "address"
        },
        {
          "indexed": true,
          "internalType": "address",
          "name": "operator",
          "type": "address"
        },
        {
          "indexed": false,
          "internalType": "bool",
          "name": "approved",
          "type": "bool"
        }
      ],
      "name": "ApprovalForAll",
      "type": "event"
    },
    {
      "anonymous": false,
      "inputs": [
        {
          "indexed": true,
          "internalType": "address",
          "name": "previousOwner",
          "type": "address"
        },
        {
          "indexed": true,
          "internalType": "address",
          "name": "newOwner",
          "type": "address"
        }
      ],
      "name": "OwnershipTransferred",
      "type": "event"
    },
    {
      "anonymous": false,
      "inputs": [
        {
          "indexed": true,
          "internalType": "address",
          "name": "operator",
          "type": "address"
        },
        {
          "indexed": true,
          "internalType": "address",
          "name": "from",
          "type": "address"
        },
        {
          "indexed": true,
          "internalType": "address",
          "name": "to",
          "type": "address"
        },
        {
          "indexed": false,
          "internalType": "uint256[]",
          "name": "ids",
          "type": "uint256[]"
        },
        {
          "indexed": false,
          "internalType": "uint256[]",
          "name": "values",
          "type": "uint256[]"
        }
      ],
      "name": "TransferBatch",
      "type": "event"
    },
    {
      "anonymous": false,
      "inputs": [
        {
          "indexed": true,
          "internalType": "address",
          "name": "operator",
          "type": "address"
        },
        {
          "indexed": true,
          "internalType": "address",
          "name": "from",
          "type": "address"
        },
        {
          "indexed": true,
          "internalType": "address",
          "name": "to",
          "type": "address"
        },
        {
          "indexed": false,
          "internalType": "uint256",
          "name": "id",
          "type": "uint256"
        },
        {
          "indexed": false,
          "internalType": "uint256",
          "name": "value",
          "type": "uint256"
        }
      ],
      "name": "TransferSingle",
      "type": "event"
    },
    {
      "anonymous": false,
      "inputs": [
        {
          "indexed": false,
          "internalType": "string",
          "name": "value",
          "type": "string"
        },
        {
          "indexed": true,
          "internalType": "uint256",
          "name": "id",
          "type": "uint256"
        }
      ],
      "name": "URI",
      "type": "event"
    },
    {
      "stateMutability": "payable",
      "type": "fallback"
    },
    {
      "inputs": [
        {
          "internalType": "address",
          "name": "account",
          "type": "address"
        },
        {
          "internalType": "uint256",
          "name": "id",
          "type": "uint256"
        }
      ],
      "name": "balanceOf",
      "outputs": [
        {
          "internalType": "uint256",
          "name": "",
          "type": "uint256"
        }
      ],
      "stateMutability": "view",
      "type": "function"
    },
    {
      "inputs": [
        {
          "internalType": "address[]",
          "name": "accounts",
          "type": "address[]"
        },
        {
          "internalType": "uint256[]",
          "name": "ids",
          "type": "uint256[]"
        }
      ],
      "name": "balanceOfBatch",
      "outputs": [
        {
          "internalType": "uint256[]",
          "name": "",
          "type": "uint256[]"
        }
      ],
      "stateMutability": "view",
      "type": "function"
    },
    {
      "inputs": [],
      "name": "currentTokenPrice",
      "outputs": [
        {
          "internalType": "uint256",
          "name": "",
          "type": "uint256"
        }
      ],
      "stateMutability": "view",
      "type": "function"
    },
    {
      "inputs": [],
      "name": "firstOpenDesign",
      "outputs": [
        {
          "internalType": "uint256",
          "name": "",
          "type": "uint256"
        }
      ],
      "stateMutability": "view",
      "type": "function"
    },
    {
      "inputs": [
        {
          "internalType": "address",
          "name": "account",
          "type": "address"
        },
        {
          "internalType": "address",
          "name": "operator",
          "type": "address"
        }
      ],
      "name": "isApprovedForAll",
      "outputs": [
        {
          "internalType": "bool",
          "name": "",
          "type": "bool"
        }
      ],
      "stateMutability": "view",
      "type": "function"
    },
    {
      "inputs": [],
      "name": "lastOpenDesign",
      "outputs": [
        {
          "internalType": "uint256",
          "name": "",
          "type": "uint256"
        }
      ],
      "stateMutability": "view",
      "type": "function"
    },
    {
      "inputs": [
        {
          "internalType": "uint256",
          "name": "_tokenId",
          "type": "uint256"
        }
      ],
      "name": "mint",
      "outputs": [],
      "stateMutability": "payable",
      "type": "function"
    },
    {
      "inputs": [],
      "name": "mintOpenSince",
      "outputs": [
        {
          "internalType": "uint256",
          "name": "",
          "type": "uint256"
        }
      ],
      "stateMutability": "view",
      "type": "function"
    },
    {
      "inputs": [],
      "name": "mintOpenUntil",
      "outputs": [
        {
          "internalType": "uint256",
          "name": "",
          "type": "uint256"
        }
      ],
      "stateMutability": "view",
      "type": "function"
    },
    {
      "inputs": [],
      "name": "owner",
      "outputs": [
        {
          "internalType": "address",
          "name": "",
          "type": "address"
        }
      ],
      "stateMutability": "view",
      "type": "function"
    },
    {
      "inputs": [],
      "name": "renounceOwnership",
      "outputs": [],
      "stateMutability": "nonpayable",
      "type": "function"
    },
    {
      "inputs": [
        {
          "internalType": "uint256",
          "name": "",
          "type": "uint256"
        },
        {
          "internalType": "uint256",
          "name": "_salePrice",
          "type": "uint256"
        }
      ],
      "name": "royaltyInfo",
      "outputs": [
        {
          "internalType": "address",
          "name": "",
          "type": "address"
        },
        {
          "internalType": "uint256",
          "name": "",
          "type": "uint256"
        }
      ],
      "stateMutability": "pure",
      "type": "function"
    },
    {
      "inputs": [
        {
          "internalType": "address",
          "name": "from",
          "type": "address"
        },
        {
          "internalType": "address",
          "name": "to",
          "type": "address"
        },
        {
          "internalType": "uint256[]",
          "name": "ids",
          "type": "uint256[]"
        },
        {
          "internalType": "uint256[]",
          "name": "amounts",
          "type": "uint256[]"
        },
        {
          "internalType": "bytes",
          "name": "data",
          "type": "bytes"
        }
      ],
      "name": "safeBatchTransferFrom",
      "outputs": [],
      "stateMutability": "nonpayable",
      "type": "function"
    },
    {
      "inputs": [
        {
          "internalType": "address",
          "name": "from",
          "type": "address"
        },
        {
          "internalType": "address",
          "name": "to",
          "type": "address"
        },
        {
          "internalType": "uint256",
          "name": "id",
          "type": "uint256"
        },
        {
          "internalType": "uint256",
          "name": "amount",
          "type": "uint256"
        },
        {
          "internalType": "bytes",
          "name": "data",
          "type": "bytes"
        }
      ],
      "name": "safeTransferFrom",
      "outputs": [],
      "stateMutability": "nonpayable",
      "type": "function"
    },
    {
      "inputs": [
        {
          "internalType": "address",
          "name": "operator",
          "type": "address"
        },
        {
          "internalType": "bool",
          "name": "approved",
          "type": "bool"
        }
      ],
      "name": "setApprovalForAll",
      "outputs": [],
      "stateMutability": "nonpayable",
      "type": "function"
    },
    {
      "inputs": [
        {
          "internalType": "uint256",
          "name": "_mintOpenSince",
          "type": "uint256"
        }
      ],
      "name": "setMintOpenSince",
      "outputs": [],
      "stateMutability": "nonpayable",
      "type": "function"
    },
    {
      "inputs": [
        {
          "internalType": "uint256",
          "name": "_mintOpenUntil",
          "type": "uint256"
        }
      ],
      "name": "setMintOpenUntil",
      "outputs": [],
      "stateMutability": "nonpayable",
      "type": "function"
    },
    {
      "inputs": [
        {
          "internalType": "uint256",
          "name": "_firstOpenDesign",
          "type": "uint256"
        },
        {
          "internalType": "uint256",
          "name": "_lastOpenDesign",
          "type": "uint256"
        }
      ],
      "name": "setOpenDesigns",
      "outputs": [],
      "stateMutability": "nonpayable",
      "type": "function"
    },
    {
      "inputs": [
        {
          "internalType": "bytes4",
          "name": "_interfaceId",
          "type": "bytes4"
        }
      ],
      "name": "supportsInterface",
      "outputs": [
        {
          "internalType": "bool",
          "name": "",
          "type": "bool"
        }
      ],
      "stateMutability": "view",
      "type": "function"
    },
    {
      "inputs": [
        {
          "internalType": "address",
          "name": "newOwner",
          "type": "address"
        }
      ],
      "name": "transferOwnership",
      "outputs": [],
      "stateMutability": "nonpayable",
      "type": "function"
    },
    {
      "inputs": [],
      "name": "transferSupport",
      "outputs": [],
      "stateMutability": "nonpayable",
      "type": "function"
    },
    {
      "inputs": [
        {
          "internalType": "contract IERC20",
          "name": "_token",
          "type": "address"
        }
      ],
      "name": "transferSupportERC20",
      "outputs": [],
      "stateMutability": "nonpayable",
      "type": "function"
    },
    {
      "inputs": [
        {
          "internalType": "uint256",
          "name": "_tokenId",
          "type": "uint256"
        }
      ],
      "name": "uri",
      "outputs": [
        {
          "internalType": "string",
          "name": "",
          "type": "string"
        }
      ],
      "stateMutability": "view",
      "type": "function"
    },
    {
      "stateMutability": "payable",
      "type": "receive"
    }
  ],
  "bytecode": "0x608060405260006004556000600555600060065560006007553480156200002557600080fd5b506040518060400160405280601f81526020017f68747470733a2f2f70696e7334756b7261696e652e636f6d2f617373657473008152506200006d816200009460201b60201c565b506200008e62000082620000b060201b60201c565b620000b860201b60201c565b62000293565b8060029080519060200190620000ac9291906200017e565b5050565b600033905090565b6000600360009054906101000a900473ffffffffffffffffffffffffffffffffffffffff16905081600360006101000a81548173ffffffffffffffffffffffffffffffffffffffff021916908373ffffffffffffffffffffffffffffffffffffffff1602179055508173ffffffffffffffffffffffffffffffffffffffff168173ffffffffffffffffffffffffffffffffffffffff167f8be0079c531659141344cd1fd0a4f28419497f9722a3daafe3b4186f6b6457e060405160405180910390a35050565b8280546200018c906200022e565b90600052602060002090601f016020900481019282620001b05760008555620001fc565b82601f10620001cb57805160ff1916838001178555620001fc565b82800160010185558215620001fc579182015b82811115620001fb578251825591602001919060010190620001de565b5b5090506200020b91906200020f565b5090565b5b808211156200022a57600081600090555060010162000210565b5090565b600060028204905060018216806200024757607f821691505b602082108114156200025e576200025d62000264565b5b50919050565b7f4e487b7100000000000000000000000000000000000000000000000000000000600052602260045260246000fd5b61420c80620002a36000396000f3fe6080604052600436106101435760003560e01c806354867ad6116100b6578063a0712d681161006f578063a0712d6814610452578063a22cb4651461046e578063d0c5f4b914610497578063e985e9c5146104c0578063f242432a146104fd578063f2fde38b146105265761014a565b806354867ad6146103685780635880d2821461039157806362c82d83146103bc578063715018a6146103e557806371b3659e146103fc5780638da5cb5b146104275761014a565b80632eb2c2d6116101085780632eb2c2d61461026c5780633718198a146102955780633a476672146102ac5780633cac2ff0146102d55780634e03fa25146103005780634e1273f41461032b5761014a565b8062fdd58e1461014c57806301ffc9a7146101895780630c11eeb1146101c65780630e89341c146101f15780632a55205a1461022e5761014a565b3661014a57005b005b34801561015857600080fd5b50610173600480360381019061016e9190612aa3565b61054f565b60405161018091906135b5565b60405180910390f35b34801561019557600080fd5b506101b060048036038101906101ab9190612b74565b610618565b6040516101bd91906132d8565b60405180910390f35b3480156101d257600080fd5b506101db610692565b6040516101e891906135b5565b60405180910390f35b3480156101fd57600080fd5b5061021860048036038101906102139190612bef565b610698565b60405161022591906132f3565b60405180910390f35b34801561023a57600080fd5b5061025560048036038101906102509190612c41565b6106d3565b604051610263929190613256565b60405180910390f35b34801561027857600080fd5b50610293600480360381019061028e9190612919565b61070f565b005b3480156102a157600080fd5b506102aa6107b0565b005b3480156102b857600080fd5b506102d360048036038101906102ce9190612c41565b61080d565b005b3480156102e157600080fd5b506102ea61089b565b6040516102f791906135b5565b60405180910390f35b34801561030c57600080fd5b506103156108a1565b60405161032291906135b5565b60405180910390f35b34801561033757600080fd5b50610352600480360381019061034d9190612adf565b6108a7565b60405161035f919061327f565b60405180910390f35b34801561037457600080fd5b5061038f600480360381019061038a9190612bef565b610a58565b005b34801561039d57600080fd5b506103a6610ade565b6040516103b391906135b5565b60405180910390f35b3480156103c857600080fd5b506103e360048036038101906103de9190612bc6565b610ae4565b005b3480156103f157600080fd5b506103fa610bae565b005b34801561040857600080fd5b50610411610c36565b60405161041e91906135b5565b60405180910390f35b34801561043357600080fd5b5061043c610cbc565b6040516104499190613179565b60405180910390f35b61046c60048036038101906104679190612bef565b610ce6565b005b34801561047a57600080fd5b5061049560048036038101906104909190612a67565b610ed0565b005b3480156104a357600080fd5b506104be60048036038101906104b99190612bef565b610ee6565b005b3480156104cc57600080fd5b506104e760048036038101906104e291906128dd565b610f6c565b6040516104f491906132d8565b60405180910390f35b34801561050957600080fd5b50610524600480360381019061051f91906129d8565b611000565b005b34801561053257600080fd5b5061054d600480360381019061054891906128b4565b6110a1565b005b60008073ffffffffffffffffffffffffffffffffffffffff168373ffffffffffffffffffffffffffffffffffffffff1614156105c0576040517f08c379a00000000000000000000000000000000000000000000000000000000081526004016105b790613375565b60405180910390fd5b60008083815260200190815260200160002060008473ffffffffffffffffffffffffffffffffffffffff1673ffffffffffffffffffffffffffffffffffffffff16815260200190815260200160002054905092915050565b60007f2a55205a000000000000000000000000000000000000000000000000000000007bffffffffffffffffffffffffffffffffffffffffffffffffffffffff1916827bffffffffffffffffffffffffffffffffffffffffffffffffffffffff1916148061068b575061068a82611199565b5b9050919050565b60055481565b60606106a38261127b565b6106ac8361130f565b6040516020016106bd92919061313f565b6040516020818303038152906040529050919050565b60008073165cd37b4c644c2921454429e7f9358d18a45e1460646005856106fa91906137b5565b6107049190613784565b915091509250929050565b6107176114bc565b73ffffffffffffffffffffffffffffffffffffffff168573ffffffffffffffffffffffffffffffffffffffff16148061075d575061075c856107576114bc565b610f6c565b5b61079c576040517f08c379a000000000000000000000000000000000000000000000000000000000815260040161079390613455565b60405180910390fd5b6107a985858585856114c4565b5050505050565b73165cd37b4c644c2921454429e7f9358d18a45e1473ffffffffffffffffffffffffffffffffffffffff166108fc479081150290604051600060405180830381858888f1935050505015801561080a573d6000803e3d6000fd5b50565b6108156114bc565b73ffffffffffffffffffffffffffffffffffffffff16610833610cbc565b73ffffffffffffffffffffffffffffffffffffffff1614610889576040517f08c379a000000000000000000000000000000000000000000000000000000000815260040161088090613495565b60405180910390fd5b81600481905550806005819055505050565b60065481565b60045481565b606081518351146108ed576040517f08c379a00000000000000000000000000000000000000000000000000000000081526004016108e490613535565b60405180910390fd5b6000835167ffffffffffffffff811115610930577f4e487b7100000000000000000000000000000000000000000000000000000000600052604160045260246000fd5b60405190808252806020026020018201604052801561095e5781602001602082028036833780820191505090505b50905060005b8451811015610a4d576109f78582815181106109a9577f4e487b7100000000000000000000000000000000000000000000000000000000600052603260045260246000fd5b60200260200101518583815181106109ea577f4e487b7100000000000000000000000000000000000000000000000000000000600052603260045260246000fd5b602002602001015161054f565b828281518110610a30577f4e487b7100000000000000000000000000000000000000000000000000000000600052603260045260246000fd5b60200260200101818152505080610a469061396e565b9050610964565b508091505092915050565b610a606114bc565b73ffffffffffffffffffffffffffffffffffffffff16610a7e610cbc565b73ffffffffffffffffffffffffffffffffffffffff1614610ad4576040517f08c379a0000000000000000000000000000000000000000000000000000000008152600401610acb90613495565b60405180910390fd5b8060078190555050565b60075481565b610bab73165cd37b4c644c2921454429e7f9358d18a45e148273ffffffffffffffffffffffffffffffffffffffff166370a08231306040518263ffffffff1660e01b8152600401610b359190613179565b60206040518083038186803b158015610b4d57600080fd5b505afa158015610b61573d6000803e3d6000fd5b505050506040513d601f19601f82011682018060405250810190610b859190612c18565b8373ffffffffffffffffffffffffffffffffffffffff166118249092919063ffffffff16565b50565b610bb66114bc565b73ffffffffffffffffffffffffffffffffffffffff16610bd4610cbc565b73ffffffffffffffffffffffffffffffffffffffff1614610c2a576040517f08c379a0000000000000000000000000000000000000000000000000000000008152600401610c2190613495565b60405180910390fd5b610c3460006118aa565b565b6000600654421015610c7d576040517f08c379a0000000000000000000000000000000000000000000000000000000008152600401610c74906133f5565b60405180910390fd5b600060065442610c8d919061380f565b905060006203f48082610ca09190613784565b9050662386f26fc1000081610cb591906137b5565b9250505090565b6000600360009054906101000a900473ffffffffffffffffffffffffffffffffffffffff16905090565b6000600654118015610cfa57506000600454115b8015610d0857506000600554115b610d47576040517f08c379a0000000000000000000000000000000000000000000000000000000008152600401610d3e90613355565b60405180910390fd5b600654421015610d8c576040517f08c379a0000000000000000000000000000000000000000000000000000000008152600401610d83906133f5565b60405180910390fd5b60006007541480610d9e575060075442105b610ddd576040517f08c379a0000000000000000000000000000000000000000000000000000000008152600401610dd490613415565b60405180910390fd5b600454811015610e22576040517f08c379a0000000000000000000000000000000000000000000000000000000008152600401610e1990613555565b60405180910390fd5b600554811115610e67576040517f08c379a0000000000000000000000000000000000000000000000000000000008152600401610e5e90613555565b60405180910390fd5b610e6f610c36565b341015610eb1576040517f08c379a0000000000000000000000000000000000000000000000000000000008152600401610ea8906134b5565b60405180910390fd5b610ecd3382600160405180602001604052806000815250611970565b50565b610ee2610edb6114bc565b8383611b06565b5050565b610eee6114bc565b73ffffffffffffffffffffffffffffffffffffffff16610f0c610cbc565b73ffffffffffffffffffffffffffffffffffffffff1614610f62576040517f08c379a0000000000000000000000000000000000000000000000000000000008152600401610f5990613495565b60405180910390fd5b8060068190555050565b6000600160008473ffffffffffffffffffffffffffffffffffffffff1673ffffffffffffffffffffffffffffffffffffffff16815260200190815260200160002060008373ffffffffffffffffffffffffffffffffffffffff1673ffffffffffffffffffffffffffffffffffffffff16815260200190815260200160002060009054906101000a900460ff16905092915050565b6110086114bc565b73ffffffffffffffffffffffffffffffffffffffff168573ffffffffffffffffffffffffffffffffffffffff16148061104e575061104d856110486114bc565b610f6c565b5b61108d576040517f08c379a0000000000000000000000000000000000000000000000000000000008152600401611084906133b5565b60405180910390fd5b61109a8585858585611c73565b5050505050565b6110a96114bc565b73ffffffffffffffffffffffffffffffffffffffff166110c7610cbc565b73ffffffffffffffffffffffffffffffffffffffff161461111d576040517f08c379a000000000000000000000000000000000000000000000000000000000815260040161111490613495565b60405180910390fd5b600073ffffffffffffffffffffffffffffffffffffffff168173ffffffffffffffffffffffffffffffffffffffff16141561118d576040517f08c379a000000000000000000000000000000000000000000000000000000000815260040161118490613395565b60405180910390fd5b611196816118aa565b50565b60007fd9b67a26000000000000000000000000000000000000000000000000000000007bffffffffffffffffffffffffffffffffffffffffffffffffffffffff1916827bffffffffffffffffffffffffffffffffffffffffffffffffffffffff1916148061126457507f0e89341c000000000000000000000000000000000000000000000000000000007bffffffffffffffffffffffffffffffffffffffffffffffffffffffff1916827bffffffffffffffffffffffffffffffffffffffffffffffffffffffff1916145b80611274575061127382611ef5565b5b9050919050565b60606002805461128a9061390b565b80601f01602080910402602001604051908101604052809291908181526020018280546112b69061390b565b80156113035780601f106112d857610100808354040283529160200191611303565b820191906000526020600020905b8154815290600101906020018083116112e657829003601f168201915b50505050509050919050565b60606000821415611357576040518060400160405280600181526020017f300000000000000000000000000000000000000000000000000000000000000081525090506114b7565b600082905060005b600082146113895780806113729061396e565b915050600a826113829190613784565b915061135f565b60008167ffffffffffffffff8111156113cb577f4e487b7100000000000000000000000000000000000000000000000000000000600052604160045260246000fd5b6040519080825280601f01601f1916602001820160405280156113fd5781602001600182028036833780820191505090505b5090505b600085146114b057600182611416919061380f565b9150600a8561142591906139b7565b6030611431919061372e565b60f81b81838151811061146d577f4e487b7100000000000000000000000000000000000000000000000000000000600052603260045260246000fd5b60200101907effffffffffffffffffffffffffffffffffffffffffffffffffffffffffffff1916908160001a905350600a856114a99190613784565b9450611401565b8093505050505b919050565b600033905090565b8151835114611508576040517f08c379a00000000000000000000000000000000000000000000000000000000081526004016114ff90613575565b60405180910390fd5b600073ffffffffffffffffffffffffffffffffffffffff168473ffffffffffffffffffffffffffffffffffffffff161415611578576040517f08c379a000000000000000000000000000000000000000000000000000000000815260040161156f90613435565b60405180910390fd5b60006115826114bc565b9050611592818787878787611f5f565b60005b845181101561178f5760008582815181106115d9577f4e487b7100000000000000000000000000000000000000000000000000000000600052603260045260246000fd5b60200260200101519050600085838151811061161e577f4e487b7100000000000000000000000000000000000000000000000000000000600052603260045260246000fd5b60200260200101519050600080600084815260200190815260200160002060008b73ffffffffffffffffffffffffffffffffffffffff1673ffffffffffffffffffffffffffffffffffffffff168152602001908152602001600020549050818110156116bf576040517f08c379a00000000000000000000000000000000000000000000000000000000081526004016116b690613475565b60405180910390fd5b81810360008085815260200190815260200160002060008c73ffffffffffffffffffffffffffffffffffffffff1673ffffffffffffffffffffffffffffffffffffffff168152602001908152602001600020819055508160008085815260200190815260200160002060008b73ffffffffffffffffffffffffffffffffffffffff1673ffffffffffffffffffffffffffffffffffffffff1681526020019081526020016000206000828254611774919061372e565b92505081905550505050806117889061396e565b9050611595565b508473ffffffffffffffffffffffffffffffffffffffff168673ffffffffffffffffffffffffffffffffffffffff168273ffffffffffffffffffffffffffffffffffffffff167f4a39dc06d4c0dbc64b70af90fd698a233a518aa5d07e595d983b8c0526c8f7fb87876040516118069291906132a1565b60405180910390a461181c818787878787611f67565b505050505050565b6118a58363a9059cbb60e01b8484604051602401611843929190613256565b604051602081830303815290604052907bffffffffffffffffffffffffffffffffffffffffffffffffffffffff19166020820180517bffffffffffffffffffffffffffffffffffffffffffffffffffffffff838183161783525050505061214e565b505050565b6000600360009054906101000a900473ffffffffffffffffffffffffffffffffffffffff16905081600360006101000a81548173ffffffffffffffffffffffffffffffffffffffff021916908373ffffffffffffffffffffffffffffffffffffffff1602179055508173ffffffffffffffffffffffffffffffffffffffff168173ffffffffffffffffffffffffffffffffffffffff167f8be0079c531659141344cd1fd0a4f28419497f9722a3daafe3b4186f6b6457e060405160405180910390a35050565b600073ffffffffffffffffffffffffffffffffffffffff168473ffffffffffffffffffffffffffffffffffffffff1614156119e0576040517f08c379a00000000000000000000000000000000000000000000000000000000081526004016119d790613595565b60405180910390fd5b60006119ea6114bc565b9050611a0b816000876119fc88612215565b611a0588612215565b87611f5f565b8260008086815260200190815260200160002060008773ffffffffffffffffffffffffffffffffffffffff1673ffffffffffffffffffffffffffffffffffffffff1681526020019081526020016000206000828254611a6a919061372e565b925050819055508473ffffffffffffffffffffffffffffffffffffffff16600073ffffffffffffffffffffffffffffffffffffffff168273ffffffffffffffffffffffffffffffffffffffff167fc3d58168c5ae7397731d063d5bbf3d657854427343f4c083240f7aacaa2d0f628787604051611ae89291906135d0565b60405180910390a4611aff816000878787876122db565b5050505050565b8173ffffffffffffffffffffffffffffffffffffffff168373ffffffffffffffffffffffffffffffffffffffff161415611b75576040517f08c379a0000000000000000000000000000000000000000000000000000000008152600401611b6c906134f5565b60405180910390fd5b80600160008573ffffffffffffffffffffffffffffffffffffffff1673ffffffffffffffffffffffffffffffffffffffff16815260200190815260200160002060008473ffffffffffffffffffffffffffffffffffffffff1673ffffffffffffffffffffffffffffffffffffffff16815260200190815260200160002060006101000a81548160ff0219169083151502179055508173ffffffffffffffffffffffffffffffffffffffff168373ffffffffffffffffffffffffffffffffffffffff167f17307eab39ab6107e8899845ad3d59bd9653f200f220920489ca2b5937696c3183604051611c6691906132d8565b60405180910390a3505050565b600073ffffffffffffffffffffffffffffffffffffffff168473ffffffffffffffffffffffffffffffffffffffff161415611ce3576040517f08c379a0000000000000000000000000000000000000000000000000000000008152600401611cda90613435565b60405180910390fd5b6000611ced6114bc565b9050611d0d818787611cfe88612215565b611d0788612215565b87611f5f565b600080600086815260200190815260200160002060008873ffffffffffffffffffffffffffffffffffffffff1673ffffffffffffffffffffffffffffffffffffffff16815260200190815260200160002054905083811015611da4576040517f08c379a0000000000000000000000000000000000000000000000000000000008152600401611d9b90613475565b60405180910390fd5b83810360008087815260200190815260200160002060008973ffffffffffffffffffffffffffffffffffffffff1673ffffffffffffffffffffffffffffffffffffffff168152602001908152602001600020819055508360008087815260200190815260200160002060008873ffffffffffffffffffffffffffffffffffffffff1673ffffffffffffffffffffffffffffffffffffffff1681526020019081526020016000206000828254611e59919061372e565b925050819055508573ffffffffffffffffffffffffffffffffffffffff168773ffffffffffffffffffffffffffffffffffffffff168373ffffffffffffffffffffffffffffffffffffffff167fc3d58168c5ae7397731d063d5bbf3d657854427343f4c083240f7aacaa2d0f628888604051611ed69291906135d0565b60405180910390a4611eec8288888888886122db565b50505050505050565b60007f01ffc9a7000000000000000000000000000000000000000000000000000000007bffffffffffffffffffffffffffffffffffffffffffffffffffffffff1916827bffffffffffffffffffffffffffffffffffffffffffffffffffffffff1916149050919050565b505050505050565b611f868473ffffffffffffffffffffffffffffffffffffffff166124c2565b15612146578373ffffffffffffffffffffffffffffffffffffffff1663bc197c8187878686866040518663ffffffff1660e01b8152600401611fcc959493929190613194565b602060405180830381600087803b158015611fe657600080fd5b505af192505050801561201757506040513d601f19601f820116820180604052508101906120149190612b9d565b60015b6120bd57612023613aa4565b806308c379a0141561208057506120386140cd565b806120435750612082565b806040517f08c379a000000000000000000000000000000000000000000000000000000000815260040161207791906132f3565b60405180910390fd5b505b6040517f08c379a00000000000000000000000000000000000000000000000000000000081526004016120b490613315565b60405180910390fd5b63bc197c8160e01b7bffffffffffffffffffffffffffffffffffffffffffffffffffffffff1916817bffffffffffffffffffffffffffffffffffffffffffffffffffffffff191614612144576040517f08c379a000000000000000000000000000000000000000000000000000000000815260040161213b90613335565b60405180910390fd5b505b505050505050565b60006121b0826040518060400160405280602081526020017f5361666545524332303a206c6f772d6c6576656c2063616c6c206661696c65648152508573ffffffffffffffffffffffffffffffffffffffff166124e59092919063ffffffff16565b905060008151111561221057808060200190518101906121d09190612b4b565b61220f576040517f08c379a000000000000000000000000000000000000000000000000000000000815260040161220690613515565b60405180910390fd5b5b505050565b60606000600167ffffffffffffffff81111561225a577f4e487b7100000000000000000000000000000000000000000000000000000000600052604160045260246000fd5b6040519080825280602002602001820160405280156122885781602001602082028036833780820191505090505b50905082816000815181106122c6577f4e487b7100000000000000000000000000000000000000000000000000000000600052603260045260246000fd5b60200260200101818152505080915050919050565b6122fa8473ffffffffffffffffffffffffffffffffffffffff166124c2565b156124ba578373ffffffffffffffffffffffffffffffffffffffff1663f23a6e6187878686866040518663ffffffff1660e01b81526004016123409594939291906131fc565b602060405180830381600087803b15801561235a57600080fd5b505af192505050801561238b57506040513d601f19601f820116820180604052508101906123889190612b9d565b60015b61243157612397613aa4565b806308c379a014156123f457506123ac6140cd565b806123b757506123f6565b806040517f08c379a00000000000000000000000000000000000000000000000000000000081526004016123eb91906132f3565b60405180910390fd5b505b6040517f08c379a000000000000000000000000000000000000000000000000000000000815260040161242890613315565b60405180910390fd5b63f23a6e6160e01b7bffffffffffffffffffffffffffffffffffffffffffffffffffffffff1916817bffffffffffffffffffffffffffffffffffffffffffffffffffffffff1916146124b8576040517f08c379a00000000000000000000000000000000000000000000000000000000081526004016124af90613335565b60405180910390fd5b505b505050505050565b6000808273ffffffffffffffffffffffffffffffffffffffff163b119050919050565b60606124f484846000856124fd565b90509392505050565b606082471015612542576040517f08c379a0000000000000000000000000000000000000000000000000000000008152600401612539906133d5565b60405180910390fd5b61254b856124c2565b61258a576040517f08c379a0000000000000000000000000000000000000000000000000000000008152600401612581906134d5565b60405180910390fd5b6000808673ffffffffffffffffffffffffffffffffffffffff1685876040516125b39190613128565b60006040518083038185875af1925050503d80600081146125f0576040519150601f19603f3d011682016040523d82523d6000602084013e6125f5565b606091505b5091509150612605828286612611565b92505050949350505050565b6060831561262157829050612671565b6000835111156126345782518084602001fd5b816040517f08c379a000000000000000000000000000000000000000000000000000000000815260040161266891906132f3565b60405180910390fd5b9392505050565b600061268b6126868461361e565b6135f9565b905080838252602082019050828560208602820111156126aa57600080fd5b60005b858110156126da57816126c0888261278e565b8452602084019350602083019250506001810190506126ad565b5050509392505050565b60006126f76126f28461364a565b6135f9565b9050808382526020820190508285602086028201111561271657600080fd5b60005b85811015612746578161272c888261288a565b845260208401935060208301925050600181019050612719565b5050509392505050565b600061276361275e84613676565b6135f9565b90508281526020810184848401111561277b57600080fd5b6127868482856138c9565b509392505050565b60008135905061279d81614163565b92915050565b600082601f8301126127b457600080fd5b81356127c4848260208601612678565b91505092915050565b600082601f8301126127de57600080fd5b81356127ee8482602086016126e4565b91505092915050565b6000813590506128068161417a565b92915050565b60008151905061281b8161417a565b92915050565b60008135905061283081614191565b92915050565b60008151905061284581614191565b92915050565b600082601f83011261285c57600080fd5b813561286c848260208601612750565b91505092915050565b600081359050612884816141a8565b92915050565b600081359050612899816141bf565b92915050565b6000815190506128ae816141bf565b92915050565b6000602082840312156128c657600080fd5b60006128d48482850161278e565b91505092915050565b600080604083850312156128f057600080fd5b60006128fe8582860161278e565b925050602061290f8582860161278e565b9150509250929050565b600080600080600060a0868803121561293157600080fd5b600061293f8882890161278e565b95505060206129508882890161278e565b945050604086013567ffffffffffffffff81111561296d57600080fd5b612979888289016127cd565b935050606086013567ffffffffffffffff81111561299657600080fd5b6129a2888289016127cd565b925050608086013567ffffffffffffffff8111156129bf57600080fd5b6129cb8882890161284b565b9150509295509295909350565b600080600080600060a086880312156129f057600080fd5b60006129fe8882890161278e565b9550506020612a0f8882890161278e565b9450506040612a208882890161288a565b9350506060612a318882890161288a565b925050608086013567ffffffffffffffff811115612a4e57600080fd5b612a5a8882890161284b565b9150509295509295909350565b60008060408385031215612a7a57600080fd5b6000612a888582860161278e565b9250506020612a99858286016127f7565b9150509250929050565b60008060408385031215612ab657600080fd5b6000612ac48582860161278e565b9250506020612ad58582860161288a565b9150509250929050565b60008060408385031215612af257600080fd5b600083013567ffffffffffffffff811115612b0c57600080fd5b612b18858286016127a3565b925050602083013567ffffffffffffffff811115612b3557600080fd5b612b41858286016127cd565b9150509250929050565b600060208284031215612b5d57600080fd5b6000612b6b8482850161280c565b91505092915050565b600060208284031215612b8657600080fd5b6000612b9484828501612821565b91505092915050565b600060208284031215612baf57600080fd5b6000612bbd84828501612836565b91505092915050565b600060208284031215612bd857600080fd5b6000612be684828501612875565b91505092915050565b600060208284031215612c0157600080fd5b6000612c0f8482850161288a565b91505092915050565b600060208284031215612c2a57600080fd5b6000612c388482850161289f565b91505092915050565b60008060408385031215612c5457600080fd5b6000612c628582860161288a565b9250506020612c738582860161288a565b9150509250929050565b6000612c89838361310a565b60208301905092915050565b612c9e81613843565b82525050565b6000612caf826136b7565b612cb981856136e5565b9350612cc4836136a7565b8060005b83811015612cf5578151612cdc8882612c7d565b9750612ce7836136d8565b925050600181019050612cc8565b5085935050505092915050565b612d0b81613855565b82525050565b6000612d1c826136c2565b612d2681856136f6565b9350612d368185602086016138d8565b612d3f81613ac6565b840191505092915050565b6000612d55826136c2565b612d5f8185613707565b9350612d6f8185602086016138d8565b80840191505092915050565b6000612d86826136cd565b612d908185613712565b9350612da08185602086016138d8565b612da981613ac6565b840191505092915050565b6000612dbf826136cd565b612dc98185613723565b9350612dd98185602086016138d8565b80840191505092915050565b6000612df2603483613712565b9150612dfd82613ae4565b604082019050919050565b6000612e15602883613712565b9150612e2082613b33565b604082019050919050565b6000612e38601383613712565b9150612e4382613b82565b602082019050919050565b6000612e5b602b83613712565b9150612e6682613bab565b604082019050919050565b6000612e7e602683613712565b9150612e8982613bfa565b604082019050919050565b6000612ea1602983613712565b9150612eac82613c49565b604082019050919050565b6000612ec4602683613712565b9150612ecf82613c98565b604082019050919050565b6000612ee7601483613712565b9150612ef282613ce7565b602082019050919050565b6000612f0a601a83613712565b9150612f1582613d10565b602082019050919050565b6000612f2d602583613712565b9150612f3882613d39565b604082019050919050565b6000612f50603283613712565b9150612f5b82613d88565b604082019050919050565b6000612f73602a83613712565b9150612f7e82613dd7565b604082019050919050565b6000612f96600583613723565b9150612fa182613e26565b600582019050919050565b6000612fb9602083613712565b9150612fc482613e4f565b602082019050919050565b6000612fdc603483613712565b9150612fe782613e78565b604082019050919050565b6000612fff601d83613712565b915061300a82613ec7565b602082019050919050565b6000613022602983613712565b915061302d82613ef0565b604082019050919050565b6000613045602a83613712565b915061305082613f3f565b604082019050919050565b6000613068602983613712565b915061307382613f8e565b604082019050919050565b600061308b601b83613712565b915061309682613fdd565b602082019050919050565b60006130ae602883613712565b91506130b982614006565b604082019050919050565b60006130d1602183613712565b91506130dc82614055565b604082019050919050565b60006130f4600183613723565b91506130ff826140a4565b600182019050919050565b613113816138bf565b82525050565b613122816138bf565b82525050565b60006131348284612d4a565b915081905092915050565b600061314b8285612db4565b9150613156826130e7565b91506131628284612db4565b915061316d82612f89565b91508190509392505050565b600060208201905061318e6000830184612c95565b92915050565b600060a0820190506131a96000830188612c95565b6131b66020830187612c95565b81810360408301526131c88186612ca4565b905081810360608301526131dc8185612ca4565b905081810360808301526131f08184612d11565b90509695505050505050565b600060a0820190506132116000830188612c95565b61321e6020830187612c95565b61322b6040830186613119565b6132386060830185613119565b818103608083015261324a8184612d11565b90509695505050505050565b600060408201905061326b6000830185612c95565b6132786020830184613119565b9392505050565b600060208201905081810360008301526132998184612ca4565b905092915050565b600060408201905081810360008301526132bb8185612ca4565b905081810360208301526132cf8184612ca4565b90509392505050565b60006020820190506132ed6000830184612d02565b92915050565b6000602082019050818103600083015261330d8184612d7b565b905092915050565b6000602082019050818103600083015261332e81612de5565b9050919050565b6000602082019050818103600083015261334e81612e08565b9050919050565b6000602082019050818103600083015261336e81612e2b565b9050919050565b6000602082019050818103600083015261338e81612e4e565b9050919050565b600060208201905081810360008301526133ae81612e71565b9050919050565b600060208201905081810360008301526133ce81612e94565b9050919050565b600060208201905081810360008301526133ee81612eb7565b9050919050565b6000602082019050818103600083015261340e81612eda565b9050919050565b6000602082019050818103600083015261342e81612efd565b9050919050565b6000602082019050818103600083015261344e81612f20565b9050919050565b6000602082019050818103600083015261346e81612f43565b9050919050565b6000602082019050818103600083015261348e81612f66565b9050919050565b600060208201905081810360008301526134ae81612fac565b9050919050565b600060208201905081810360008301526134ce81612fcf565b9050919050565b600060208201905081810360008301526134ee81612ff2565b9050919050565b6000602082019050818103600083015261350e81613015565b9050919050565b6000602082019050818103600083015261352e81613038565b9050919050565b6000602082019050818103600083015261354e8161305b565b9050919050565b6000602082019050818103600083015261356e8161307e565b9050919050565b6000602082019050818103600083015261358e816130a1565b9050919050565b600060208201905081810360008301526135ae816130c4565b9050919050565b60006020820190506135ca6000830184613119565b92915050565b60006040820190506135e56000830185613119565b6135f26020830184613119565b9392505050565b6000613603613614565b905061360f828261393d565b919050565b6000604051905090565b600067ffffffffffffffff82111561363957613638613a75565b5b602082029050602081019050919050565b600067ffffffffffffffff82111561366557613664613a75565b5b602082029050602081019050919050565b600067ffffffffffffffff82111561369157613690613a75565b5b61369a82613ac6565b9050602081019050919050565b6000819050602082019050919050565b600081519050919050565b600081519050919050565b600081519050919050565b6000602082019050919050565b600082825260208201905092915050565b600082825260208201905092915050565b600081905092915050565b600082825260208201905092915050565b600081905092915050565b6000613739826138bf565b9150613744836138bf565b9250827fffffffffffffffffffffffffffffffffffffffffffffffffffffffffffffffff03821115613779576137786139e8565b5b828201905092915050565b600061378f826138bf565b915061379a836138bf565b9250826137aa576137a9613a17565b5b828204905092915050565b60006137c0826138bf565b91506137cb836138bf565b9250817fffffffffffffffffffffffffffffffffffffffffffffffffffffffffffffffff0483118215151615613804576138036139e8565b5b828202905092915050565b600061381a826138bf565b9150613825836138bf565b925082821015613838576138376139e8565b5b828203905092915050565b600061384e8261389f565b9050919050565b60008115159050919050565b60007fffffffff0000000000000000000000000000000000000000000000000000000082169050919050565b600061389882613843565b9050919050565b600073ffffffffffffffffffffffffffffffffffffffff82169050919050565b6000819050919050565b82818337600083830152505050565b60005b838110156138f65780820151818401526020810190506138db565b83811115613905576000848401525b50505050565b6000600282049050600182168061392357607f821691505b6020821081141561393757613936613a46565b5b50919050565b61394682613ac6565b810181811067ffffffffffffffff8211171561396557613964613a75565b5b80604052505050565b6000613979826138bf565b91507fffffffffffffffffffffffffffffffffffffffffffffffffffffffffffffffff8214156139ac576139ab6139e8565b5b600182019050919050565b60006139c2826138bf565b91506139cd836138bf565b9250826139dd576139dc613a17565b5b828206905092915050565b7f4e487b7100000000000000000000000000000000000000000000000000000000600052601160045260246000fd5b7f4e487b7100000000000000000000000000000000000000000000000000000000600052601260045260246000fd5b7f4e487b7100000000000000000000000000000000000000000000000000000000600052602260045260246000fd5b7f4e487b7100000000000000000000000000000000000000000000000000000000600052604160045260246000fd5b600060033d1115613ac35760046000803e613ac0600051613ad7565b90505b90565b6000601f19601f8301169050919050565b60008160e01c9050919050565b7f455243313135353a207472616e7366657220746f206e6f6e204552433131353560008201527f526563656976657220696d706c656d656e746572000000000000000000000000602082015250565b7f455243313135353a204552433131353552656365697665722072656a6563746560008201527f6420746f6b656e73000000000000000000000000000000000000000000000000602082015250565b7f4d696e74206e6f7420636f6e6669677572656400000000000000000000000000600082015250565b7f455243313135353a2062616c616e636520717565727920666f7220746865207a60008201527f65726f2061646472657373000000000000000000000000000000000000000000602082015250565b7f4f776e61626c653a206e6577206f776e657220697320746865207a65726f206160008201527f6464726573730000000000000000000000000000000000000000000000000000602082015250565b7f455243313135353a2063616c6c6572206973206e6f74206f776e6572206e6f7260008201527f20617070726f7665640000000000000000000000000000000000000000000000602082015250565b7f416464726573733a20696e73756666696369656e742062616c616e636520666f60008201527f722063616c6c0000000000000000000000000000000000000000000000000000602082015250565b7f4d696e74696e67206e6f74206f70656e20796574000000000000000000000000600082015250565b7f4d696e74696e672077617320636c6f73656420616c7265616479000000000000600082015250565b7f455243313135353a207472616e7366657220746f20746865207a65726f20616460008201527f6472657373000000000000000000000000000000000000000000000000000000602082015250565b7f455243313135353a207472616e736665722063616c6c6572206973206e6f742060008201527f6f776e6572206e6f7220617070726f7665640000000000000000000000000000602082015250565b7f455243313135353a20696e73756666696369656e742062616c616e636520666f60008201527f72207472616e7366657200000000000000000000000000000000000000000000602082015250565b7f2e6a736f6e000000000000000000000000000000000000000000000000000000600082015250565b7f4f776e61626c653a2063616c6c6572206973206e6f7420746865206f776e6572600082015250565b7f4e6f7420656e6f756768742076616c756520746f206d696e742c20706c65617360008201527f652075736520706c61696e207472616e73666572000000000000000000000000602082015250565b7f416464726573733a2063616c6c20746f206e6f6e2d636f6e7472616374000000600082015250565b7f455243313135353a2073657474696e6720617070726f76616c2073746174757360008201527f20666f722073656c660000000000000000000000000000000000000000000000602082015250565b7f5361666545524332303a204552433230206f7065726174696f6e20646964206e60008201527f6f74207375636365656400000000000000000000000000000000000000000000602082015250565b7f455243313135353a206163636f756e747320616e6420696473206c656e67746860008201527f206d69736d617463680000000000000000000000000000000000000000000000602082015250565b7f546869732064657369676e2069736e2774206176616c6169626c650000000000600082015250565b7f455243313135353a2069647320616e6420616d6f756e7473206c656e6774682060008201527f6d69736d61746368000000000000000000000000000000000000000000000000602082015250565b7f455243313135353a206d696e7420746f20746865207a65726f2061646472657360008201527f7300000000000000000000000000000000000000000000000000000000000000602082015250565b7f2f00000000000000000000000000000000000000000000000000000000000000600082015250565b600060443d10156140dd57614160565b6140e5613614565b60043d036004823e80513d602482011167ffffffffffffffff8211171561410d575050614160565b808201805167ffffffffffffffff81111561412b5750505050614160565b80602083010160043d038501811115614148575050505050614160565b6141578260200185018661393d565b82955050505050505b90565b61416c81613843565b811461417757600080fd5b50565b61418381613855565b811461418e57600080fd5b50565b61419a81613861565b81146141a557600080fd5b50565b6141b18161388d565b81146141bc57600080fd5b50565b6141c8816138bf565b81146141d357600080fd5b5056fea2646970667358221220afb90520175f1558fa122911d30784d206020426f48fbb038c6abe30f1cebfb564736f6c63430008040033",
  "linkReferences": {},
  "deployedLinkReferences": {}
}