{
  "_format": "hh-sol-artifact-1",
  "contractName": "Pins4Ukraine",
  "sourceName": "contracts/Pins4Ukraine.sol",
  "abi": [
    {
      "inputs": [],
      "stateMutability": "nonpayable",
      "type": "constructor"
    },
    {
      "anonymous": false,
      "inputs": [
        {
          "indexed": true,
          "internalType": "address",
          "name": "account",
          "type": "address"
        },
        {
          "indexed": true,
          "internalType": "address",
          "name": "operator",
          "type": "address"
        },
        {
          "indexed": false,
          "internalType": "bool",
          "name": "approved",
          "type": "bool"
        }
      ],
      "name": "ApprovalForAll",
      "type": "event"
    },
    {
      "anonymous": false,
      "inputs": [
        {
          "indexed": true,
          "internalType": "address",
          "name": "operator",
          "type": "address"
        },
        {
          "indexed": true,
          "internalType": "address",
          "name": "from",
          "type": "address"
        },
        {
          "indexed": true,
          "internalType": "address",
          "name": "to",
          "type": "address"
        },
        {
          "indexed": false,
          "internalType": "uint256[]",
          "name": "ids",
          "type": "uint256[]"
        },
        {
          "indexed": false,
          "internalType": "uint256[]",
          "name": "values",
          "type": "uint256[]"
        }
      ],
      "name": "TransferBatch",
      "type": "event"
    },
    {
      "anonymous": false,
      "inputs": [
        {
          "indexed": true,
          "internalType": "address",
          "name": "operator",
          "type": "address"
        },
        {
          "indexed": true,
          "internalType": "address",
          "name": "from",
          "type": "address"
        },
        {
          "indexed": true,
          "internalType": "address",
          "name": "to",
          "type": "address"
        },
        {
          "indexed": false,
          "internalType": "uint256",
          "name": "id",
          "type": "uint256"
        },
        {
          "indexed": false,
          "internalType": "uint256",
          "name": "value",
          "type": "uint256"
        }
      ],
      "name": "TransferSingle",
      "type": "event"
    },
    {
      "anonymous": false,
      "inputs": [
        {
          "indexed": false,
          "internalType": "string",
          "name": "value",
          "type": "string"
        },
        {
          "indexed": true,
          "internalType": "uint256",
          "name": "id",
          "type": "uint256"
        }
      ],
      "name": "URI",
      "type": "event"
    },
    {
      "stateMutability": "payable",
      "type": "fallback"
    },
    {
      "inputs": [
        {
          "internalType": "address",
          "name": "account",
          "type": "address"
        },
        {
          "internalType": "uint256",
          "name": "id",
          "type": "uint256"
        }
      ],
      "name": "balanceOf",
      "outputs": [
        {
          "internalType": "uint256",
          "name": "",
          "type": "uint256"
        }
      ],
      "stateMutability": "view",
      "type": "function"
    },
    {
      "inputs": [
        {
          "internalType": "address[]",
          "name": "accounts",
          "type": "address[]"
        },
        {
          "internalType": "uint256[]",
          "name": "ids",
          "type": "uint256[]"
        }
      ],
      "name": "balanceOfBatch",
      "outputs": [
        {
          "internalType": "uint256[]",
          "name": "",
          "type": "uint256[]"
        }
      ],
      "stateMutability": "view",
      "type": "function"
    },
    {
      "inputs": [
        {
          "internalType": "address",
          "name": "account",
          "type": "address"
        },
        {
          "internalType": "address",
          "name": "operator",
          "type": "address"
        }
      ],
      "name": "isApprovedForAll",
      "outputs": [
        {
          "internalType": "bool",
          "name": "",
          "type": "bool"
        }
      ],
      "stateMutability": "view",
      "type": "function"
    },
    {
      "inputs": [
        {
          "internalType": "uint256",
          "name": "_tokenId",
          "type": "uint256"
        }
      ],
      "name": "mint",
      "outputs": [],
      "stateMutability": "payable",
      "type": "function"
    },
    {
      "inputs": [
        {
          "internalType": "uint256",
          "name": "",
          "type": "uint256"
        },
        {
          "internalType": "uint256",
          "name": "_salePrice",
          "type": "uint256"
        }
      ],
      "name": "royaltyInfo",
      "outputs": [
        {
          "internalType": "address",
          "name": "",
          "type": "address"
        },
        {
          "internalType": "uint256",
          "name": "",
          "type": "uint256"
        }
      ],
      "stateMutability": "pure",
      "type": "function"
    },
    {
      "inputs": [
        {
          "internalType": "address",
          "name": "from",
          "type": "address"
        },
        {
          "internalType": "address",
          "name": "to",
          "type": "address"
        },
        {
          "internalType": "uint256[]",
          "name": "ids",
          "type": "uint256[]"
        },
        {
          "internalType": "uint256[]",
          "name": "amounts",
          "type": "uint256[]"
        },
        {
          "internalType": "bytes",
          "name": "data",
          "type": "bytes"
        }
      ],
      "name": "safeBatchTransferFrom",
      "outputs": [],
      "stateMutability": "nonpayable",
      "type": "function"
    },
    {
      "inputs": [
        {
          "internalType": "address",
          "name": "from",
          "type": "address"
        },
        {
          "internalType": "address",
          "name": "to",
          "type": "address"
        },
        {
          "internalType": "uint256",
          "name": "id",
          "type": "uint256"
        },
        {
          "internalType": "uint256",
          "name": "amount",
          "type": "uint256"
        },
        {
          "internalType": "bytes",
          "name": "data",
          "type": "bytes"
        }
      ],
      "name": "safeTransferFrom",
      "outputs": [],
      "stateMutability": "nonpayable",
      "type": "function"
    },
    {
      "inputs": [
        {
          "internalType": "address",
          "name": "operator",
          "type": "address"
        },
        {
          "internalType": "bool",
          "name": "approved",
          "type": "bool"
        }
      ],
      "name": "setApprovalForAll",
      "outputs": [],
      "stateMutability": "nonpayable",
      "type": "function"
    },
    {
      "inputs": [
        {
          "internalType": "bytes4",
          "name": "_interfaceId",
          "type": "bytes4"
        }
      ],
      "name": "supportsInterface",
      "outputs": [
        {
          "internalType": "bool",
          "name": "",
          "type": "bool"
        }
      ],
      "stateMutability": "view",
      "type": "function"
    },
    {
      "inputs": [
        {
          "internalType": "uint256",
          "name": "time",
          "type": "uint256"
        }
      ],
      "name": "tokenPriceAt",
      "outputs": [
        {
          "internalType": "uint256",
          "name": "",
          "type": "uint256"
        }
      ],
      "stateMutability": "view",
      "type": "function"
    },
    {
      "inputs": [],
      "name": "transferSupport",
      "outputs": [],
      "stateMutability": "nonpayable",
      "type": "function"
    },
    {
      "inputs": [
        {
          "internalType": "contract IERC20",
          "name": "_token",
          "type": "address"
        }
      ],
      "name": "transferSupportERC20",
      "outputs": [],
      "stateMutability": "nonpayable",
      "type": "function"
    },
    {
      "inputs": [
        {
          "internalType": "uint256",
          "name": "_tokenId",
          "type": "uint256"
        }
      ],
      "name": "uri",
      "outputs": [
        {
          "internalType": "string",
          "name": "",
          "type": "string"
        }
      ],
      "stateMutability": "view",
      "type": "function"
    },
    {
      "stateMutability": "payable",
      "type": "receive"
    }
  ],
  "bytecode": "0x60806040523480156200001157600080fd5b506040518060400160405280601f81526020017f68747470733a2f2f70696e7334756b7261696e652e636f6d2f6173736574730081525062000059816200006060201b60201c565b5062000191565b8060029080519060200190620000789291906200007c565b5050565b8280546200008a906200012c565b90600052602060002090601f016020900481019282620000ae5760008555620000fa565b82601f10620000c957805160ff1916838001178555620000fa565b82800160010185558215620000fa579182015b82811115620000f9578251825591602001919060010190620000dc565b5b5090506200010991906200010d565b5090565b5b80821115620001285760008160009055506001016200010e565b5090565b600060028204905060018216806200014557607f821691505b602082108114156200015c576200015b62000162565b5b50919050565b7f4e487b7100000000000000000000000000000000000000000000000000000000600052602260045260246000fd5b613d0e80620001a16000396000f3fe6080604052600436106100c55760003560e01c80633718198a1161007f578063a0712d6811610059578063a0712d68146102a6578063a22cb465146102c2578063e985e9c5146102eb578063f242432a14610328576100cc565b80633718198a146102295780634e1273f41461024057806362c82d831461027d576100cc565b8062fdd58e146100ce57806301ffc9a71461010b5780630e89341c146101485780632a55205a146101855780632eb2c2d6146101c35780633293a5ac146101ec576100cc565b366100cc57005b005b3480156100da57600080fd5b506100f560048036038101906100f09190612518565b610351565b6040516101029190612fa4565b60405180910390f35b34801561011757600080fd5b50610132600480360381019061012d91906125e9565b61041a565b60405161013f9190612d07565b60405180910390f35b34801561015457600080fd5b5061016f600480360381019061016a9190612664565b610494565b60405161017c9190612d22565b60405180910390f35b34801561019157600080fd5b506101ac60048036038101906101a791906126b6565b6104cf565b6040516101ba929190612c85565b60405180910390f35b3480156101cf57600080fd5b506101ea60048036038101906101e5919061238e565b61050b565b005b3480156101f857600080fd5b50610213600480360381019061020e9190612664565b6105ac565b6040516102209190612fa4565b60405180910390f35b34801561023557600080fd5b5061023e6106c9565b005b34801561024c57600080fd5b5061026760048036038101906102629190612554565b61076f565b6040516102749190612cae565b60405180910390f35b34801561028957600080fd5b506102a4600480360381019061029f919061263b565b610920565b005b6102c060048036038101906102bb9190612664565b610a33565b005b3480156102ce57600080fd5b506102e960048036038101906102e491906124dc565b610bb2565b005b3480156102f757600080fd5b50610312600480360381019061030d9190612352565b610bc8565b60405161031f9190612d07565b60405180910390f35b34801561033457600080fd5b5061034f600480360381019061034a919061244d565b610c5c565b005b60008073ffffffffffffffffffffffffffffffffffffffff168373ffffffffffffffffffffffffffffffffffffffff1614156103c2576040517f08c379a00000000000000000000000000000000000000000000000000000000081526004016103b990612d84565b60405180910390fd5b60008083815260200190815260200160002060008473ffffffffffffffffffffffffffffffffffffffff1673ffffffffffffffffffffffffffffffffffffffff16815260200190815260200160002054905092915050565b60007f2a55205a000000000000000000000000000000000000000000000000000000007bffffffffffffffffffffffffffffffffffffffffffffffffffffffff1916827bffffffffffffffffffffffffffffffffffffffffffffffffffffffff1916148061048d575061048c82610cfd565b5b9050919050565b606061049f82610ddf565b6104a883610e73565b6040516020016104b9929190612b6e565b6040516020818303038152906040529050919050565b60008073165cd37b4c644c2921454429e7f9358d18a45e1460646005856104f69190613315565b6105009190613173565b915091509250929050565b610513611020565b73ffffffffffffffffffffffffffffffffffffffff168573ffffffffffffffffffffffffffffffffffffffff161480610559575061055885610553611020565b610bc8565b5b610598576040517f08c379a000000000000000000000000000000000000000000000000000000000815260040161058f90612e24565b60405180910390fd5b6105a58585858585611028565b5050505050565b600063627859808210156105f5576040517f08c379a00000000000000000000000000000000000000000000000000000000081526004016105ec90612de4565b60405180910390fd5b6363684a80821061063b576040517f08c379a000000000000000000000000000000000000000000000000000000000815260040161063290612ea4565b60405180910390fd5b600062093a8090506000636278598042610655919061336f565b9050600082826106659190613173565b9050600060038261067691906131f7565b905060006144a860328361068a9190613315565b6106949190613173565b905060018110156106a457600190505b600081662386f26fc100006106b99190613315565b9050809650505050505050919050565b600047905060008111610711576040517f08c379a000000000000000000000000000000000000000000000000000000000815260040161070890612ec4565b60405180910390fd5b73165cd37b4c644c2921454429e7f9358d18a45e1473ffffffffffffffffffffffffffffffffffffffff166108fc829081150290604051600060405180830381858888f1935050505015801561076b573d6000803e3d6000fd5b5050565b606081518351146107b5576040517f08c379a00000000000000000000000000000000000000000000000000000000081526004016107ac90612f24565b60405180910390fd5b6000835167ffffffffffffffff8111156107f8577f4e487b7100000000000000000000000000000000000000000000000000000000600052604160045260246000fd5b6040519080825280602002602001820160405280156108265781602001602082028036833780820191505090505b50905060005b8451811015610915576108bf858281518110610871577f4e487b7100000000000000000000000000000000000000000000000000000000600052603260045260246000fd5b60200260200101518583815181106108b2577f4e487b7100000000000000000000000000000000000000000000000000000000600052603260045260246000fd5b6020026020010151610351565b8282815181106108f8577f4e487b7100000000000000000000000000000000000000000000000000000000600052603260045260246000fd5b6020026020010181815250508061090e906134db565b905061082c565b508091505092915050565b60008173ffffffffffffffffffffffffffffffffffffffff166370a08231306040518263ffffffff1660e01b815260040161095b9190612ba8565b60206040518083038186803b15801561097357600080fd5b505afa158015610987573d6000803e3d6000fd5b505050506040513d601f19601f820116820180604052508101906109ab919061268d565b9050600081116109f0576040517f08c379a00000000000000000000000000000000000000000000000000000000081526004016109e790612ec4565b60405180910390fd5b610a2f73165cd37b4c644c2921454429e7f9358d18a45e14828473ffffffffffffffffffffffffffffffffffffffff166113889092919063ffffffff16565b5050565b6362785980421015610a7a576040517f08c379a0000000000000000000000000000000000000000000000000000000008152600401610a7190612de4565b60405180910390fd5b6363684a804210610ac0576040517f08c379a0000000000000000000000000000000000000000000000000000000008152600401610ab790612ea4565b60405180910390fd5b6001811015610b04576040517f08c379a0000000000000000000000000000000000000000000000000000000008152600401610afb90612f44565b60405180910390fd5b6006811115610b48576040517f08c379a0000000000000000000000000000000000000000000000000000000008152600401610b3f90612f44565b60405180910390fd5b610b51426105ac565b341015610b93576040517f08c379a0000000000000000000000000000000000000000000000000000000008152600401610b8a90612e64565b60405180910390fd5b610baf338260016040518060200160405280600081525061140e565b50565b610bc4610bbd611020565b83836115a4565b5050565b6000600160008473ffffffffffffffffffffffffffffffffffffffff1673ffffffffffffffffffffffffffffffffffffffff16815260200190815260200160002060008373ffffffffffffffffffffffffffffffffffffffff1673ffffffffffffffffffffffffffffffffffffffff16815260200190815260200160002060009054906101000a900460ff16905092915050565b610c64611020565b73ffffffffffffffffffffffffffffffffffffffff168573ffffffffffffffffffffffffffffffffffffffff161480610caa5750610ca985610ca4611020565b610bc8565b5b610ce9576040517f08c379a0000000000000000000000000000000000000000000000000000000008152600401610ce090612da4565b60405180910390fd5b610cf68585858585611711565b5050505050565b60007fd9b67a26000000000000000000000000000000000000000000000000000000007bffffffffffffffffffffffffffffffffffffffffffffffffffffffff1916827bffffffffffffffffffffffffffffffffffffffffffffffffffffffff19161480610dc857507f0e89341c000000000000000000000000000000000000000000000000000000007bffffffffffffffffffffffffffffffffffffffffffffffffffffffff1916827bffffffffffffffffffffffffffffffffffffffffffffffffffffffff1916145b80610dd85750610dd782611993565b5b9050919050565b606060028054610dee90613478565b80601f0160208091040260200160405190810160405280929190818152602001828054610e1a90613478565b8015610e675780601f10610e3c57610100808354040283529160200191610e67565b820191906000526020600020905b815481529060010190602001808311610e4a57829003601f168201915b50505050509050919050565b60606000821415610ebb576040518060400160405280600181526020017f3000000000000000000000000000000000000000000000000000000000000000815250905061101b565b600082905060005b60008214610eed578080610ed6906134db565b915050600a82610ee69190613173565b9150610ec3565b60008167ffffffffffffffff811115610f2f577f4e487b7100000000000000000000000000000000000000000000000000000000600052604160045260246000fd5b6040519080825280601f01601f191660200182016040528015610f615781602001600182028036833780820191505090505b5090505b6000851461101457600182610f7a919061336f565b9150600a85610f899190613524565b6030610f95919061311d565b60f81b818381518110610fd1577f4e487b7100000000000000000000000000000000000000000000000000000000600052603260045260246000fd5b60200101907effffffffffffffffffffffffffffffffffffffffffffffffffffffffffffff1916908160001a905350600a8561100d9190613173565b9450610f65565b8093505050505b919050565b600033905090565b815183511461106c576040517f08c379a000000000000000000000000000000000000000000000000000000000815260040161106390612f64565b60405180910390fd5b600073ffffffffffffffffffffffffffffffffffffffff168473ffffffffffffffffffffffffffffffffffffffff1614156110dc576040517f08c379a00000000000000000000000000000000000000000000000000000000081526004016110d390612e04565b60405180910390fd5b60006110e6611020565b90506110f68187878787876119fd565b60005b84518110156112f357600085828151811061113d577f4e487b7100000000000000000000000000000000000000000000000000000000600052603260045260246000fd5b602002602001015190506000858381518110611182577f4e487b7100000000000000000000000000000000000000000000000000000000600052603260045260246000fd5b60200260200101519050600080600084815260200190815260200160002060008b73ffffffffffffffffffffffffffffffffffffffff1673ffffffffffffffffffffffffffffffffffffffff16815260200190815260200160002054905081811015611223576040517f08c379a000000000000000000000000000000000000000000000000000000000815260040161121a90612e44565b60405180910390fd5b81810360008085815260200190815260200160002060008c73ffffffffffffffffffffffffffffffffffffffff1673ffffffffffffffffffffffffffffffffffffffff168152602001908152602001600020819055508160008085815260200190815260200160002060008b73ffffffffffffffffffffffffffffffffffffffff1673ffffffffffffffffffffffffffffffffffffffff16815260200190815260200160002060008282546112d8919061311d565b92505081905550505050806112ec906134db565b90506110f9565b508473ffffffffffffffffffffffffffffffffffffffff168673ffffffffffffffffffffffffffffffffffffffff168273ffffffffffffffffffffffffffffffffffffffff167f4a39dc06d4c0dbc64b70af90fd698a233a518aa5d07e595d983b8c0526c8f7fb878760405161136a929190612cd0565b60405180910390a4611380818787878787611a05565b505050505050565b6114098363a9059cbb60e01b84846040516024016113a7929190612c85565b604051602081830303815290604052907bffffffffffffffffffffffffffffffffffffffffffffffffffffffff19166020820180517bffffffffffffffffffffffffffffffffffffffffffffffffffffffff8381831617835250505050611bec565b505050565b600073ffffffffffffffffffffffffffffffffffffffff168473ffffffffffffffffffffffffffffffffffffffff16141561147e576040517f08c379a000000000000000000000000000000000000000000000000000000000815260040161147590612f84565b60405180910390fd5b6000611488611020565b90506114a98160008761149a88611cb3565b6114a388611cb3565b876119fd565b8260008086815260200190815260200160002060008773ffffffffffffffffffffffffffffffffffffffff1673ffffffffffffffffffffffffffffffffffffffff1681526020019081526020016000206000828254611508919061311d565b925050819055508473ffffffffffffffffffffffffffffffffffffffff16600073ffffffffffffffffffffffffffffffffffffffff168273ffffffffffffffffffffffffffffffffffffffff167fc3d58168c5ae7397731d063d5bbf3d657854427343f4c083240f7aacaa2d0f628787604051611586929190612fbf565b60405180910390a461159d81600087878787611d79565b5050505050565b8173ffffffffffffffffffffffffffffffffffffffff168373ffffffffffffffffffffffffffffffffffffffff161415611613576040517f08c379a000000000000000000000000000000000000000000000000000000000815260040161160a90612ee4565b60405180910390fd5b80600160008573ffffffffffffffffffffffffffffffffffffffff1673ffffffffffffffffffffffffffffffffffffffff16815260200190815260200160002060008473ffffffffffffffffffffffffffffffffffffffff1673ffffffffffffffffffffffffffffffffffffffff16815260200190815260200160002060006101000a81548160ff0219169083151502179055508173ffffffffffffffffffffffffffffffffffffffff168373ffffffffffffffffffffffffffffffffffffffff167f17307eab39ab6107e8899845ad3d59bd9653f200f220920489ca2b5937696c31836040516117049190612d07565b60405180910390a3505050565b600073ffffffffffffffffffffffffffffffffffffffff168473ffffffffffffffffffffffffffffffffffffffff161415611781576040517f08c379a000000000000000000000000000000000000000000000000000000000815260040161177890612e04565b60405180910390fd5b600061178b611020565b90506117ab81878761179c88611cb3565b6117a588611cb3565b876119fd565b600080600086815260200190815260200160002060008873ffffffffffffffffffffffffffffffffffffffff1673ffffffffffffffffffffffffffffffffffffffff16815260200190815260200160002054905083811015611842576040517f08c379a000000000000000000000000000000000000000000000000000000000815260040161183990612e44565b60405180910390fd5b83810360008087815260200190815260200160002060008973ffffffffffffffffffffffffffffffffffffffff1673ffffffffffffffffffffffffffffffffffffffff168152602001908152602001600020819055508360008087815260200190815260200160002060008873ffffffffffffffffffffffffffffffffffffffff1673ffffffffffffffffffffffffffffffffffffffff16815260200190815260200160002060008282546118f7919061311d565b925050819055508573ffffffffffffffffffffffffffffffffffffffff168773ffffffffffffffffffffffffffffffffffffffff168373ffffffffffffffffffffffffffffffffffffffff167fc3d58168c5ae7397731d063d5bbf3d657854427343f4c083240f7aacaa2d0f628888604051611974929190612fbf565b60405180910390a461198a828888888888611d79565b50505050505050565b60007f01ffc9a7000000000000000000000000000000000000000000000000000000007bffffffffffffffffffffffffffffffffffffffffffffffffffffffff1916827bffffffffffffffffffffffffffffffffffffffffffffffffffffffff1916149050919050565b505050505050565b611a248473ffffffffffffffffffffffffffffffffffffffff16611f60565b15611be4578373ffffffffffffffffffffffffffffffffffffffff1663bc197c8187878686866040518663ffffffff1660e01b8152600401611a6a959493929190612bc3565b602060405180830381600087803b158015611a8457600080fd5b505af1925050508015611ab557506040513d601f19601f82011682018060405250810190611ab29190612612565b60015b611b5b57611ac1613611565b806308c379a01415611b1e5750611ad6613bcf565b80611ae15750611b20565b806040517f08c379a0000000000000000000000000000000000000000000000000000000008152600401611b159190612d22565b60405180910390fd5b505b6040517f08c379a0000000000000000000000000000000000000000000000000000000008152600401611b5290612d44565b60405180910390fd5b63bc197c8160e01b7bffffffffffffffffffffffffffffffffffffffffffffffffffffffff1916817bffffffffffffffffffffffffffffffffffffffffffffffffffffffff191614611be2576040517f08c379a0000000000000000000000000000000000000000000000000000000008152600401611bd990612d64565b60405180910390fd5b505b505050505050565b6000611c4e826040518060400160405280602081526020017f5361666545524332303a206c6f772d6c6576656c2063616c6c206661696c65648152508573ffffffffffffffffffffffffffffffffffffffff16611f839092919063ffffffff16565b9050600081511115611cae5780806020019051810190611c6e91906125c0565b611cad576040517f08c379a0000000000000000000000000000000000000000000000000000000008152600401611ca490612f04565b60405180910390fd5b5b505050565b60606000600167ffffffffffffffff811115611cf8577f4e487b7100000000000000000000000000000000000000000000000000000000600052604160045260246000fd5b604051908082528060200260200182016040528015611d265781602001602082028036833780820191505090505b5090508281600081518110611d64577f4e487b7100000000000000000000000000000000000000000000000000000000600052603260045260246000fd5b60200260200101818152505080915050919050565b611d988473ffffffffffffffffffffffffffffffffffffffff16611f60565b15611f58578373ffffffffffffffffffffffffffffffffffffffff1663f23a6e6187878686866040518663ffffffff1660e01b8152600401611dde959493929190612c2b565b602060405180830381600087803b158015611df857600080fd5b505af1925050508015611e2957506040513d601f19601f82011682018060405250810190611e269190612612565b60015b611ecf57611e35613611565b806308c379a01415611e925750611e4a613bcf565b80611e555750611e94565b806040517f08c379a0000000000000000000000000000000000000000000000000000000008152600401611e899190612d22565b60405180910390fd5b505b6040517f08c379a0000000000000000000000000000000000000000000000000000000008152600401611ec690612d44565b60405180910390fd5b63f23a6e6160e01b7bffffffffffffffffffffffffffffffffffffffffffffffffffffffff1916817bffffffffffffffffffffffffffffffffffffffffffffffffffffffff191614611f56576040517f08c379a0000000000000000000000000000000000000000000000000000000008152600401611f4d90612d64565b60405180910390fd5b505b505050505050565b6000808273ffffffffffffffffffffffffffffffffffffffff163b119050919050565b6060611f928484600085611f9b565b90509392505050565b606082471015611fe0576040517f08c379a0000000000000000000000000000000000000000000000000000000008152600401611fd790612dc4565b60405180910390fd5b611fe985611f60565b612028576040517f08c379a000000000000000000000000000000000000000000000000000000000815260040161201f90612e84565b60405180910390fd5b6000808673ffffffffffffffffffffffffffffffffffffffff1685876040516120519190612b57565b60006040518083038185875af1925050503d806000811461208e576040519150601f19603f3d011682016040523d82523d6000602084013e612093565b606091505b50915091506120a38282866120af565b92505050949350505050565b606083156120bf5782905061210f565b6000835111156120d25782518084602001fd5b816040517f08c379a00000000000000000000000000000000000000000000000000000000081526004016121069190612d22565b60405180910390fd5b9392505050565b60006121296121248461300d565b612fe8565b9050808382526020820190508285602086028201111561214857600080fd5b60005b85811015612178578161215e888261222c565b84526020840193506020830192505060018101905061214b565b5050509392505050565b600061219561219084613039565b612fe8565b905080838252602082019050828560208602820111156121b457600080fd5b60005b858110156121e457816121ca8882612328565b8452602084019350602083019250506001810190506121b7565b5050509392505050565b60006122016121fc84613065565b612fe8565b90508281526020810184848401111561221957600080fd5b612224848285613436565b509392505050565b60008135905061223b81613c65565b92915050565b600082601f83011261225257600080fd5b8135612262848260208601612116565b91505092915050565b600082601f83011261227c57600080fd5b813561228c848260208601612182565b91505092915050565b6000813590506122a481613c7c565b92915050565b6000815190506122b981613c7c565b92915050565b6000813590506122ce81613c93565b92915050565b6000815190506122e381613c93565b92915050565b600082601f8301126122fa57600080fd5b813561230a8482602086016121ee565b91505092915050565b60008135905061232281613caa565b92915050565b60008135905061233781613cc1565b92915050565b60008151905061234c81613cc1565b92915050565b6000806040838503121561236557600080fd5b60006123738582860161222c565b92505060206123848582860161222c565b9150509250929050565b600080600080600060a086880312156123a657600080fd5b60006123b48882890161222c565b95505060206123c58882890161222c565b945050604086013567ffffffffffffffff8111156123e257600080fd5b6123ee8882890161226b565b935050606086013567ffffffffffffffff81111561240b57600080fd5b6124178882890161226b565b925050608086013567ffffffffffffffff81111561243457600080fd5b612440888289016122e9565b9150509295509295909350565b600080600080600060a0868803121561246557600080fd5b60006124738882890161222c565b95505060206124848882890161222c565b945050604061249588828901612328565b93505060606124a688828901612328565b925050608086013567ffffffffffffffff8111156124c357600080fd5b6124cf888289016122e9565b9150509295509295909350565b600080604083850312156124ef57600080fd5b60006124fd8582860161222c565b925050602061250e85828601612295565b9150509250929050565b6000806040838503121561252b57600080fd5b60006125398582860161222c565b925050602061254a85828601612328565b9150509250929050565b6000806040838503121561256757600080fd5b600083013567ffffffffffffffff81111561258157600080fd5b61258d85828601612241565b925050602083013567ffffffffffffffff8111156125aa57600080fd5b6125b68582860161226b565b9150509250929050565b6000602082840312156125d257600080fd5b60006125e0848285016122aa565b91505092915050565b6000602082840312156125fb57600080fd5b6000612609848285016122bf565b91505092915050565b60006020828403121561262457600080fd5b6000612632848285016122d4565b91505092915050565b60006020828403121561264d57600080fd5b600061265b84828501612313565b91505092915050565b60006020828403121561267657600080fd5b600061268484828501612328565b91505092915050565b60006020828403121561269f57600080fd5b60006126ad8482850161233d565b91505092915050565b600080604083850312156126c957600080fd5b60006126d785828601612328565b92505060206126e885828601612328565b9150509250929050565b60006126fe8383612b39565b60208301905092915050565b612713816133a3565b82525050565b6000612724826130a6565b61272e81856130d4565b935061273983613096565b8060005b8381101561276a57815161275188826126f2565b975061275c836130c7565b92505060018101905061273d565b5085935050505092915050565b612780816133b5565b82525050565b6000612791826130b1565b61279b81856130e5565b93506127ab818560208601613445565b6127b481613633565b840191505092915050565b60006127ca826130b1565b6127d481856130f6565b93506127e4818560208601613445565b80840191505092915050565b60006127fb826130bc565b6128058185613101565b9350612815818560208601613445565b61281e81613633565b840191505092915050565b6000612834826130bc565b61283e8185613112565b935061284e818560208601613445565b80840191505092915050565b6000612867603483613101565b91506128728261365e565b604082019050919050565b600061288a602883613101565b9150612895826136ad565b604082019050919050565b60006128ad602b83613101565b91506128b8826136fc565b604082019050919050565b60006128d0602983613101565b91506128db8261374b565b604082019050919050565b60006128f3602683613101565b91506128fe8261379a565b604082019050919050565b6000612916601483613101565b9150612921826137e9565b602082019050919050565b6000612939602583613101565b915061294482613812565b604082019050919050565b600061295c603283613101565b915061296782613861565b604082019050919050565b600061297f602a83613101565b915061298a826138b0565b604082019050919050565b60006129a2600583613112565b91506129ad826138ff565b600582019050919050565b60006129c5603483613101565b91506129d082613928565b604082019050919050565b60006129e8601d83613101565b91506129f382613977565b602082019050919050565b6000612a0b601683613101565b9150612a16826139a0565b602082019050919050565b6000612a2e601683613101565b9150612a39826139c9565b602082019050919050565b6000612a51602983613101565b9150612a5c826139f2565b604082019050919050565b6000612a74602a83613101565b9150612a7f82613a41565b604082019050919050565b6000612a97602983613101565b9150612aa282613a90565b604082019050919050565b6000612aba601b83613101565b9150612ac582613adf565b602082019050919050565b6000612add602883613101565b9150612ae882613b08565b604082019050919050565b6000612b00602183613101565b9150612b0b82613b57565b604082019050919050565b6000612b23600183613112565b9150612b2e82613ba6565b600182019050919050565b612b428161341f565b82525050565b612b518161341f565b82525050565b6000612b6382846127bf565b915081905092915050565b6000612b7a8285612829565b9150612b8582612b16565b9150612b918284612829565b9150612b9c82612995565b91508190509392505050565b6000602082019050612bbd600083018461270a565b92915050565b600060a082019050612bd8600083018861270a565b612be5602083018761270a565b8181036040830152612bf78186612719565b90508181036060830152612c0b8185612719565b90508181036080830152612c1f8184612786565b90509695505050505050565b600060a082019050612c40600083018861270a565b612c4d602083018761270a565b612c5a6040830186612b48565b612c676060830185612b48565b8181036080830152612c798184612786565b90509695505050505050565b6000604082019050612c9a600083018561270a565b612ca76020830184612b48565b9392505050565b60006020820190508181036000830152612cc88184612719565b905092915050565b60006040820190508181036000830152612cea8185612719565b90508181036020830152612cfe8184612719565b90509392505050565b6000602082019050612d1c6000830184612777565b92915050565b60006020820190508181036000830152612d3c81846127f0565b905092915050565b60006020820190508181036000830152612d5d8161285a565b9050919050565b60006020820190508181036000830152612d7d8161287d565b9050919050565b60006020820190508181036000830152612d9d816128a0565b9050919050565b60006020820190508181036000830152612dbd816128c3565b9050919050565b60006020820190508181036000830152612ddd816128e6565b9050919050565b60006020820190508181036000830152612dfd81612909565b9050919050565b60006020820190508181036000830152612e1d8161292c565b9050919050565b60006020820190508181036000830152612e3d8161294f565b9050919050565b60006020820190508181036000830152612e5d81612972565b9050919050565b60006020820190508181036000830152612e7d816129b8565b9050919050565b60006020820190508181036000830152612e9d816129db565b9050919050565b60006020820190508181036000830152612ebd816129fe565b9050919050565b60006020820190508181036000830152612edd81612a21565b9050919050565b60006020820190508181036000830152612efd81612a44565b9050919050565b60006020820190508181036000830152612f1d81612a67565b9050919050565b60006020820190508181036000830152612f3d81612a8a565b9050919050565b60006020820190508181036000830152612f5d81612aad565b9050919050565b60006020820190508181036000830152612f7d81612ad0565b9050919050565b60006020820190508181036000830152612f9d81612af3565b9050919050565b6000602082019050612fb96000830184612b48565b92915050565b6000604082019050612fd46000830185612b48565b612fe16020830184612b48565b9392505050565b6000612ff2613003565b9050612ffe82826134aa565b919050565b6000604051905090565b600067ffffffffffffffff821115613028576130276135e2565b5b602082029050602081019050919050565b600067ffffffffffffffff821115613054576130536135e2565b5b602082029050602081019050919050565b600067ffffffffffffffff8211156130805761307f6135e2565b5b61308982613633565b9050602081019050919050565b6000819050602082019050919050565b600081519050919050565b600081519050919050565b600081519050919050565b6000602082019050919050565b600082825260208201905092915050565b600082825260208201905092915050565b600081905092915050565b600082825260208201905092915050565b600081905092915050565b60006131288261341f565b91506131338361341f565b9250827fffffffffffffffffffffffffffffffffffffffffffffffffffffffffffffffff0382111561316857613167613555565b5b828201905092915050565b600061317e8261341f565b91506131898361341f565b92508261319957613198613584565b5b828204905092915050565b6000808291508390505b60018511156131ee578086048111156131ca576131c9613555565b5b60018516156131d95780820291505b80810290506131e785613644565b94506131ae565b94509492505050565b60006132028261341f565b915061320d83613429565b925061323a7fffffffffffffffffffffffffffffffffffffffffffffffffffffffffffffffff8484613242565b905092915050565b600082613252576001905061330e565b81613260576000905061330e565b81600181146132765760028114613280576132af565b600191505061330e565b60ff84111561329257613291613555565b5b8360020a9150848211156132a9576132a8613555565b5b5061330e565b5060208310610133831016604e8410600b84101617156132e45782820a9050838111156132df576132de613555565b5b61330e565b6132f184848460016131a4565b9250905081840481111561330857613307613555565b5b81810290505b9392505050565b60006133208261341f565b915061332b8361341f565b9250817fffffffffffffffffffffffffffffffffffffffffffffffffffffffffffffffff048311821515161561336457613363613555565b5b828202905092915050565b600061337a8261341f565b91506133858361341f565b92508282101561339857613397613555565b5b828203905092915050565b60006133ae826133ff565b9050919050565b60008115159050919050565b60007fffffffff0000000000000000000000000000000000000000000000000000000082169050919050565b60006133f8826133a3565b9050919050565b600073ffffffffffffffffffffffffffffffffffffffff82169050919050565b6000819050919050565b600060ff82169050919050565b82818337600083830152505050565b60005b83811015613463578082015181840152602081019050613448565b83811115613472576000848401525b50505050565b6000600282049050600182168061349057607f821691505b602082108114156134a4576134a36135b3565b5b50919050565b6134b382613633565b810181811067ffffffffffffffff821117156134d2576134d16135e2565b5b80604052505050565b60006134e68261341f565b91507fffffffffffffffffffffffffffffffffffffffffffffffffffffffffffffffff82141561351957613518613555565b5b600182019050919050565b600061352f8261341f565b915061353a8361341f565b92508261354a57613549613584565b5b828206905092915050565b7f4e487b7100000000000000000000000000000000000000000000000000000000600052601160045260246000fd5b7f4e487b7100000000000000000000000000000000000000000000000000000000600052601260045260246000fd5b7f4e487b7100000000000000000000000000000000000000000000000000000000600052602260045260246000fd5b7f4e487b7100000000000000000000000000000000000000000000000000000000600052604160045260246000fd5b600060033d11156136305760046000803e61362d600051613651565b90505b90565b6000601f19601f8301169050919050565b60008160011c9050919050565b60008160e01c9050919050565b7f455243313135353a207472616e7366657220746f206e6f6e204552433131353560008201527f526563656976657220696d706c656d656e746572000000000000000000000000602082015250565b7f455243313135353a204552433131353552656365697665722072656a6563746560008201527f6420746f6b656e73000000000000000000000000000000000000000000000000602082015250565b7f455243313135353a2062616c616e636520717565727920666f7220746865207a60008201527f65726f2061646472657373000000000000000000000000000000000000000000602082015250565b7f455243313135353a2063616c6c6572206973206e6f74206f776e6572206e6f7260008201527f20617070726f7665640000000000000000000000000000000000000000000000602082015250565b7f416464726573733a20696e73756666696369656e742062616c616e636520666f60008201527f722063616c6c0000000000000000000000000000000000000000000000000000602082015250565b7f4d696e74696e67206e6f74206f70656e20796574000000000000000000000000600082015250565b7f455243313135353a207472616e7366657220746f20746865207a65726f20616460008201527f6472657373000000000000000000000000000000000000000000000000000000602082015250565b7f455243313135353a207472616e736665722063616c6c6572206973206e6f742060008201527f6f776e6572206e6f7220617070726f7665640000000000000000000000000000602082015250565b7f455243313135353a20696e73756666696369656e742062616c616e636520666f60008201527f72207472616e7366657200000000000000000000000000000000000000000000602082015250565b7f2e6a736f6e000000000000000000000000000000000000000000000000000000600082015250565b7f4e6f7420656e6f756768742076616c756520746f206d696e742c20706c65617360008201527f652075736520706c61696e207472616e73666572000000000000000000000000602082015250565b7f416464726573733a2063616c6c20746f206e6f6e2d636f6e7472616374000000600082015250565b7f4d696e74696e6720616c726561647920636c6f73656400000000000000000000600082015250565b7f4e6f2062616c616e636520746f207472616e7366657200000000000000000000600082015250565b7f455243313135353a2073657474696e6720617070726f76616c2073746174757360008201527f20666f722073656c660000000000000000000000000000000000000000000000602082015250565b7f5361666545524332303a204552433230206f7065726174696f6e20646964206e60008201527f6f74207375636365656400000000000000000000000000000000000000000000602082015250565b7f455243313135353a206163636f756e747320616e6420696473206c656e67746860008201527f206d69736d617463680000000000000000000000000000000000000000000000602082015250565b7f546869732064657369676e2069736e2774206176616c6169626c650000000000600082015250565b7f455243313135353a2069647320616e6420616d6f756e7473206c656e6774682060008201527f6d69736d61746368000000000000000000000000000000000000000000000000602082015250565b7f455243313135353a206d696e7420746f20746865207a65726f2061646472657360008201527f7300000000000000000000000000000000000000000000000000000000000000602082015250565b7f2f00000000000000000000000000000000000000000000000000000000000000600082015250565b600060443d1015613bdf57613c62565b613be7613003565b60043d036004823e80513d602482011167ffffffffffffffff82111715613c0f575050613c62565b808201805167ffffffffffffffff811115613c2d5750505050613c62565b80602083010160043d038501811115613c4a575050505050613c62565b613c59826020018501866134aa565b82955050505050505b90565b613c6e816133a3565b8114613c7957600080fd5b50565b613c85816133b5565b8114613c9057600080fd5b50565b613c9c816133c1565b8114613ca757600080fd5b50565b613cb3816133ed565b8114613cbe57600080fd5b50565b613cca8161341f565b8114613cd557600080fd5b5056fea26469706673582212201b8f8c08b5e7066041fad6c50b4ea67cd99924b27019aad37482604ae217c67664736f6c63430008040033",
  "linkReferences": {},
  "deployedLinkReferences": {}
}