{
  "_format": "hh-sol-artifact-1",
  "contractName": "Pins4Ukraine",
  "sourceName": "contracts/Pins4Ukraine.sol",
  "abi": [
    {
      "inputs": [],
      "stateMutability": "nonpayable",
      "type": "constructor"
    },
    {
      "anonymous": false,
      "inputs": [
        {
          "indexed": true,
          "internalType": "address",
          "name": "account",
          "type": "address"
        },
        {
          "indexed": true,
          "internalType": "address",
          "name": "operator",
          "type": "address"
        },
        {
          "indexed": false,
          "internalType": "bool",
          "name": "approved",
          "type": "bool"
        }
      ],
      "name": "ApprovalForAll",
      "type": "event"
    },
    {
      "anonymous": false,
      "inputs": [
        {
          "indexed": true,
          "internalType": "address",
          "name": "previousOwner",
          "type": "address"
        },
        {
          "indexed": true,
          "internalType": "address",
          "name": "newOwner",
          "type": "address"
        }
      ],
      "name": "OwnershipTransferred",
      "type": "event"
    },
    {
      "anonymous": false,
      "inputs": [
        {
          "indexed": true,
          "internalType": "address",
          "name": "operator",
          "type": "address"
        },
        {
          "indexed": true,
          "internalType": "address",
          "name": "from",
          "type": "address"
        },
        {
          "indexed": true,
          "internalType": "address",
          "name": "to",
          "type": "address"
        },
        {
          "indexed": false,
          "internalType": "uint256[]",
          "name": "ids",
          "type": "uint256[]"
        },
        {
          "indexed": false,
          "internalType": "uint256[]",
          "name": "values",
          "type": "uint256[]"
        }
      ],
      "name": "TransferBatch",
      "type": "event"
    },
    {
      "anonymous": false,
      "inputs": [
        {
          "indexed": true,
          "internalType": "address",
          "name": "operator",
          "type": "address"
        },
        {
          "indexed": true,
          "internalType": "address",
          "name": "from",
          "type": "address"
        },
        {
          "indexed": true,
          "internalType": "address",
          "name": "to",
          "type": "address"
        },
        {
          "indexed": false,
          "internalType": "uint256",
          "name": "id",
          "type": "uint256"
        },
        {
          "indexed": false,
          "internalType": "uint256",
          "name": "value",
          "type": "uint256"
        }
      ],
      "name": "TransferSingle",
      "type": "event"
    },
    {
      "anonymous": false,
      "inputs": [
        {
          "indexed": false,
          "internalType": "string",
          "name": "value",
          "type": "string"
        },
        {
          "indexed": true,
          "internalType": "uint256",
          "name": "id",
          "type": "uint256"
        }
      ],
      "name": "URI",
      "type": "event"
    },
    {
      "stateMutability": "payable",
      "type": "fallback"
    },
    {
      "inputs": [
        {
          "internalType": "address",
          "name": "account",
          "type": "address"
        },
        {
          "internalType": "uint256",
          "name": "id",
          "type": "uint256"
        }
      ],
      "name": "balanceOf",
      "outputs": [
        {
          "internalType": "uint256",
          "name": "",
          "type": "uint256"
        }
      ],
      "stateMutability": "view",
      "type": "function"
    },
    {
      "inputs": [
        {
          "internalType": "address[]",
          "name": "accounts",
          "type": "address[]"
        },
        {
          "internalType": "uint256[]",
          "name": "ids",
          "type": "uint256[]"
        }
      ],
      "name": "balanceOfBatch",
      "outputs": [
        {
          "internalType": "uint256[]",
          "name": "",
          "type": "uint256[]"
        }
      ],
      "stateMutability": "view",
      "type": "function"
    },
    {
      "inputs": [],
      "name": "currentTokenPrice",
      "outputs": [
        {
          "internalType": "uint256",
          "name": "",
          "type": "uint256"
        }
      ],
      "stateMutability": "view",
      "type": "function"
    },
    {
      "inputs": [],
      "name": "firstOpenDesign",
      "outputs": [
        {
          "internalType": "uint256",
          "name": "",
          "type": "uint256"
        }
      ],
      "stateMutability": "view",
      "type": "function"
    },
    {
      "inputs": [
        {
          "internalType": "address",
          "name": "account",
          "type": "address"
        },
        {
          "internalType": "address",
          "name": "operator",
          "type": "address"
        }
      ],
      "name": "isApprovedForAll",
      "outputs": [
        {
          "internalType": "bool",
          "name": "",
          "type": "bool"
        }
      ],
      "stateMutability": "view",
      "type": "function"
    },
    {
      "inputs": [],
      "name": "lastOpenDesign",
      "outputs": [
        {
          "internalType": "uint256",
          "name": "",
          "type": "uint256"
        }
      ],
      "stateMutability": "view",
      "type": "function"
    },
    {
      "inputs": [
        {
          "internalType": "uint256",
          "name": "_tokenId",
          "type": "uint256"
        }
      ],
      "name": "mint",
      "outputs": [],
      "stateMutability": "payable",
      "type": "function"
    },
    {
      "inputs": [],
      "name": "mintOpenSince",
      "outputs": [
        {
          "internalType": "uint256",
          "name": "",
          "type": "uint256"
        }
      ],
      "stateMutability": "view",
      "type": "function"
    },
    {
      "inputs": [],
      "name": "mintOpenUntil",
      "outputs": [
        {
          "internalType": "uint256",
          "name": "",
          "type": "uint256"
        }
      ],
      "stateMutability": "view",
      "type": "function"
    },
    {
      "inputs": [],
      "name": "owner",
      "outputs": [
        {
          "internalType": "address",
          "name": "",
          "type": "address"
        }
      ],
      "stateMutability": "view",
      "type": "function"
    },
    {
      "inputs": [],
      "name": "renounceOwnership",
      "outputs": [],
      "stateMutability": "nonpayable",
      "type": "function"
    },
    {
      "inputs": [
        {
          "internalType": "uint256",
          "name": "",
          "type": "uint256"
        },
        {
          "internalType": "uint256",
          "name": "_salePrice",
          "type": "uint256"
        }
      ],
      "name": "royaltyInfo",
      "outputs": [
        {
          "internalType": "address",
          "name": "",
          "type": "address"
        },
        {
          "internalType": "uint256",
          "name": "",
          "type": "uint256"
        }
      ],
      "stateMutability": "pure",
      "type": "function"
    },
    {
      "inputs": [
        {
          "internalType": "address",
          "name": "from",
          "type": "address"
        },
        {
          "internalType": "address",
          "name": "to",
          "type": "address"
        },
        {
          "internalType": "uint256[]",
          "name": "ids",
          "type": "uint256[]"
        },
        {
          "internalType": "uint256[]",
          "name": "amounts",
          "type": "uint256[]"
        },
        {
          "internalType": "bytes",
          "name": "data",
          "type": "bytes"
        }
      ],
      "name": "safeBatchTransferFrom",
      "outputs": [],
      "stateMutability": "nonpayable",
      "type": "function"
    },
    {
      "inputs": [
        {
          "internalType": "address",
          "name": "from",
          "type": "address"
        },
        {
          "internalType": "address",
          "name": "to",
          "type": "address"
        },
        {
          "internalType": "uint256",
          "name": "id",
          "type": "uint256"
        },
        {
          "internalType": "uint256",
          "name": "amount",
          "type": "uint256"
        },
        {
          "internalType": "bytes",
          "name": "data",
          "type": "bytes"
        }
      ],
      "name": "safeTransferFrom",
      "outputs": [],
      "stateMutability": "nonpayable",
      "type": "function"
    },
    {
      "inputs": [
        {
          "internalType": "address",
          "name": "operator",
          "type": "address"
        },
        {
          "internalType": "bool",
          "name": "approved",
          "type": "bool"
        }
      ],
      "name": "setApprovalForAll",
      "outputs": [],
      "stateMutability": "nonpayable",
      "type": "function"
    },
    {
      "inputs": [
        {
          "internalType": "uint256",
          "name": "_mintOpenSince",
          "type": "uint256"
        }
      ],
      "name": "setMintOpenSince",
      "outputs": [],
      "stateMutability": "nonpayable",
      "type": "function"
    },
    {
      "inputs": [
        {
          "internalType": "uint256",
          "name": "_mintOpenUntil",
          "type": "uint256"
        }
      ],
      "name": "setMintOpenUntil",
      "outputs": [],
      "stateMutability": "nonpayable",
      "type": "function"
    },
    {
      "inputs": [
        {
          "internalType": "uint256",
          "name": "_firstOpenDesign",
          "type": "uint256"
        },
        {
          "internalType": "uint256",
          "name": "_lastOpenDesign",
          "type": "uint256"
        }
      ],
      "name": "setOpenDesigns",
      "outputs": [],
      "stateMutability": "nonpayable",
      "type": "function"
    },
    {
      "inputs": [
        {
          "internalType": "bytes4",
          "name": "_interfaceId",
          "type": "bytes4"
        }
      ],
      "name": "supportsInterface",
      "outputs": [
        {
          "internalType": "bool",
          "name": "",
          "type": "bool"
        }
      ],
      "stateMutability": "view",
      "type": "function"
    },
    {
      "inputs": [
        {
          "internalType": "address",
          "name": "newOwner",
          "type": "address"
        }
      ],
      "name": "transferOwnership",
      "outputs": [],
      "stateMutability": "nonpayable",
      "type": "function"
    },
    {
      "inputs": [],
      "name": "transferSupport",
      "outputs": [],
      "stateMutability": "nonpayable",
      "type": "function"
    },
    {
      "inputs": [
        {
          "internalType": "contract IERC20",
          "name": "_token",
          "type": "address"
        }
      ],
      "name": "transferSupportERC20",
      "outputs": [],
      "stateMutability": "nonpayable",
      "type": "function"
    },
    {
      "inputs": [
        {
          "internalType": "uint256",
          "name": "_tokenId",
          "type": "uint256"
        }
      ],
      "name": "uri",
      "outputs": [
        {
          "internalType": "string",
          "name": "",
          "type": "string"
        }
      ],
      "stateMutability": "view",
      "type": "function"
    },
    {
      "stateMutability": "payable",
      "type": "receive"
    }
  ],
  "bytecode": "0x608060405260006004556000600555600060065560006007553480156200002557600080fd5b506040518060400160405280601f81526020017f68747470733a2f2f70696e7334756b7261696e652e636f6d2f617373657473008152506200006d816200009460201b60201c565b506200008e62000082620000b060201b60201c565b620000b860201b60201c565b62000293565b8060029080519060200190620000ac9291906200017e565b5050565b600033905090565b6000600360009054906101000a900473ffffffffffffffffffffffffffffffffffffffff16905081600360006101000a81548173ffffffffffffffffffffffffffffffffffffffff021916908373ffffffffffffffffffffffffffffffffffffffff1602179055508173ffffffffffffffffffffffffffffffffffffffff168173ffffffffffffffffffffffffffffffffffffffff167f8be0079c531659141344cd1fd0a4f28419497f9722a3daafe3b4186f6b6457e060405160405180910390a35050565b8280546200018c906200022e565b90600052602060002090601f016020900481019282620001b05760008555620001fc565b82601f10620001cb57805160ff1916838001178555620001fc565b82800160010185558215620001fc579182015b82811115620001fb578251825591602001919060010190620001de565b5b5090506200020b91906200020f565b5090565b5b808211156200022a57600081600090555060010162000210565b5090565b600060028204905060018216806200024757607f821691505b602082108114156200025e576200025d62000264565b5b50919050565b7f4e487b7100000000000000000000000000000000000000000000000000000000600052602260045260246000fd5b61430a80620002a36000396000f3fe6080604052600436106101435760003560e01c806354867ad6116100b6578063a0712d681161006f578063a0712d6814610452578063a22cb4651461046e578063d0c5f4b914610497578063e985e9c5146104c0578063f242432a146104fd578063f2fde38b146105265761014a565b806354867ad6146103685780635880d2821461039157806362c82d83146103bc578063715018a6146103e557806371b3659e146103fc5780638da5cb5b146104275761014a565b80632eb2c2d6116101085780632eb2c2d61461026c5780633718198a146102955780633a476672146102ac5780633cac2ff0146102d55780634e03fa25146103005780634e1273f41461032b5761014a565b8062fdd58e1461014c57806301ffc9a7146101895780630c11eeb1146101c65780630e89341c146101f15780632a55205a1461022e5761014a565b3661014a57005b005b34801561015857600080fd5b50610173600480360381019061016e9190612b35565b61054f565b604051610180919061368a565b60405180910390f35b34801561019557600080fd5b506101b060048036038101906101ab9190612c06565b610618565b6040516101bd919061338d565b60405180910390f35b3480156101d257600080fd5b506101db610692565b6040516101e8919061368a565b60405180910390f35b3480156101fd57600080fd5b5061021860048036038101906102139190612c81565b610698565b60405161022591906133a8565b60405180910390f35b34801561023a57600080fd5b5061025560048036038101906102509190612cd3565b6106d3565b60405161026392919061330b565b60405180910390f35b34801561027857600080fd5b50610293600480360381019061028e91906129ab565b61070f565b005b3480156102a157600080fd5b506102aa6107b0565b005b3480156102b857600080fd5b506102d360048036038101906102ce9190612cd3565b610856565b005b3480156102e157600080fd5b506102ea6108e4565b6040516102f7919061368a565b60405180910390f35b34801561030c57600080fd5b506103156108ea565b604051610322919061368a565b60405180910390f35b34801561033757600080fd5b50610352600480360381019061034d9190612b71565b6108f0565b60405161035f9190613334565b60405180910390f35b34801561037457600080fd5b5061038f600480360381019061038a9190612c81565b610aa1565b005b34801561039d57600080fd5b506103a6610b27565b6040516103b3919061368a565b60405180910390f35b3480156103c857600080fd5b506103e360048036038101906103de9190612c58565b610b2d565b005b3480156103f157600080fd5b506103fa610c40565b005b34801561040857600080fd5b50610411610cc8565b60405161041e919061368a565b60405180910390f35b34801561043357600080fd5b5061043c610d4e565b604051610449919061322e565b60405180910390f35b61046c60048036038101906104679190612c81565b610d78565b005b34801561047a57600080fd5b5061049560048036038101906104909190612af9565b610f62565b005b3480156104a357600080fd5b506104be60048036038101906104b99190612c81565b610f78565b005b3480156104cc57600080fd5b506104e760048036038101906104e2919061296f565b610ffe565b6040516104f4919061338d565b60405180910390f35b34801561050957600080fd5b50610524600480360381019061051f9190612a6a565b611092565b005b34801561053257600080fd5b5061054d60048036038101906105489190612946565b611133565b005b60008073ffffffffffffffffffffffffffffffffffffffff168373ffffffffffffffffffffffffffffffffffffffff1614156105c0576040517f08c379a00000000000000000000000000000000000000000000000000000000081526004016105b79061342a565b60405180910390fd5b60008083815260200190815260200160002060008473ffffffffffffffffffffffffffffffffffffffff1673ffffffffffffffffffffffffffffffffffffffff16815260200190815260200160002054905092915050565b60007f2a55205a000000000000000000000000000000000000000000000000000000007bffffffffffffffffffffffffffffffffffffffffffffffffffffffff1916827bffffffffffffffffffffffffffffffffffffffffffffffffffffffff1916148061068b575061068a8261122b565b5b9050919050565b60055481565b60606106a38261130d565b6106ac836113a1565b6040516020016106bd9291906131f4565b6040516020818303038152906040529050919050565b60008073165cd37b4c644c2921454429e7f9358d18a45e1460646005856106fa919061388a565b6107049190613859565b915091509250929050565b61071761154e565b73ffffffffffffffffffffffffffffffffffffffff168573ffffffffffffffffffffffffffffffffffffffff16148061075d575061075c8561075761154e565b610ffe565b5b61079c576040517f08c379a00000000000000000000000000000000000000000000000000000000081526004016107939061350a565b60405180910390fd5b6107a98585858585611556565b5050505050565b6000479050600081116107f8576040517f08c379a00000000000000000000000000000000000000000000000000000000081526004016107ef906135aa565b60405180910390fd5b73165cd37b4c644c2921454429e7f9358d18a45e1473ffffffffffffffffffffffffffffffffffffffff166108fc829081150290604051600060405180830381858888f19350505050158015610852573d6000803e3d6000fd5b5050565b61085e61154e565b73ffffffffffffffffffffffffffffffffffffffff1661087c610d4e565b73ffffffffffffffffffffffffffffffffffffffff16146108d2576040517f08c379a00000000000000000000000000000000000000000000000000000000081526004016108c99061354a565b60405180910390fd5b81600481905550806005819055505050565b60065481565b60045481565b60608151835114610936576040517f08c379a000000000000000000000000000000000000000000000000000000000815260040161092d9061360a565b60405180910390fd5b6000835167ffffffffffffffff811115610979577f4e487b7100000000000000000000000000000000000000000000000000000000600052604160045260246000fd5b6040519080825280602002602001820160405280156109a75781602001602082028036833780820191505090505b50905060005b8451811015610a9657610a408582815181106109f2577f4e487b7100000000000000000000000000000000000000000000000000000000600052603260045260246000fd5b6020026020010151858381518110610a33577f4e487b7100000000000000000000000000000000000000000000000000000000600052603260045260246000fd5b602002602001015161054f565b828281518110610a79577f4e487b7100000000000000000000000000000000000000000000000000000000600052603260045260246000fd5b60200260200101818152505080610a8f90613a43565b90506109ad565b508091505092915050565b610aa961154e565b73ffffffffffffffffffffffffffffffffffffffff16610ac7610d4e565b73ffffffffffffffffffffffffffffffffffffffff1614610b1d576040517f08c379a0000000000000000000000000000000000000000000000000000000008152600401610b149061354a565b60405180910390fd5b8060078190555050565b60075481565b60008173ffffffffffffffffffffffffffffffffffffffff166370a08231306040518263ffffffff1660e01b8152600401610b68919061322e565b60206040518083038186803b158015610b8057600080fd5b505afa158015610b94573d6000803e3d6000fd5b505050506040513d601f19601f82011682018060405250810190610bb89190612caa565b905060008111610bfd576040517f08c379a0000000000000000000000000000000000000000000000000000000008152600401610bf4906135aa565b60405180910390fd5b610c3c73165cd37b4c644c2921454429e7f9358d18a45e14828473ffffffffffffffffffffffffffffffffffffffff166118b69092919063ffffffff16565b5050565b610c4861154e565b73ffffffffffffffffffffffffffffffffffffffff16610c66610d4e565b73ffffffffffffffffffffffffffffffffffffffff1614610cbc576040517f08c379a0000000000000000000000000000000000000000000000000000000008152600401610cb39061354a565b60405180910390fd5b610cc6600061193c565b565b6000600654421015610d0f576040517f08c379a0000000000000000000000000000000000000000000000000000000008152600401610d06906134aa565b60405180910390fd5b600060065442610d1f91906138e4565b905060006203f48082610d329190613859565b9050662386f26fc1000081610d47919061388a565b9250505090565b6000600360009054906101000a900473ffffffffffffffffffffffffffffffffffffffff16905090565b6000600654118015610d8c57506000600454115b8015610d9a57506000600554115b610dd9576040517f08c379a0000000000000000000000000000000000000000000000000000000008152600401610dd09061340a565b60405180910390fd5b600654421015610e1e576040517f08c379a0000000000000000000000000000000000000000000000000000000008152600401610e15906134aa565b60405180910390fd5b60006007541480610e30575060075442105b610e6f576040517f08c379a0000000000000000000000000000000000000000000000000000000008152600401610e66906134ca565b60405180910390fd5b600454811015610eb4576040517f08c379a0000000000000000000000000000000000000000000000000000000008152600401610eab9061362a565b60405180910390fd5b600554811115610ef9576040517f08c379a0000000000000000000000000000000000000000000000000000000008152600401610ef09061362a565b60405180910390fd5b610f01610cc8565b341015610f43576040517f08c379a0000000000000000000000000000000000000000000000000000000008152600401610f3a9061356a565b60405180910390fd5b610f5f3382600160405180602001604052806000815250611a02565b50565b610f74610f6d61154e565b8383611b98565b5050565b610f8061154e565b73ffffffffffffffffffffffffffffffffffffffff16610f9e610d4e565b73ffffffffffffffffffffffffffffffffffffffff1614610ff4576040517f08c379a0000000000000000000000000000000000000000000000000000000008152600401610feb9061354a565b60405180910390fd5b8060068190555050565b6000600160008473ffffffffffffffffffffffffffffffffffffffff1673ffffffffffffffffffffffffffffffffffffffff16815260200190815260200160002060008373ffffffffffffffffffffffffffffffffffffffff1673ffffffffffffffffffffffffffffffffffffffff16815260200190815260200160002060009054906101000a900460ff16905092915050565b61109a61154e565b73ffffffffffffffffffffffffffffffffffffffff168573ffffffffffffffffffffffffffffffffffffffff1614806110e057506110df856110da61154e565b610ffe565b5b61111f576040517f08c379a00000000000000000000000000000000000000000000000000000000081526004016111169061346a565b60405180910390fd5b61112c8585858585611d05565b5050505050565b61113b61154e565b73ffffffffffffffffffffffffffffffffffffffff16611159610d4e565b73ffffffffffffffffffffffffffffffffffffffff16146111af576040517f08c379a00000000000000000000000000000000000000000000000000000000081526004016111a69061354a565b60405180910390fd5b600073ffffffffffffffffffffffffffffffffffffffff168173ffffffffffffffffffffffffffffffffffffffff16141561121f576040517f08c379a00000000000000000000000000000000000000000000000000000000081526004016112169061344a565b60405180910390fd5b6112288161193c565b50565b60007fd9b67a26000000000000000000000000000000000000000000000000000000007bffffffffffffffffffffffffffffffffffffffffffffffffffffffff1916827bffffffffffffffffffffffffffffffffffffffffffffffffffffffff191614806112f657507f0e89341c000000000000000000000000000000000000000000000000000000007bffffffffffffffffffffffffffffffffffffffffffffffffffffffff1916827bffffffffffffffffffffffffffffffffffffffffffffffffffffffff1916145b80611306575061130582611f87565b5b9050919050565b60606002805461131c906139e0565b80601f0160208091040260200160405190810160405280929190818152602001828054611348906139e0565b80156113955780601f1061136a57610100808354040283529160200191611395565b820191906000526020600020905b81548152906001019060200180831161137857829003601f168201915b50505050509050919050565b606060008214156113e9576040518060400160405280600181526020017f30000000000000000000000000000000000000000000000000000000000000008152509050611549565b600082905060005b6000821461141b57808061140490613a43565b915050600a826114149190613859565b91506113f1565b60008167ffffffffffffffff81111561145d577f4e487b7100000000000000000000000000000000000000000000000000000000600052604160045260246000fd5b6040519080825280601f01601f19166020018201604052801561148f5781602001600182028036833780820191505090505b5090505b60008514611542576001826114a891906138e4565b9150600a856114b79190613a8c565b60306114c39190613803565b60f81b8183815181106114ff577f4e487b7100000000000000000000000000000000000000000000000000000000600052603260045260246000fd5b60200101907effffffffffffffffffffffffffffffffffffffffffffffffffffffffffffff1916908160001a905350600a8561153b9190613859565b9450611493565b8093505050505b919050565b600033905090565b815183511461159a576040517f08c379a00000000000000000000000000000000000000000000000000000000081526004016115919061364a565b60405180910390fd5b600073ffffffffffffffffffffffffffffffffffffffff168473ffffffffffffffffffffffffffffffffffffffff16141561160a576040517f08c379a0000000000000000000000000000000000000000000000000000000008152600401611601906134ea565b60405180910390fd5b600061161461154e565b9050611624818787878787611ff1565b60005b845181101561182157600085828151811061166b577f4e487b7100000000000000000000000000000000000000000000000000000000600052603260045260246000fd5b6020026020010151905060008583815181106116b0577f4e487b7100000000000000000000000000000000000000000000000000000000600052603260045260246000fd5b60200260200101519050600080600084815260200190815260200160002060008b73ffffffffffffffffffffffffffffffffffffffff1673ffffffffffffffffffffffffffffffffffffffff16815260200190815260200160002054905081811015611751576040517f08c379a00000000000000000000000000000000000000000000000000000000081526004016117489061352a565b60405180910390fd5b81810360008085815260200190815260200160002060008c73ffffffffffffffffffffffffffffffffffffffff1673ffffffffffffffffffffffffffffffffffffffff168152602001908152602001600020819055508160008085815260200190815260200160002060008b73ffffffffffffffffffffffffffffffffffffffff1673ffffffffffffffffffffffffffffffffffffffff16815260200190815260200160002060008282546118069190613803565b925050819055505050508061181a90613a43565b9050611627565b508473ffffffffffffffffffffffffffffffffffffffff168673ffffffffffffffffffffffffffffffffffffffff168273ffffffffffffffffffffffffffffffffffffffff167f4a39dc06d4c0dbc64b70af90fd698a233a518aa5d07e595d983b8c0526c8f7fb8787604051611898929190613356565b60405180910390a46118ae818787878787611ff9565b505050505050565b6119378363a9059cbb60e01b84846040516024016118d592919061330b565b604051602081830303815290604052907bffffffffffffffffffffffffffffffffffffffffffffffffffffffff19166020820180517bffffffffffffffffffffffffffffffffffffffffffffffffffffffff83818316178352505050506121e0565b505050565b6000600360009054906101000a900473ffffffffffffffffffffffffffffffffffffffff16905081600360006101000a81548173ffffffffffffffffffffffffffffffffffffffff021916908373ffffffffffffffffffffffffffffffffffffffff1602179055508173ffffffffffffffffffffffffffffffffffffffff168173ffffffffffffffffffffffffffffffffffffffff167f8be0079c531659141344cd1fd0a4f28419497f9722a3daafe3b4186f6b6457e060405160405180910390a35050565b600073ffffffffffffffffffffffffffffffffffffffff168473ffffffffffffffffffffffffffffffffffffffff161415611a72576040517f08c379a0000000000000000000000000000000000000000000000000000000008152600401611a699061366a565b60405180910390fd5b6000611a7c61154e565b9050611a9d81600087611a8e886122a7565b611a97886122a7565b87611ff1565b8260008086815260200190815260200160002060008773ffffffffffffffffffffffffffffffffffffffff1673ffffffffffffffffffffffffffffffffffffffff1681526020019081526020016000206000828254611afc9190613803565b925050819055508473ffffffffffffffffffffffffffffffffffffffff16600073ffffffffffffffffffffffffffffffffffffffff168273ffffffffffffffffffffffffffffffffffffffff167fc3d58168c5ae7397731d063d5bbf3d657854427343f4c083240f7aacaa2d0f628787604051611b7a9291906136a5565b60405180910390a4611b918160008787878761236d565b5050505050565b8173ffffffffffffffffffffffffffffffffffffffff168373ffffffffffffffffffffffffffffffffffffffff161415611c07576040517f08c379a0000000000000000000000000000000000000000000000000000000008152600401611bfe906135ca565b60405180910390fd5b80600160008573ffffffffffffffffffffffffffffffffffffffff1673ffffffffffffffffffffffffffffffffffffffff16815260200190815260200160002060008473ffffffffffffffffffffffffffffffffffffffff1673ffffffffffffffffffffffffffffffffffffffff16815260200190815260200160002060006101000a81548160ff0219169083151502179055508173ffffffffffffffffffffffffffffffffffffffff168373ffffffffffffffffffffffffffffffffffffffff167f17307eab39ab6107e8899845ad3d59bd9653f200f220920489ca2b5937696c3183604051611cf8919061338d565b60405180910390a3505050565b600073ffffffffffffffffffffffffffffffffffffffff168473ffffffffffffffffffffffffffffffffffffffff161415611d75576040517f08c379a0000000000000000000000000000000000000000000000000000000008152600401611d6c906134ea565b60405180910390fd5b6000611d7f61154e565b9050611d9f818787611d90886122a7565b611d99886122a7565b87611ff1565b600080600086815260200190815260200160002060008873ffffffffffffffffffffffffffffffffffffffff1673ffffffffffffffffffffffffffffffffffffffff16815260200190815260200160002054905083811015611e36576040517f08c379a0000000000000000000000000000000000000000000000000000000008152600401611e2d9061352a565b60405180910390fd5b83810360008087815260200190815260200160002060008973ffffffffffffffffffffffffffffffffffffffff1673ffffffffffffffffffffffffffffffffffffffff168152602001908152602001600020819055508360008087815260200190815260200160002060008873ffffffffffffffffffffffffffffffffffffffff1673ffffffffffffffffffffffffffffffffffffffff1681526020019081526020016000206000828254611eeb9190613803565b925050819055508573ffffffffffffffffffffffffffffffffffffffff168773ffffffffffffffffffffffffffffffffffffffff168373ffffffffffffffffffffffffffffffffffffffff167fc3d58168c5ae7397731d063d5bbf3d657854427343f4c083240f7aacaa2d0f628888604051611f689291906136a5565b60405180910390a4611f7e82888888888861236d565b50505050505050565b60007f01ffc9a7000000000000000000000000000000000000000000000000000000007bffffffffffffffffffffffffffffffffffffffffffffffffffffffff1916827bffffffffffffffffffffffffffffffffffffffffffffffffffffffff1916149050919050565b505050505050565b6120188473ffffffffffffffffffffffffffffffffffffffff16612554565b156121d8578373ffffffffffffffffffffffffffffffffffffffff1663bc197c8187878686866040518663ffffffff1660e01b815260040161205e959493929190613249565b602060405180830381600087803b15801561207857600080fd5b505af19250505080156120a957506040513d601f19601f820116820180604052508101906120a69190612c2f565b60015b61214f576120b5613b79565b806308c379a0141561211257506120ca6141cb565b806120d55750612114565b806040517f08c379a000000000000000000000000000000000000000000000000000000000815260040161210991906133a8565b60405180910390fd5b505b6040517f08c379a0000000000000000000000000000000000000000000000000000000008152600401612146906133ca565b60405180910390fd5b63bc197c8160e01b7bffffffffffffffffffffffffffffffffffffffffffffffffffffffff1916817bffffffffffffffffffffffffffffffffffffffffffffffffffffffff1916146121d6576040517f08c379a00000000000000000000000000000000000000000000000000000000081526004016121cd906133ea565b60405180910390fd5b505b505050505050565b6000612242826040518060400160405280602081526020017f5361666545524332303a206c6f772d6c6576656c2063616c6c206661696c65648152508573ffffffffffffffffffffffffffffffffffffffff166125779092919063ffffffff16565b90506000815111156122a257808060200190518101906122629190612bdd565b6122a1576040517f08c379a0000000000000000000000000000000000000000000000000000000008152600401612298906135ea565b60405180910390fd5b5b505050565b60606000600167ffffffffffffffff8111156122ec577f4e487b7100000000000000000000000000000000000000000000000000000000600052604160045260246000fd5b60405190808252806020026020018201604052801561231a5781602001602082028036833780820191505090505b5090508281600081518110612358577f4e487b7100000000000000000000000000000000000000000000000000000000600052603260045260246000fd5b60200260200101818152505080915050919050565b61238c8473ffffffffffffffffffffffffffffffffffffffff16612554565b1561254c578373ffffffffffffffffffffffffffffffffffffffff1663f23a6e6187878686866040518663ffffffff1660e01b81526004016123d29594939291906132b1565b602060405180830381600087803b1580156123ec57600080fd5b505af192505050801561241d57506040513d601f19601f8201168201806040525081019061241a9190612c2f565b60015b6124c357612429613b79565b806308c379a01415612486575061243e6141cb565b806124495750612488565b806040517f08c379a000000000000000000000000000000000000000000000000000000000815260040161247d91906133a8565b60405180910390fd5b505b6040517f08c379a00000000000000000000000000000000000000000000000000000000081526004016124ba906133ca565b60405180910390fd5b63f23a6e6160e01b7bffffffffffffffffffffffffffffffffffffffffffffffffffffffff1916817bffffffffffffffffffffffffffffffffffffffffffffffffffffffff19161461254a576040517f08c379a0000000000000000000000000000000000000000000000000000000008152600401612541906133ea565b60405180910390fd5b505b505050505050565b6000808273ffffffffffffffffffffffffffffffffffffffff163b119050919050565b6060612586848460008561258f565b90509392505050565b6060824710156125d4576040517f08c379a00000000000000000000000000000000000000000000000000000000081526004016125cb9061348a565b60405180910390fd5b6125dd85612554565b61261c576040517f08c379a00000000000000000000000000000000000000000000000000000000081526004016126139061358a565b60405180910390fd5b6000808673ffffffffffffffffffffffffffffffffffffffff16858760405161264591906131dd565b60006040518083038185875af1925050503d8060008114612682576040519150601f19603f3d011682016040523d82523d6000602084013e612687565b606091505b50915091506126978282866126a3565b92505050949350505050565b606083156126b357829050612703565b6000835111156126c65782518084602001fd5b816040517f08c379a00000000000000000000000000000000000000000000000000000000081526004016126fa91906133a8565b60405180910390fd5b9392505050565b600061271d612718846136f3565b6136ce565b9050808382526020820190508285602086028201111561273c57600080fd5b60005b8581101561276c57816127528882612820565b84526020840193506020830192505060018101905061273f565b5050509392505050565b60006127896127848461371f565b6136ce565b905080838252602082019050828560208602820111156127a857600080fd5b60005b858110156127d857816127be888261291c565b8452602084019350602083019250506001810190506127ab565b5050509392505050565b60006127f56127f08461374b565b6136ce565b90508281526020810184848401111561280d57600080fd5b61281884828561399e565b509392505050565b60008135905061282f81614261565b92915050565b600082601f83011261284657600080fd5b813561285684826020860161270a565b91505092915050565b600082601f83011261287057600080fd5b8135612880848260208601612776565b91505092915050565b60008135905061289881614278565b92915050565b6000815190506128ad81614278565b92915050565b6000813590506128c28161428f565b92915050565b6000815190506128d78161428f565b92915050565b600082601f8301126128ee57600080fd5b81356128fe8482602086016127e2565b91505092915050565b600081359050612916816142a6565b92915050565b60008135905061292b816142bd565b92915050565b600081519050612940816142bd565b92915050565b60006020828403121561295857600080fd5b600061296684828501612820565b91505092915050565b6000806040838503121561298257600080fd5b600061299085828601612820565b92505060206129a185828601612820565b9150509250929050565b600080600080600060a086880312156129c357600080fd5b60006129d188828901612820565b95505060206129e288828901612820565b945050604086013567ffffffffffffffff8111156129ff57600080fd5b612a0b8882890161285f565b935050606086013567ffffffffffffffff811115612a2857600080fd5b612a348882890161285f565b925050608086013567ffffffffffffffff811115612a5157600080fd5b612a5d888289016128dd565b9150509295509295909350565b600080600080600060a08688031215612a8257600080fd5b6000612a9088828901612820565b9550506020612aa188828901612820565b9450506040612ab28882890161291c565b9350506060612ac38882890161291c565b925050608086013567ffffffffffffffff811115612ae057600080fd5b612aec888289016128dd565b9150509295509295909350565b60008060408385031215612b0c57600080fd5b6000612b1a85828601612820565b9250506020612b2b85828601612889565b9150509250929050565b60008060408385031215612b4857600080fd5b6000612b5685828601612820565b9250506020612b678582860161291c565b9150509250929050565b60008060408385031215612b8457600080fd5b600083013567ffffffffffffffff811115612b9e57600080fd5b612baa85828601612835565b925050602083013567ffffffffffffffff811115612bc757600080fd5b612bd38582860161285f565b9150509250929050565b600060208284031215612bef57600080fd5b6000612bfd8482850161289e565b91505092915050565b600060208284031215612c1857600080fd5b6000612c26848285016128b3565b91505092915050565b600060208284031215612c4157600080fd5b6000612c4f848285016128c8565b91505092915050565b600060208284031215612c6a57600080fd5b6000612c7884828501612907565b91505092915050565b600060208284031215612c9357600080fd5b6000612ca18482850161291c565b91505092915050565b600060208284031215612cbc57600080fd5b6000612cca84828501612931565b91505092915050565b60008060408385031215612ce657600080fd5b6000612cf48582860161291c565b9250506020612d058582860161291c565b9150509250929050565b6000612d1b83836131bf565b60208301905092915050565b612d3081613918565b82525050565b6000612d418261378c565b612d4b81856137ba565b9350612d568361377c565b8060005b83811015612d87578151612d6e8882612d0f565b9750612d79836137ad565b925050600181019050612d5a565b5085935050505092915050565b612d9d8161392a565b82525050565b6000612dae82613797565b612db881856137cb565b9350612dc88185602086016139ad565b612dd181613b9b565b840191505092915050565b6000612de782613797565b612df181856137dc565b9350612e018185602086016139ad565b80840191505092915050565b6000612e18826137a2565b612e2281856137e7565b9350612e328185602086016139ad565b612e3b81613b9b565b840191505092915050565b6000612e51826137a2565b612e5b81856137f8565b9350612e6b8185602086016139ad565b80840191505092915050565b6000612e846034836137e7565b9150612e8f82613bb9565b604082019050919050565b6000612ea76028836137e7565b9150612eb282613c08565b604082019050919050565b6000612eca6013836137e7565b9150612ed582613c57565b602082019050919050565b6000612eed602b836137e7565b9150612ef882613c80565b604082019050919050565b6000612f106026836137e7565b9150612f1b82613ccf565b604082019050919050565b6000612f336029836137e7565b9150612f3e82613d1e565b604082019050919050565b6000612f566026836137e7565b9150612f6182613d6d565b604082019050919050565b6000612f796014836137e7565b9150612f8482613dbc565b602082019050919050565b6000612f9c601a836137e7565b9150612fa782613de5565b602082019050919050565b6000612fbf6025836137e7565b9150612fca82613e0e565b604082019050919050565b6000612fe26032836137e7565b9150612fed82613e5d565b604082019050919050565b6000613005602a836137e7565b915061301082613eac565b604082019050919050565b60006130286005836137f8565b915061303382613efb565b600582019050919050565b600061304b6020836137e7565b915061305682613f24565b602082019050919050565b600061306e6034836137e7565b915061307982613f4d565b604082019050919050565b6000613091601d836137e7565b915061309c82613f9c565b602082019050919050565b60006130b46016836137e7565b91506130bf82613fc5565b602082019050919050565b60006130d76029836137e7565b91506130e282613fee565b604082019050919050565b60006130fa602a836137e7565b91506131058261403d565b604082019050919050565b600061311d6029836137e7565b91506131288261408c565b604082019050919050565b6000613140601b836137e7565b915061314b826140db565b602082019050919050565b60006131636028836137e7565b915061316e82614104565b604082019050919050565b60006131866021836137e7565b915061319182614153565b604082019050919050565b60006131a96001836137f8565b91506131b4826141a2565b600182019050919050565b6131c881613994565b82525050565b6131d781613994565b82525050565b60006131e98284612ddc565b915081905092915050565b60006132008285612e46565b915061320b8261319c565b91506132178284612e46565b91506132228261301b565b91508190509392505050565b60006020820190506132436000830184612d27565b92915050565b600060a08201905061325e6000830188612d27565b61326b6020830187612d27565b818103604083015261327d8186612d36565b905081810360608301526132918185612d36565b905081810360808301526132a58184612da3565b90509695505050505050565b600060a0820190506132c66000830188612d27565b6132d36020830187612d27565b6132e060408301866131ce565b6132ed60608301856131ce565b81810360808301526132ff8184612da3565b90509695505050505050565b60006040820190506133206000830185612d27565b61332d60208301846131ce565b9392505050565b6000602082019050818103600083015261334e8184612d36565b905092915050565b600060408201905081810360008301526133708185612d36565b905081810360208301526133848184612d36565b90509392505050565b60006020820190506133a26000830184612d94565b92915050565b600060208201905081810360008301526133c28184612e0d565b905092915050565b600060208201905081810360008301526133e381612e77565b9050919050565b6000602082019050818103600083015261340381612e9a565b9050919050565b6000602082019050818103600083015261342381612ebd565b9050919050565b6000602082019050818103600083015261344381612ee0565b9050919050565b6000602082019050818103600083015261346381612f03565b9050919050565b6000602082019050818103600083015261348381612f26565b9050919050565b600060208201905081810360008301526134a381612f49565b9050919050565b600060208201905081810360008301526134c381612f6c565b9050919050565b600060208201905081810360008301526134e381612f8f565b9050919050565b6000602082019050818103600083015261350381612fb2565b9050919050565b6000602082019050818103600083015261352381612fd5565b9050919050565b6000602082019050818103600083015261354381612ff8565b9050919050565b600060208201905081810360008301526135638161303e565b9050919050565b6000602082019050818103600083015261358381613061565b9050919050565b600060208201905081810360008301526135a381613084565b9050919050565b600060208201905081810360008301526135c3816130a7565b9050919050565b600060208201905081810360008301526135e3816130ca565b9050919050565b60006020820190508181036000830152613603816130ed565b9050919050565b6000602082019050818103600083015261362381613110565b9050919050565b6000602082019050818103600083015261364381613133565b9050919050565b6000602082019050818103600083015261366381613156565b9050919050565b6000602082019050818103600083015261368381613179565b9050919050565b600060208201905061369f60008301846131ce565b92915050565b60006040820190506136ba60008301856131ce565b6136c760208301846131ce565b9392505050565b60006136d86136e9565b90506136e48282613a12565b919050565b6000604051905090565b600067ffffffffffffffff82111561370e5761370d613b4a565b5b602082029050602081019050919050565b600067ffffffffffffffff82111561373a57613739613b4a565b5b602082029050602081019050919050565b600067ffffffffffffffff82111561376657613765613b4a565b5b61376f82613b9b565b9050602081019050919050565b6000819050602082019050919050565b600081519050919050565b600081519050919050565b600081519050919050565b6000602082019050919050565b600082825260208201905092915050565b600082825260208201905092915050565b600081905092915050565b600082825260208201905092915050565b600081905092915050565b600061380e82613994565b915061381983613994565b9250827fffffffffffffffffffffffffffffffffffffffffffffffffffffffffffffffff0382111561384e5761384d613abd565b5b828201905092915050565b600061386482613994565b915061386f83613994565b92508261387f5761387e613aec565b5b828204905092915050565b600061389582613994565b91506138a083613994565b9250817fffffffffffffffffffffffffffffffffffffffffffffffffffffffffffffffff04831182151516156138d9576138d8613abd565b5b828202905092915050565b60006138ef82613994565b91506138fa83613994565b92508282101561390d5761390c613abd565b5b828203905092915050565b600061392382613974565b9050919050565b60008115159050919050565b60007fffffffff0000000000000000000000000000000000000000000000000000000082169050919050565b600061396d82613918565b9050919050565b600073ffffffffffffffffffffffffffffffffffffffff82169050919050565b6000819050919050565b82818337600083830152505050565b60005b838110156139cb5780820151818401526020810190506139b0565b838111156139da576000848401525b50505050565b600060028204905060018216806139f857607f821691505b60208210811415613a0c57613a0b613b1b565b5b50919050565b613a1b82613b9b565b810181811067ffffffffffffffff82111715613a3a57613a39613b4a565b5b80604052505050565b6000613a4e82613994565b91507fffffffffffffffffffffffffffffffffffffffffffffffffffffffffffffffff821415613a8157613a80613abd565b5b600182019050919050565b6000613a9782613994565b9150613aa283613994565b925082613ab257613ab1613aec565b5b828206905092915050565b7f4e487b7100000000000000000000000000000000000000000000000000000000600052601160045260246000fd5b7f4e487b7100000000000000000000000000000000000000000000000000000000600052601260045260246000fd5b7f4e487b7100000000000000000000000000000000000000000000000000000000600052602260045260246000fd5b7f4e487b7100000000000000000000000000000000000000000000000000000000600052604160045260246000fd5b600060033d1115613b985760046000803e613b95600051613bac565b90505b90565b6000601f19601f8301169050919050565b60008160e01c9050919050565b7f455243313135353a207472616e7366657220746f206e6f6e204552433131353560008201527f526563656976657220696d706c656d656e746572000000000000000000000000602082015250565b7f455243313135353a204552433131353552656365697665722072656a6563746560008201527f6420746f6b656e73000000000000000000000000000000000000000000000000602082015250565b7f4d696e74206e6f7420636f6e6669677572656400000000000000000000000000600082015250565b7f455243313135353a2062616c616e636520717565727920666f7220746865207a60008201527f65726f2061646472657373000000000000000000000000000000000000000000602082015250565b7f4f776e61626c653a206e6577206f776e657220697320746865207a65726f206160008201527f6464726573730000000000000000000000000000000000000000000000000000602082015250565b7f455243313135353a2063616c6c6572206973206e6f74206f776e6572206e6f7260008201527f20617070726f7665640000000000000000000000000000000000000000000000602082015250565b7f416464726573733a20696e73756666696369656e742062616c616e636520666f60008201527f722063616c6c0000000000000000000000000000000000000000000000000000602082015250565b7f4d696e74696e67206e6f74206f70656e20796574000000000000000000000000600082015250565b7f4d696e74696e672077617320636c6f73656420616c7265616479000000000000600082015250565b7f455243313135353a207472616e7366657220746f20746865207a65726f20616460008201527f6472657373000000000000000000000000000000000000000000000000000000602082015250565b7f455243313135353a207472616e736665722063616c6c6572206973206e6f742060008201527f6f776e6572206e6f7220617070726f7665640000000000000000000000000000602082015250565b7f455243313135353a20696e73756666696369656e742062616c616e636520666f60008201527f72207472616e7366657200000000000000000000000000000000000000000000602082015250565b7f2e6a736f6e000000000000000000000000000000000000000000000000000000600082015250565b7f4f776e61626c653a2063616c6c6572206973206e6f7420746865206f776e6572600082015250565b7f4e6f7420656e6f756768742076616c756520746f206d696e742c20706c65617360008201527f652075736520706c61696e207472616e73666572000000000000000000000000602082015250565b7f416464726573733a2063616c6c20746f206e6f6e2d636f6e7472616374000000600082015250565b7f4e6f2062616c616e636520746f207472616e7366657200000000000000000000600082015250565b7f455243313135353a2073657474696e6720617070726f76616c2073746174757360008201527f20666f722073656c660000000000000000000000000000000000000000000000602082015250565b7f5361666545524332303a204552433230206f7065726174696f6e20646964206e60008201527f6f74207375636365656400000000000000000000000000000000000000000000602082015250565b7f455243313135353a206163636f756e747320616e6420696473206c656e67746860008201527f206d69736d617463680000000000000000000000000000000000000000000000602082015250565b7f546869732064657369676e2069736e2774206176616c6169626c650000000000600082015250565b7f455243313135353a2069647320616e6420616d6f756e7473206c656e6774682060008201527f6d69736d61746368000000000000000000000000000000000000000000000000602082015250565b7f455243313135353a206d696e7420746f20746865207a65726f2061646472657360008201527f7300000000000000000000000000000000000000000000000000000000000000602082015250565b7f2f00000000000000000000000000000000000000000000000000000000000000600082015250565b600060443d10156141db5761425e565b6141e36136e9565b60043d036004823e80513d602482011167ffffffffffffffff8211171561420b57505061425e565b808201805167ffffffffffffffff811115614229575050505061425e565b80602083010160043d03850181111561424657505050505061425e565b61425582602001850186613a12565b82955050505050505b90565b61426a81613918565b811461427557600080fd5b50565b6142818161392a565b811461428c57600080fd5b50565b61429881613936565b81146142a357600080fd5b50565b6142af81613962565b81146142ba57600080fd5b50565b6142c681613994565b81146142d157600080fd5b5056fea2646970667358221220801e0e14ce6d4afdb57ab77926301d977ea52d0cf99bb0e638b1d483c0fc2dc564736f6c63430008040033",
  "linkReferences": {},
  "deployedLinkReferences": {}
}