{
  "_format": "hh-sol-artifact-1",
  "contractName": "Pins4Ukraine",
  "sourceName": "contracts/Pins4Ukraine.sol",
  "abi": [
    {
      "inputs": [],
      "stateMutability": "nonpayable",
      "type": "constructor"
    },
    {
      "anonymous": false,
      "inputs": [
        {
          "indexed": true,
          "internalType": "address",
          "name": "account",
          "type": "address"
        },
        {
          "indexed": true,
          "internalType": "address",
          "name": "operator",
          "type": "address"
        },
        {
          "indexed": false,
          "internalType": "bool",
          "name": "approved",
          "type": "bool"
        }
      ],
      "name": "ApprovalForAll",
      "type": "event"
    },
    {
      "anonymous": false,
      "inputs": [
        {
          "indexed": true,
          "internalType": "address",
          "name": "previousOwner",
          "type": "address"
        },
        {
          "indexed": true,
          "internalType": "address",
          "name": "newOwner",
          "type": "address"
        }
      ],
      "name": "OwnershipTransferred",
      "type": "event"
    },
    {
      "anonymous": false,
      "inputs": [
        {
          "indexed": true,
          "internalType": "address",
          "name": "operator",
          "type": "address"
        },
        {
          "indexed": true,
          "internalType": "address",
          "name": "from",
          "type": "address"
        },
        {
          "indexed": true,
          "internalType": "address",
          "name": "to",
          "type": "address"
        },
        {
          "indexed": false,
          "internalType": "uint256[]",
          "name": "ids",
          "type": "uint256[]"
        },
        {
          "indexed": false,
          "internalType": "uint256[]",
          "name": "values",
          "type": "uint256[]"
        }
      ],
      "name": "TransferBatch",
      "type": "event"
    },
    {
      "anonymous": false,
      "inputs": [
        {
          "indexed": true,
          "internalType": "address",
          "name": "operator",
          "type": "address"
        },
        {
          "indexed": true,
          "internalType": "address",
          "name": "from",
          "type": "address"
        },
        {
          "indexed": true,
          "internalType": "address",
          "name": "to",
          "type": "address"
        },
        {
          "indexed": false,
          "internalType": "uint256",
          "name": "id",
          "type": "uint256"
        },
        {
          "indexed": false,
          "internalType": "uint256",
          "name": "value",
          "type": "uint256"
        }
      ],
      "name": "TransferSingle",
      "type": "event"
    },
    {
      "anonymous": false,
      "inputs": [
        {
          "indexed": false,
          "internalType": "string",
          "name": "value",
          "type": "string"
        },
        {
          "indexed": true,
          "internalType": "uint256",
          "name": "id",
          "type": "uint256"
        }
      ],
      "name": "URI",
      "type": "event"
    },
    {
      "stateMutability": "payable",
      "type": "fallback"
    },
    {
      "inputs": [
        {
          "internalType": "address",
          "name": "account",
          "type": "address"
        },
        {
          "internalType": "uint256",
          "name": "id",
          "type": "uint256"
        }
      ],
      "name": "balanceOf",
      "outputs": [
        {
          "internalType": "uint256",
          "name": "",
          "type": "uint256"
        }
      ],
      "stateMutability": "view",
      "type": "function"
    },
    {
      "inputs": [
        {
          "internalType": "address[]",
          "name": "accounts",
          "type": "address[]"
        },
        {
          "internalType": "uint256[]",
          "name": "ids",
          "type": "uint256[]"
        }
      ],
      "name": "balanceOfBatch",
      "outputs": [
        {
          "internalType": "uint256[]",
          "name": "",
          "type": "uint256[]"
        }
      ],
      "stateMutability": "view",
      "type": "function"
    },
    {
      "inputs": [],
      "name": "currentTokenPrice",
      "outputs": [
        {
          "internalType": "uint256",
          "name": "",
          "type": "uint256"
        }
      ],
      "stateMutability": "view",
      "type": "function"
    },
    {
      "inputs": [
        {
          "internalType": "address",
          "name": "account",
          "type": "address"
        },
        {
          "internalType": "address",
          "name": "operator",
          "type": "address"
        }
      ],
      "name": "isApprovedForAll",
      "outputs": [
        {
          "internalType": "bool",
          "name": "",
          "type": "bool"
        }
      ],
      "stateMutability": "view",
      "type": "function"
    },
    {
      "inputs": [
        {
          "internalType": "uint256",
          "name": "_tokenId",
          "type": "uint256"
        }
      ],
      "name": "mint",
      "outputs": [],
      "stateMutability": "payable",
      "type": "function"
    },
    {
      "inputs": [],
      "name": "mintOpenSince",
      "outputs": [
        {
          "internalType": "uint256",
          "name": "",
          "type": "uint256"
        }
      ],
      "stateMutability": "view",
      "type": "function"
    },
    {
      "inputs": [],
      "name": "mintOpenUntil",
      "outputs": [
        {
          "internalType": "uint256",
          "name": "",
          "type": "uint256"
        }
      ],
      "stateMutability": "view",
      "type": "function"
    },
    {
      "inputs": [],
      "name": "owner",
      "outputs": [
        {
          "internalType": "address",
          "name": "",
          "type": "address"
        }
      ],
      "stateMutability": "view",
      "type": "function"
    },
    {
      "inputs": [],
      "name": "renounceOwnership",
      "outputs": [],
      "stateMutability": "nonpayable",
      "type": "function"
    },
    {
      "inputs": [
        {
          "internalType": "uint256",
          "name": "",
          "type": "uint256"
        },
        {
          "internalType": "uint256",
          "name": "_salePrice",
          "type": "uint256"
        }
      ],
      "name": "royaltyInfo",
      "outputs": [
        {
          "internalType": "address",
          "name": "",
          "type": "address"
        },
        {
          "internalType": "uint256",
          "name": "",
          "type": "uint256"
        }
      ],
      "stateMutability": "pure",
      "type": "function"
    },
    {
      "inputs": [
        {
          "internalType": "address",
          "name": "from",
          "type": "address"
        },
        {
          "internalType": "address",
          "name": "to",
          "type": "address"
        },
        {
          "internalType": "uint256[]",
          "name": "ids",
          "type": "uint256[]"
        },
        {
          "internalType": "uint256[]",
          "name": "amounts",
          "type": "uint256[]"
        },
        {
          "internalType": "bytes",
          "name": "data",
          "type": "bytes"
        }
      ],
      "name": "safeBatchTransferFrom",
      "outputs": [],
      "stateMutability": "nonpayable",
      "type": "function"
    },
    {
      "inputs": [
        {
          "internalType": "address",
          "name": "from",
          "type": "address"
        },
        {
          "internalType": "address",
          "name": "to",
          "type": "address"
        },
        {
          "internalType": "uint256",
          "name": "id",
          "type": "uint256"
        },
        {
          "internalType": "uint256",
          "name": "amount",
          "type": "uint256"
        },
        {
          "internalType": "bytes",
          "name": "data",
          "type": "bytes"
        }
      ],
      "name": "safeTransferFrom",
      "outputs": [],
      "stateMutability": "nonpayable",
      "type": "function"
    },
    {
      "inputs": [
        {
          "internalType": "address",
          "name": "operator",
          "type": "address"
        },
        {
          "internalType": "bool",
          "name": "approved",
          "type": "bool"
        }
      ],
      "name": "setApprovalForAll",
      "outputs": [],
      "stateMutability": "nonpayable",
      "type": "function"
    },
    {
      "inputs": [
        {
          "internalType": "uint256",
          "name": "_mintOpenSince",
          "type": "uint256"
        }
      ],
      "name": "setMintOpenSince",
      "outputs": [],
      "stateMutability": "nonpayable",
      "type": "function"
    },
    {
      "inputs": [
        {
          "internalType": "uint256",
          "name": "_mintOpenUntil",
          "type": "uint256"
        }
      ],
      "name": "setMintOpenUntil",
      "outputs": [],
      "stateMutability": "nonpayable",
      "type": "function"
    },
    {
      "inputs": [
        {
          "internalType": "bytes4",
          "name": "_interfaceId",
          "type": "bytes4"
        }
      ],
      "name": "supportsInterface",
      "outputs": [
        {
          "internalType": "bool",
          "name": "",
          "type": "bool"
        }
      ],
      "stateMutability": "view",
      "type": "function"
    },
    {
      "inputs": [
        {
          "internalType": "address",
          "name": "newOwner",
          "type": "address"
        }
      ],
      "name": "transferOwnership",
      "outputs": [],
      "stateMutability": "nonpayable",
      "type": "function"
    },
    {
      "inputs": [],
      "name": "transferSupport",
      "outputs": [],
      "stateMutability": "nonpayable",
      "type": "function"
    },
    {
      "inputs": [
        {
          "internalType": "contract IERC20",
          "name": "_token",
          "type": "address"
        }
      ],
      "name": "transferSupportERC20",
      "outputs": [],
      "stateMutability": "nonpayable",
      "type": "function"
    },
    {
      "inputs": [
        {
          "internalType": "uint256",
          "name": "_tokenId",
          "type": "uint256"
        }
      ],
      "name": "uri",
      "outputs": [
        {
          "internalType": "string",
          "name": "",
          "type": "string"
        }
      ],
      "stateMutability": "view",
      "type": "function"
    },
    {
      "stateMutability": "payable",
      "type": "receive"
    }
  ],
  "bytecode": "0x6080604052600060045560006005553480156200001b57600080fd5b506040518060400160405280601f81526020017f68747470733a2f2f70696e7334756b7261696e652e636f6d2f6173736574730081525062000063816200008a60201b60201c565b506200008462000078620000a660201b60201c565b620000ae60201b60201c565b62000289565b8060029080519060200190620000a292919062000174565b5050565b600033905090565b6000600360009054906101000a900473ffffffffffffffffffffffffffffffffffffffff16905081600360006101000a81548173ffffffffffffffffffffffffffffffffffffffff021916908373ffffffffffffffffffffffffffffffffffffffff1602179055508173ffffffffffffffffffffffffffffffffffffffff168173ffffffffffffffffffffffffffffffffffffffff167f8be0079c531659141344cd1fd0a4f28419497f9722a3daafe3b4186f6b6457e060405160405180910390a35050565b828054620001829062000224565b90600052602060002090601f016020900481019282620001a65760008555620001f2565b82601f10620001c157805160ff1916838001178555620001f2565b82800160010185558215620001f2579182015b82811115620001f1578251825591602001919060010190620001d4565b5b50905062000201919062000205565b5090565b5b808211156200022057600081600090555060010162000206565b5090565b600060028204905060018216806200023d57607f821691505b602082108114156200025457620002536200025a565b5b50919050565b7f4e487b7100000000000000000000000000000000000000000000000000000000600052602260045260246000fd5b6141b280620002996000396000f3fe6080604052600436106101225760003560e01c806362c82d83116100a0578063a22cb46511610064578063a22cb465146103ce578063d0c5f4b9146103f7578063e985e9c514610420578063f242432a1461045d578063f2fde38b1461048657610129565b806362c82d831461031c578063715018a61461034557806371b3659e1461035c5780638da5cb5b14610387578063a0712d68146103b257610129565b80633718198a116100e75780633718198a146102495780633cac2ff0146102605780634e1273f41461028b57806354867ad6146102c85780635880d282146102f157610129565b8062fdd58e1461012b57806301ffc9a7146101685780630e89341c146101a55780632a55205a146101e25780632eb2c2d61461022057610129565b3661012957005b005b34801561013757600080fd5b50610152600480360381019061014d91906129dd565b6104af565b60405161015f9190613532565b60405180910390f35b34801561017457600080fd5b5061018f600480360381019061018a9190612aae565b610578565b60405161019c9190613235565b60405180910390f35b3480156101b157600080fd5b506101cc60048036038101906101c79190612b29565b6105f2565b6040516101d99190613250565b60405180910390f35b3480156101ee57600080fd5b5061020960048036038101906102049190612b7b565b61062d565b6040516102179291906131b3565b60405180910390f35b34801561022c57600080fd5b5061024760048036038101906102429190612853565b610669565b005b34801561025557600080fd5b5061025e61070a565b005b34801561026c57600080fd5b506102756107b0565b6040516102829190613532565b60405180910390f35b34801561029757600080fd5b506102b260048036038101906102ad9190612a19565b6107b6565b6040516102bf91906131dc565b60405180910390f35b3480156102d457600080fd5b506102ef60048036038101906102ea9190612b29565b610967565b005b3480156102fd57600080fd5b506103066109ed565b6040516103139190613532565b60405180910390f35b34801561032857600080fd5b50610343600480360381019061033e9190612b00565b6109f3565b005b34801561035157600080fd5b5061035a610b06565b005b34801561036857600080fd5b50610371610b8e565b60405161037e9190613532565b60405180910390f35b34801561039357600080fd5b5061039c610c14565b6040516103a991906130d6565b60405180910390f35b6103cc60048036038101906103c79190612b29565b610c3e565b005b3480156103da57600080fd5b506103f560048036038101906103f091906129a1565b610e0a565b005b34801561040357600080fd5b5061041e60048036038101906104199190612b29565b610e20565b005b34801561042c57600080fd5b5061044760048036038101906104429190612817565b610ea6565b6040516104549190613235565b60405180910390f35b34801561046957600080fd5b50610484600480360381019061047f9190612912565b610f3a565b005b34801561049257600080fd5b506104ad60048036038101906104a891906127ee565b610fdb565b005b60008073ffffffffffffffffffffffffffffffffffffffff168373ffffffffffffffffffffffffffffffffffffffff161415610520576040517f08c379a0000000000000000000000000000000000000000000000000000000008152600401610517906132d2565b60405180910390fd5b60008083815260200190815260200160002060008473ffffffffffffffffffffffffffffffffffffffff1673ffffffffffffffffffffffffffffffffffffffff16815260200190815260200160002054905092915050565b60007f2a55205a000000000000000000000000000000000000000000000000000000007bffffffffffffffffffffffffffffffffffffffffffffffffffffffff1916827bffffffffffffffffffffffffffffffffffffffffffffffffffffffff191614806105eb57506105ea826110d3565b5b9050919050565b60606105fd826111b5565b61060683611249565b60405160200161061792919061309c565b6040516020818303038152906040529050919050565b60008073165cd37b4c644c2921454429e7f9358d18a45e1460646005856106549190613732565b61065e9190613701565b915091509250929050565b6106716113f6565b73ffffffffffffffffffffffffffffffffffffffff168573ffffffffffffffffffffffffffffffffffffffff1614806106b757506106b6856106b16113f6565b610ea6565b5b6106f6576040517f08c379a00000000000000000000000000000000000000000000000000000000081526004016106ed906133b2565b60405180910390fd5b61070385858585856113fe565b5050505050565b600047905060008111610752576040517f08c379a000000000000000000000000000000000000000000000000000000000815260040161074990613452565b60405180910390fd5b73165cd37b4c644c2921454429e7f9358d18a45e1473ffffffffffffffffffffffffffffffffffffffff166108fc829081150290604051600060405180830381858888f193505050501580156107ac573d6000803e3d6000fd5b5050565b60045481565b606081518351146107fc576040517f08c379a00000000000000000000000000000000000000000000000000000000081526004016107f3906134b2565b60405180910390fd5b6000835167ffffffffffffffff81111561083f577f4e487b7100000000000000000000000000000000000000000000000000000000600052604160045260246000fd5b60405190808252806020026020018201604052801561086d5781602001602082028036833780820191505090505b50905060005b845181101561095c576109068582815181106108b8577f4e487b7100000000000000000000000000000000000000000000000000000000600052603260045260246000fd5b60200260200101518583815181106108f9577f4e487b7100000000000000000000000000000000000000000000000000000000600052603260045260246000fd5b60200260200101516104af565b82828151811061093f577f4e487b7100000000000000000000000000000000000000000000000000000000600052603260045260246000fd5b60200260200101818152505080610955906138eb565b9050610873565b508091505092915050565b61096f6113f6565b73ffffffffffffffffffffffffffffffffffffffff1661098d610c14565b73ffffffffffffffffffffffffffffffffffffffff16146109e3576040517f08c379a00000000000000000000000000000000000000000000000000000000081526004016109da906133f2565b60405180910390fd5b8060058190555050565b60055481565b60008173ffffffffffffffffffffffffffffffffffffffff166370a08231306040518263ffffffff1660e01b8152600401610a2e91906130d6565b60206040518083038186803b158015610a4657600080fd5b505afa158015610a5a573d6000803e3d6000fd5b505050506040513d601f19601f82011682018060405250810190610a7e9190612b52565b905060008111610ac3576040517f08c379a0000000000000000000000000000000000000000000000000000000008152600401610aba90613452565b60405180910390fd5b610b0273165cd37b4c644c2921454429e7f9358d18a45e14828473ffffffffffffffffffffffffffffffffffffffff1661175e9092919063ffffffff16565b5050565b610b0e6113f6565b73ffffffffffffffffffffffffffffffffffffffff16610b2c610c14565b73ffffffffffffffffffffffffffffffffffffffff1614610b82576040517f08c379a0000000000000000000000000000000000000000000000000000000008152600401610b79906133f2565b60405180910390fd5b610b8c60006117e4565b565b6000600454421015610bd5576040517f08c379a0000000000000000000000000000000000000000000000000000000008152600401610bcc90613352565b60405180910390fd5b600060045442610be5919061378c565b905060006203f48082610bf89190613701565b9050662386f26fc1000081610c0d9190613732565b9250505090565b6000600360009054906101000a900473ffffffffffffffffffffffffffffffffffffffff16905090565b600060045411610c83576040517f08c379a0000000000000000000000000000000000000000000000000000000008152600401610c7a906132b2565b60405180910390fd5b600454421015610cc8576040517f08c379a0000000000000000000000000000000000000000000000000000000008152600401610cbf90613352565b60405180910390fd5b60006005541480610cda575060055442105b610d19576040517f08c379a0000000000000000000000000000000000000000000000000000000008152600401610d1090613372565b60405180910390fd5b6001811015610d5d576040517f08c379a0000000000000000000000000000000000000000000000000000000008152600401610d54906134d2565b60405180910390fd5b6006811115610da1576040517f08c379a0000000000000000000000000000000000000000000000000000000008152600401610d98906134d2565b60405180910390fd5b610da9610b8e565b341015610deb576040517f08c379a0000000000000000000000000000000000000000000000000000000008152600401610de290613412565b60405180910390fd5b610e0733826001604051806020016040528060008152506118aa565b50565b610e1c610e156113f6565b8383611a40565b5050565b610e286113f6565b73ffffffffffffffffffffffffffffffffffffffff16610e46610c14565b73ffffffffffffffffffffffffffffffffffffffff1614610e9c576040517f08c379a0000000000000000000000000000000000000000000000000000000008152600401610e93906133f2565b60405180910390fd5b8060048190555050565b6000600160008473ffffffffffffffffffffffffffffffffffffffff1673ffffffffffffffffffffffffffffffffffffffff16815260200190815260200160002060008373ffffffffffffffffffffffffffffffffffffffff1673ffffffffffffffffffffffffffffffffffffffff16815260200190815260200160002060009054906101000a900460ff16905092915050565b610f426113f6565b73ffffffffffffffffffffffffffffffffffffffff168573ffffffffffffffffffffffffffffffffffffffff161480610f885750610f8785610f826113f6565b610ea6565b5b610fc7576040517f08c379a0000000000000000000000000000000000000000000000000000000008152600401610fbe90613312565b60405180910390fd5b610fd48585858585611bad565b5050505050565b610fe36113f6565b73ffffffffffffffffffffffffffffffffffffffff16611001610c14565b73ffffffffffffffffffffffffffffffffffffffff1614611057576040517f08c379a000000000000000000000000000000000000000000000000000000000815260040161104e906133f2565b60405180910390fd5b600073ffffffffffffffffffffffffffffffffffffffff168173ffffffffffffffffffffffffffffffffffffffff1614156110c7576040517f08c379a00000000000000000000000000000000000000000000000000000000081526004016110be906132f2565b60405180910390fd5b6110d0816117e4565b50565b60007fd9b67a26000000000000000000000000000000000000000000000000000000007bffffffffffffffffffffffffffffffffffffffffffffffffffffffff1916827bffffffffffffffffffffffffffffffffffffffffffffffffffffffff1916148061119e57507f0e89341c000000000000000000000000000000000000000000000000000000007bffffffffffffffffffffffffffffffffffffffffffffffffffffffff1916827bffffffffffffffffffffffffffffffffffffffffffffffffffffffff1916145b806111ae57506111ad82611e2f565b5b9050919050565b6060600280546111c490613888565b80601f01602080910402602001604051908101604052809291908181526020018280546111f090613888565b801561123d5780601f106112125761010080835404028352916020019161123d565b820191906000526020600020905b81548152906001019060200180831161122057829003601f168201915b50505050509050919050565b60606000821415611291576040518060400160405280600181526020017f300000000000000000000000000000000000000000000000000000000000000081525090506113f1565b600082905060005b600082146112c35780806112ac906138eb565b915050600a826112bc9190613701565b9150611299565b60008167ffffffffffffffff811115611305577f4e487b7100000000000000000000000000000000000000000000000000000000600052604160045260246000fd5b6040519080825280601f01601f1916602001820160405280156113375781602001600182028036833780820191505090505b5090505b600085146113ea57600182611350919061378c565b9150600a8561135f9190613934565b603061136b91906136ab565b60f81b8183815181106113a7577f4e487b7100000000000000000000000000000000000000000000000000000000600052603260045260246000fd5b60200101907effffffffffffffffffffffffffffffffffffffffffffffffffffffffffffff1916908160001a905350600a856113e39190613701565b945061133b565b8093505050505b919050565b600033905090565b8151835114611442576040517f08c379a0000000000000000000000000000000000000000000000000000000008152600401611439906134f2565b60405180910390fd5b600073ffffffffffffffffffffffffffffffffffffffff168473ffffffffffffffffffffffffffffffffffffffff1614156114b2576040517f08c379a00000000000000000000000000000000000000000000000000000000081526004016114a990613392565b60405180910390fd5b60006114bc6113f6565b90506114cc818787878787611e99565b60005b84518110156116c9576000858281518110611513577f4e487b7100000000000000000000000000000000000000000000000000000000600052603260045260246000fd5b602002602001015190506000858381518110611558577f4e487b7100000000000000000000000000000000000000000000000000000000600052603260045260246000fd5b60200260200101519050600080600084815260200190815260200160002060008b73ffffffffffffffffffffffffffffffffffffffff1673ffffffffffffffffffffffffffffffffffffffff168152602001908152602001600020549050818110156115f9576040517f08c379a00000000000000000000000000000000000000000000000000000000081526004016115f0906133d2565b60405180910390fd5b81810360008085815260200190815260200160002060008c73ffffffffffffffffffffffffffffffffffffffff1673ffffffffffffffffffffffffffffffffffffffff168152602001908152602001600020819055508160008085815260200190815260200160002060008b73ffffffffffffffffffffffffffffffffffffffff1673ffffffffffffffffffffffffffffffffffffffff16815260200190815260200160002060008282546116ae91906136ab565b92505081905550505050806116c2906138eb565b90506114cf565b508473ffffffffffffffffffffffffffffffffffffffff168673ffffffffffffffffffffffffffffffffffffffff168273ffffffffffffffffffffffffffffffffffffffff167f4a39dc06d4c0dbc64b70af90fd698a233a518aa5d07e595d983b8c0526c8f7fb87876040516117409291906131fe565b60405180910390a4611756818787878787611ea1565b505050505050565b6117df8363a9059cbb60e01b848460405160240161177d9291906131b3565b604051602081830303815290604052907bffffffffffffffffffffffffffffffffffffffffffffffffffffffff19166020820180517bffffffffffffffffffffffffffffffffffffffffffffffffffffffff8381831617835250505050612088565b505050565b6000600360009054906101000a900473ffffffffffffffffffffffffffffffffffffffff16905081600360006101000a81548173ffffffffffffffffffffffffffffffffffffffff021916908373ffffffffffffffffffffffffffffffffffffffff1602179055508173ffffffffffffffffffffffffffffffffffffffff168173ffffffffffffffffffffffffffffffffffffffff167f8be0079c531659141344cd1fd0a4f28419497f9722a3daafe3b4186f6b6457e060405160405180910390a35050565b600073ffffffffffffffffffffffffffffffffffffffff168473ffffffffffffffffffffffffffffffffffffffff16141561191a576040517f08c379a000000000000000000000000000000000000000000000000000000000815260040161191190613512565b60405180910390fd5b60006119246113f6565b9050611945816000876119368861214f565b61193f8861214f565b87611e99565b8260008086815260200190815260200160002060008773ffffffffffffffffffffffffffffffffffffffff1673ffffffffffffffffffffffffffffffffffffffff16815260200190815260200160002060008282546119a491906136ab565b925050819055508473ffffffffffffffffffffffffffffffffffffffff16600073ffffffffffffffffffffffffffffffffffffffff168273ffffffffffffffffffffffffffffffffffffffff167fc3d58168c5ae7397731d063d5bbf3d657854427343f4c083240f7aacaa2d0f628787604051611a2292919061354d565b60405180910390a4611a3981600087878787612215565b5050505050565b8173ffffffffffffffffffffffffffffffffffffffff168373ffffffffffffffffffffffffffffffffffffffff161415611aaf576040517f08c379a0000000000000000000000000000000000000000000000000000000008152600401611aa690613472565b60405180910390fd5b80600160008573ffffffffffffffffffffffffffffffffffffffff1673ffffffffffffffffffffffffffffffffffffffff16815260200190815260200160002060008473ffffffffffffffffffffffffffffffffffffffff1673ffffffffffffffffffffffffffffffffffffffff16815260200190815260200160002060006101000a81548160ff0219169083151502179055508173ffffffffffffffffffffffffffffffffffffffff168373ffffffffffffffffffffffffffffffffffffffff167f17307eab39ab6107e8899845ad3d59bd9653f200f220920489ca2b5937696c3183604051611ba09190613235565b60405180910390a3505050565b600073ffffffffffffffffffffffffffffffffffffffff168473ffffffffffffffffffffffffffffffffffffffff161415611c1d576040517f08c379a0000000000000000000000000000000000000000000000000000000008152600401611c1490613392565b60405180910390fd5b6000611c276113f6565b9050611c47818787611c388861214f565b611c418861214f565b87611e99565b600080600086815260200190815260200160002060008873ffffffffffffffffffffffffffffffffffffffff1673ffffffffffffffffffffffffffffffffffffffff16815260200190815260200160002054905083811015611cde576040517f08c379a0000000000000000000000000000000000000000000000000000000008152600401611cd5906133d2565b60405180910390fd5b83810360008087815260200190815260200160002060008973ffffffffffffffffffffffffffffffffffffffff1673ffffffffffffffffffffffffffffffffffffffff168152602001908152602001600020819055508360008087815260200190815260200160002060008873ffffffffffffffffffffffffffffffffffffffff1673ffffffffffffffffffffffffffffffffffffffff1681526020019081526020016000206000828254611d9391906136ab565b925050819055508573ffffffffffffffffffffffffffffffffffffffff168773ffffffffffffffffffffffffffffffffffffffff168373ffffffffffffffffffffffffffffffffffffffff167fc3d58168c5ae7397731d063d5bbf3d657854427343f4c083240f7aacaa2d0f628888604051611e1092919061354d565b60405180910390a4611e26828888888888612215565b50505050505050565b60007f01ffc9a7000000000000000000000000000000000000000000000000000000007bffffffffffffffffffffffffffffffffffffffffffffffffffffffff1916827bffffffffffffffffffffffffffffffffffffffffffffffffffffffff1916149050919050565b505050505050565b611ec08473ffffffffffffffffffffffffffffffffffffffff166123fc565b15612080578373ffffffffffffffffffffffffffffffffffffffff1663bc197c8187878686866040518663ffffffff1660e01b8152600401611f069594939291906130f1565b602060405180830381600087803b158015611f2057600080fd5b505af1925050508015611f5157506040513d601f19601f82011682018060405250810190611f4e9190612ad7565b60015b611ff757611f5d613a21565b806308c379a01415611fba5750611f72614073565b80611f7d5750611fbc565b806040517f08c379a0000000000000000000000000000000000000000000000000000000008152600401611fb19190613250565b60405180910390fd5b505b6040517f08c379a0000000000000000000000000000000000000000000000000000000008152600401611fee90613272565b60405180910390fd5b63bc197c8160e01b7bffffffffffffffffffffffffffffffffffffffffffffffffffffffff1916817bffffffffffffffffffffffffffffffffffffffffffffffffffffffff19161461207e576040517f08c379a000000000000000000000000000000000000000000000000000000000815260040161207590613292565b60405180910390fd5b505b505050505050565b60006120ea826040518060400160405280602081526020017f5361666545524332303a206c6f772d6c6576656c2063616c6c206661696c65648152508573ffffffffffffffffffffffffffffffffffffffff1661241f9092919063ffffffff16565b905060008151111561214a578080602001905181019061210a9190612a85565b612149576040517f08c379a000000000000000000000000000000000000000000000000000000000815260040161214090613492565b60405180910390fd5b5b505050565b60606000600167ffffffffffffffff811115612194577f4e487b7100000000000000000000000000000000000000000000000000000000600052604160045260246000fd5b6040519080825280602002602001820160405280156121c25781602001602082028036833780820191505090505b5090508281600081518110612200577f4e487b7100000000000000000000000000000000000000000000000000000000600052603260045260246000fd5b60200260200101818152505080915050919050565b6122348473ffffffffffffffffffffffffffffffffffffffff166123fc565b156123f4578373ffffffffffffffffffffffffffffffffffffffff1663f23a6e6187878686866040518663ffffffff1660e01b815260040161227a959493929190613159565b602060405180830381600087803b15801561229457600080fd5b505af19250505080156122c557506040513d601f19601f820116820180604052508101906122c29190612ad7565b60015b61236b576122d1613a21565b806308c379a0141561232e57506122e6614073565b806122f15750612330565b806040517f08c379a00000000000000000000000000000000000000000000000000000000081526004016123259190613250565b60405180910390fd5b505b6040517f08c379a000000000000000000000000000000000000000000000000000000000815260040161236290613272565b60405180910390fd5b63f23a6e6160e01b7bffffffffffffffffffffffffffffffffffffffffffffffffffffffff1916817bffffffffffffffffffffffffffffffffffffffffffffffffffffffff1916146123f2576040517f08c379a00000000000000000000000000000000000000000000000000000000081526004016123e990613292565b60405180910390fd5b505b505050505050565b6000808273ffffffffffffffffffffffffffffffffffffffff163b119050919050565b606061242e8484600085612437565b90509392505050565b60608247101561247c576040517f08c379a000000000000000000000000000000000000000000000000000000000815260040161247390613332565b60405180910390fd5b612485856123fc565b6124c4576040517f08c379a00000000000000000000000000000000000000000000000000000000081526004016124bb90613432565b60405180910390fd5b6000808673ffffffffffffffffffffffffffffffffffffffff1685876040516124ed9190613085565b60006040518083038185875af1925050503d806000811461252a576040519150601f19603f3d011682016040523d82523d6000602084013e61252f565b606091505b509150915061253f82828661254b565b92505050949350505050565b6060831561255b578290506125ab565b60008351111561256e5782518084602001fd5b816040517f08c379a00000000000000000000000000000000000000000000000000000000081526004016125a29190613250565b60405180910390fd5b9392505050565b60006125c56125c08461359b565b613576565b905080838252602082019050828560208602820111156125e457600080fd5b60005b8581101561261457816125fa88826126c8565b8452602084019350602083019250506001810190506125e7565b5050509392505050565b600061263161262c846135c7565b613576565b9050808382526020820190508285602086028201111561265057600080fd5b60005b85811015612680578161266688826127c4565b845260208401935060208301925050600181019050612653565b5050509392505050565b600061269d612698846135f3565b613576565b9050828152602081018484840111156126b557600080fd5b6126c0848285613846565b509392505050565b6000813590506126d781614109565b92915050565b600082601f8301126126ee57600080fd5b81356126fe8482602086016125b2565b91505092915050565b600082601f83011261271857600080fd5b813561272884826020860161261e565b91505092915050565b60008135905061274081614120565b92915050565b60008151905061275581614120565b92915050565b60008135905061276a81614137565b92915050565b60008151905061277f81614137565b92915050565b600082601f83011261279657600080fd5b81356127a684826020860161268a565b91505092915050565b6000813590506127be8161414e565b92915050565b6000813590506127d381614165565b92915050565b6000815190506127e881614165565b92915050565b60006020828403121561280057600080fd5b600061280e848285016126c8565b91505092915050565b6000806040838503121561282a57600080fd5b6000612838858286016126c8565b9250506020612849858286016126c8565b9150509250929050565b600080600080600060a0868803121561286b57600080fd5b6000612879888289016126c8565b955050602061288a888289016126c8565b945050604086013567ffffffffffffffff8111156128a757600080fd5b6128b388828901612707565b935050606086013567ffffffffffffffff8111156128d057600080fd5b6128dc88828901612707565b925050608086013567ffffffffffffffff8111156128f957600080fd5b61290588828901612785565b9150509295509295909350565b600080600080600060a0868803121561292a57600080fd5b6000612938888289016126c8565b9550506020612949888289016126c8565b945050604061295a888289016127c4565b935050606061296b888289016127c4565b925050608086013567ffffffffffffffff81111561298857600080fd5b61299488828901612785565b9150509295509295909350565b600080604083850312156129b457600080fd5b60006129c2858286016126c8565b92505060206129d385828601612731565b9150509250929050565b600080604083850312156129f057600080fd5b60006129fe858286016126c8565b9250506020612a0f858286016127c4565b9150509250929050565b60008060408385031215612a2c57600080fd5b600083013567ffffffffffffffff811115612a4657600080fd5b612a52858286016126dd565b925050602083013567ffffffffffffffff811115612a6f57600080fd5b612a7b85828601612707565b9150509250929050565b600060208284031215612a9757600080fd5b6000612aa584828501612746565b91505092915050565b600060208284031215612ac057600080fd5b6000612ace8482850161275b565b91505092915050565b600060208284031215612ae957600080fd5b6000612af784828501612770565b91505092915050565b600060208284031215612b1257600080fd5b6000612b20848285016127af565b91505092915050565b600060208284031215612b3b57600080fd5b6000612b49848285016127c4565b91505092915050565b600060208284031215612b6457600080fd5b6000612b72848285016127d9565b91505092915050565b60008060408385031215612b8e57600080fd5b6000612b9c858286016127c4565b9250506020612bad858286016127c4565b9150509250929050565b6000612bc38383613067565b60208301905092915050565b612bd8816137c0565b82525050565b6000612be982613634565b612bf38185613662565b9350612bfe83613624565b8060005b83811015612c2f578151612c168882612bb7565b9750612c2183613655565b925050600181019050612c02565b5085935050505092915050565b612c45816137d2565b82525050565b6000612c568261363f565b612c608185613673565b9350612c70818560208601613855565b612c7981613a43565b840191505092915050565b6000612c8f8261363f565b612c998185613684565b9350612ca9818560208601613855565b80840191505092915050565b6000612cc08261364a565b612cca818561368f565b9350612cda818560208601613855565b612ce381613a43565b840191505092915050565b6000612cf98261364a565b612d0381856136a0565b9350612d13818560208601613855565b80840191505092915050565b6000612d2c60348361368f565b9150612d3782613a61565b604082019050919050565b6000612d4f60288361368f565b9150612d5a82613ab0565b604082019050919050565b6000612d7260138361368f565b9150612d7d82613aff565b602082019050919050565b6000612d95602b8361368f565b9150612da082613b28565b604082019050919050565b6000612db860268361368f565b9150612dc382613b77565b604082019050919050565b6000612ddb60298361368f565b9150612de682613bc6565b604082019050919050565b6000612dfe60268361368f565b9150612e0982613c15565b604082019050919050565b6000612e2160148361368f565b9150612e2c82613c64565b602082019050919050565b6000612e44601a8361368f565b9150612e4f82613c8d565b602082019050919050565b6000612e6760258361368f565b9150612e7282613cb6565b604082019050919050565b6000612e8a60328361368f565b9150612e9582613d05565b604082019050919050565b6000612ead602a8361368f565b9150612eb882613d54565b604082019050919050565b6000612ed06005836136a0565b9150612edb82613da3565b600582019050919050565b6000612ef360208361368f565b9150612efe82613dcc565b602082019050919050565b6000612f1660348361368f565b9150612f2182613df5565b604082019050919050565b6000612f39601d8361368f565b9150612f4482613e44565b602082019050919050565b6000612f5c60168361368f565b9150612f6782613e6d565b602082019050919050565b6000612f7f60298361368f565b9150612f8a82613e96565b604082019050919050565b6000612fa2602a8361368f565b9150612fad82613ee5565b604082019050919050565b6000612fc560298361368f565b9150612fd082613f34565b604082019050919050565b6000612fe8601b8361368f565b9150612ff382613f83565b602082019050919050565b600061300b60288361368f565b915061301682613fac565b604082019050919050565b600061302e60218361368f565b915061303982613ffb565b604082019050919050565b60006130516001836136a0565b915061305c8261404a565b600182019050919050565b6130708161383c565b82525050565b61307f8161383c565b82525050565b60006130918284612c84565b915081905092915050565b60006130a88285612cee565b91506130b382613044565b91506130bf8284612cee565b91506130ca82612ec3565b91508190509392505050565b60006020820190506130eb6000830184612bcf565b92915050565b600060a0820190506131066000830188612bcf565b6131136020830187612bcf565b81810360408301526131258186612bde565b905081810360608301526131398185612bde565b9050818103608083015261314d8184612c4b565b90509695505050505050565b600060a08201905061316e6000830188612bcf565b61317b6020830187612bcf565b6131886040830186613076565b6131956060830185613076565b81810360808301526131a78184612c4b565b90509695505050505050565b60006040820190506131c86000830185612bcf565b6131d56020830184613076565b9392505050565b600060208201905081810360008301526131f68184612bde565b905092915050565b600060408201905081810360008301526132188185612bde565b9050818103602083015261322c8184612bde565b90509392505050565b600060208201905061324a6000830184612c3c565b92915050565b6000602082019050818103600083015261326a8184612cb5565b905092915050565b6000602082019050818103600083015261328b81612d1f565b9050919050565b600060208201905081810360008301526132ab81612d42565b9050919050565b600060208201905081810360008301526132cb81612d65565b9050919050565b600060208201905081810360008301526132eb81612d88565b9050919050565b6000602082019050818103600083015261330b81612dab565b9050919050565b6000602082019050818103600083015261332b81612dce565b9050919050565b6000602082019050818103600083015261334b81612df1565b9050919050565b6000602082019050818103600083015261336b81612e14565b9050919050565b6000602082019050818103600083015261338b81612e37565b9050919050565b600060208201905081810360008301526133ab81612e5a565b9050919050565b600060208201905081810360008301526133cb81612e7d565b9050919050565b600060208201905081810360008301526133eb81612ea0565b9050919050565b6000602082019050818103600083015261340b81612ee6565b9050919050565b6000602082019050818103600083015261342b81612f09565b9050919050565b6000602082019050818103600083015261344b81612f2c565b9050919050565b6000602082019050818103600083015261346b81612f4f565b9050919050565b6000602082019050818103600083015261348b81612f72565b9050919050565b600060208201905081810360008301526134ab81612f95565b9050919050565b600060208201905081810360008301526134cb81612fb8565b9050919050565b600060208201905081810360008301526134eb81612fdb565b9050919050565b6000602082019050818103600083015261350b81612ffe565b9050919050565b6000602082019050818103600083015261352b81613021565b9050919050565b60006020820190506135476000830184613076565b92915050565b60006040820190506135626000830185613076565b61356f6020830184613076565b9392505050565b6000613580613591565b905061358c82826138ba565b919050565b6000604051905090565b600067ffffffffffffffff8211156135b6576135b56139f2565b5b602082029050602081019050919050565b600067ffffffffffffffff8211156135e2576135e16139f2565b5b602082029050602081019050919050565b600067ffffffffffffffff82111561360e5761360d6139f2565b5b61361782613a43565b9050602081019050919050565b6000819050602082019050919050565b600081519050919050565b600081519050919050565b600081519050919050565b6000602082019050919050565b600082825260208201905092915050565b600082825260208201905092915050565b600081905092915050565b600082825260208201905092915050565b600081905092915050565b60006136b68261383c565b91506136c18361383c565b9250827fffffffffffffffffffffffffffffffffffffffffffffffffffffffffffffffff038211156136f6576136f5613965565b5b828201905092915050565b600061370c8261383c565b91506137178361383c565b92508261372757613726613994565b5b828204905092915050565b600061373d8261383c565b91506137488361383c565b9250817fffffffffffffffffffffffffffffffffffffffffffffffffffffffffffffffff048311821515161561378157613780613965565b5b828202905092915050565b60006137978261383c565b91506137a28361383c565b9250828210156137b5576137b4613965565b5b828203905092915050565b60006137cb8261381c565b9050919050565b60008115159050919050565b60007fffffffff0000000000000000000000000000000000000000000000000000000082169050919050565b6000613815826137c0565b9050919050565b600073ffffffffffffffffffffffffffffffffffffffff82169050919050565b6000819050919050565b82818337600083830152505050565b60005b83811015613873578082015181840152602081019050613858565b83811115613882576000848401525b50505050565b600060028204905060018216806138a057607f821691505b602082108114156138b4576138b36139c3565b5b50919050565b6138c382613a43565b810181811067ffffffffffffffff821117156138e2576138e16139f2565b5b80604052505050565b60006138f68261383c565b91507fffffffffffffffffffffffffffffffffffffffffffffffffffffffffffffffff82141561392957613928613965565b5b600182019050919050565b600061393f8261383c565b915061394a8361383c565b92508261395a57613959613994565b5b828206905092915050565b7f4e487b7100000000000000000000000000000000000000000000000000000000600052601160045260246000fd5b7f4e487b7100000000000000000000000000000000000000000000000000000000600052601260045260246000fd5b7f4e487b7100000000000000000000000000000000000000000000000000000000600052602260045260246000fd5b7f4e487b7100000000000000000000000000000000000000000000000000000000600052604160045260246000fd5b600060033d1115613a405760046000803e613a3d600051613a54565b90505b90565b6000601f19601f8301169050919050565b60008160e01c9050919050565b7f455243313135353a207472616e7366657220746f206e6f6e204552433131353560008201527f526563656976657220696d706c656d656e746572000000000000000000000000602082015250565b7f455243313135353a204552433131353552656365697665722072656a6563746560008201527f6420746f6b656e73000000000000000000000000000000000000000000000000602082015250565b7f4d696e74206e6f7420636f6e6669677572656400000000000000000000000000600082015250565b7f455243313135353a2062616c616e636520717565727920666f7220746865207a60008201527f65726f2061646472657373000000000000000000000000000000000000000000602082015250565b7f4f776e61626c653a206e6577206f776e657220697320746865207a65726f206160008201527f6464726573730000000000000000000000000000000000000000000000000000602082015250565b7f455243313135353a2063616c6c6572206973206e6f74206f776e6572206e6f7260008201527f20617070726f7665640000000000000000000000000000000000000000000000602082015250565b7f416464726573733a20696e73756666696369656e742062616c616e636520666f60008201527f722063616c6c0000000000000000000000000000000000000000000000000000602082015250565b7f4d696e74696e67206e6f74206f70656e20796574000000000000000000000000600082015250565b7f4d696e74696e672077617320636c6f73656420616c7265616479000000000000600082015250565b7f455243313135353a207472616e7366657220746f20746865207a65726f20616460008201527f6472657373000000000000000000000000000000000000000000000000000000602082015250565b7f455243313135353a207472616e736665722063616c6c6572206973206e6f742060008201527f6f776e6572206e6f7220617070726f7665640000000000000000000000000000602082015250565b7f455243313135353a20696e73756666696369656e742062616c616e636520666f60008201527f72207472616e7366657200000000000000000000000000000000000000000000602082015250565b7f2e6a736f6e000000000000000000000000000000000000000000000000000000600082015250565b7f4f776e61626c653a2063616c6c6572206973206e6f7420746865206f776e6572600082015250565b7f4e6f7420656e6f756768742076616c756520746f206d696e742c20706c65617360008201527f652075736520706c61696e207472616e73666572000000000000000000000000602082015250565b7f416464726573733a2063616c6c20746f206e6f6e2d636f6e7472616374000000600082015250565b7f4e6f2062616c616e636520746f207472616e7366657200000000000000000000600082015250565b7f455243313135353a2073657474696e6720617070726f76616c2073746174757360008201527f20666f722073656c660000000000000000000000000000000000000000000000602082015250565b7f5361666545524332303a204552433230206f7065726174696f6e20646964206e60008201527f6f74207375636365656400000000000000000000000000000000000000000000602082015250565b7f455243313135353a206163636f756e747320616e6420696473206c656e67746860008201527f206d69736d617463680000000000000000000000000000000000000000000000602082015250565b7f546869732064657369676e2069736e2774206176616c6169626c650000000000600082015250565b7f455243313135353a2069647320616e6420616d6f756e7473206c656e6774682060008201527f6d69736d61746368000000000000000000000000000000000000000000000000602082015250565b7f455243313135353a206d696e7420746f20746865207a65726f2061646472657360008201527f7300000000000000000000000000000000000000000000000000000000000000602082015250565b7f2f00000000000000000000000000000000000000000000000000000000000000600082015250565b600060443d101561408357614106565b61408b613591565b60043d036004823e80513d602482011167ffffffffffffffff821117156140b3575050614106565b808201805167ffffffffffffffff8111156140d15750505050614106565b80602083010160043d0385018111156140ee575050505050614106565b6140fd826020018501866138ba565b82955050505050505b90565b614112816137c0565b811461411d57600080fd5b50565b614129816137d2565b811461413457600080fd5b50565b614140816137de565b811461414b57600080fd5b50565b6141578161380a565b811461416257600080fd5b50565b61416e8161383c565b811461417957600080fd5b5056fea2646970667358221220e480160e320c0df95156368deeced2f22c123f1747589e275c9628088842b7a764736f6c63430008040033",
  "linkReferences": {},
  "deployedLinkReferences": {}
}